:020000040000FA
:10000000F8490020B1020000B9020000BB02000064
:10001000BD020000BF020000C1020000000000009D
:1000200000000000000000000000000019020000B5
:10003000C50200000000000055020000C9020000D7
:10004000550F0000CB020000A11700000D150000A5
:10005000CB020000CB0200009D0C0000C513000085
:100060003D1700005117000065170000CB0200008B
:10007000CB020000CB020000CB020000CB0200004C
:10008000CB0200005D130000CB020000CB02000099
:10009000CB020000CB020000CB020000CB0200002C
:1000A000CB020000CB020000791700008D17000082
:1000B000CB020000CB0200000000000000000000A6
:1000C000CB020000CB020000CB020000CB020000FC
:1000D000CB020000CB020000CB020000CB020000EC
:1000E000CB020000CB020000CB02000000000000A9
:1000F00000000000CB02000000000000CB02000066
:1001000000000000000000000000000000000000EF
:1001100000000000000000000000000000000000DF
:1001200000000000000000000000000000000000CF
:1001300000000000000000000000000000000000BF
:1001400000000000000000000000000000000000AF
:10015000000000000000000000000000000000009F
:10016000000000000000000000000000000000008F
:10017000000000000000000000000000000000007F
:10018000000000000000000000000000000000006F
:10019000000000000000000000000000000000005F
:1001A000000000000000000000000000000000004F
:1001B000000000000000000000000000000000003F
:1001C000000000000000000000000000000000002F
:1001D000000000000000000000000000000000001F
:1001E000000000000000000000000000000000000F
:1001F00000000000000000000000000000000000FF
:10020000DFF810D000F0A4FC00480047698B000024
:10021000AFF30080F8490020244B19680868B0E863
:10022000F04F80F30988BFF36F8F4FF0000080F329
:1002300011887047000000000548006880F30888B6
:1002400062B661B6BFF34F8FBFF36F8F00DF000060
:1002500000000000EFF30980BFF36F8F134B1A68A3
:100260001EF0100F08BF20ED108A20E9F04F10603B
:1002700008B44FF0400080F31188BFF34F8FBFF3F5
:100280006F8F0EF037FE4FF0000080F3118808BC2E
:1002900019680868B0E8F04F1EF0100F08BFB0EC06
:1002A000108A80F30988BFF36F8F70470C0000201D
:1002B0000648804706480047FEE7FEE7FEE7FEE700
:1002C000FEE7FEE7FEE7FEE7FEE7FEE7611500005A
:1002D00001020000202A04DB203A00FA02F100208B
:1002E00070479140C2F1200320FA03F31943904074
:1002F0007047202A04DB203A21FA02F000217047DF
:1003000021FA02F3D040C2F120029140084319467D
:10031000704740EA01039B0703D009E008C9121F98
:1003200008C0042AFAD203E011F8013B00F8013BAF
:10033000521EF9D27047D2B201E000F8012B491EDB
:10034000FBD270470022F6E710B513460A46044672
:100350001946FFF7F0FF204610BD30B505462A4686
:100360000B4612F8010B13F8014B08B1A042F8D06C
:100370001CB1002802D06D1CF1E7284630BD421C9C
:1003800010F8011B0029FBD1801A704710B500221C
:1003900000E0521C835C8C5CA34201D1002BF8D19D
:1003A000D8B2E1B2401A10BD034611F8012B00F893
:1003B000012B002AF9D11846704770B5064601F0A6
:1003C000F7FA046805460A220021304600F073FA65
:1003D0002C6070BD2DE9FE4F804681EA0300C00FFE
:1003E0000C46009021F0004123F00045B8EB0200DC
:1003F000A94105D24046214690461C460B4602467E
:1004000023F00040104347D0270DC7F30A00C3F381
:100410000A510290401A019040286BDAC3F313008E
:1004200040F4801B0098924620B10023D2EB030ACF
:1004300063EB0B0B01985946C0F140025046FFF7A1
:1004400049FF06460D4650465946019A00F021FAEA
:1004500010EB08006141002487EA115284EAE77337
:100460001A4340D0009A62B3019A012A4FEA075218
:1004700015DC001B61EB02014FF0004202EA07525B
:10048000CDE90042001C41F5801132462B4600F0B8
:1004900090FA03B0BDE8F08F40462146F9E7001B13
:1004A00061EB0201001C41F5801300185B4120182C
:1004B000A2F5001747EB030140EAD570B6196D416C
:1004C00011E06D084FEA360645EAC0754FEA07525B
:1004D000001B61EB0201001C41F5801149084FEA45
:1004E00030000019514132462B4603B0BDE8F04FB1
:1004F00000F050BA0098012240000023D0EB020225
:1005000063EBE073009821464FEAE074B8EB00001B
:1005100061EB0401E9E783F000435BE781F0004110
:1005200058E72DE9FE4F81EA030404F0004421F06E
:10053000004100944FF0000B23F0004350EA010407
:100540005ED052EA03045BD0C3F30A54C1F30A55E8
:100550002C44A4F2F3340194A0FB0254C1F3130120
:1005600041F48011C3F3130343F4801301FB0244ED
:1005700000FB034E840A970A44EA815447EA8357F2
:10058000A4FB076802958D0A05FB07854FEA932CAB
:1005900004FB0C542705029D4FEA065847EA16371C
:1005A000B5EB08056EEB070C870E920E47EA811734
:1005B00042EA8312A7FB0201B6EB0B0164EB0004D5
:1005C0002B0D43EA0C335E1844EB1C50DA465146BF
:1005D000E7FB0201C5F313044FEA0B3343EA14535C
:1005E0004FEA0432019C43EA0603A4F10C0402948E
:1005F000009CCDE900B400F0DCF903B0BDE8F08F59
:1006000000200146F9E72DE9F04D81EA030404F0EA
:10061000004B21F0004514464FF0000A23F0004142
:1006200050EA050220D054EA01021DD0C5F30A5752
:100630000246C5F31303C1F31300C1F30A5640F495
:10064000801543F48013A7EB0608101BD64608F26A
:10065000FD3873EB050002D308F1010801E09218A0
:100660005B41B8F1000F03DA00200146BDE8F08DD0
:1006700000204FF48011064684460EE0171B73EBF2
:10068000050705D3121B63EB050306434CEA010C77
:1006900049084FEA300092185B4150EA0107EDD15A
:1006A00052EA030012D082EA040083EA05010843FB
:1006B00005D0101BAB4106D20122002306E0002228
:1006C0004FF0004302E06FF0010253101AEB0600F6
:1006D0004CEB085110EB0A0041EB0B01BDE8F04D6B
:1006E00000F058B90EB5C10F80EAE0700844CA079F
:1006F000002140F233438DE80E000A460B4600F01D
:1007000058F903B000BD70B5C1F30A5201F00045BD
:100710000024C1F3130140F2FF3341F480119A42E7
:1007200001DA002070BD40F233439A42A2F2334214
:1007300003DC5242FFF7DDFD00E090402C43F1D096
:10074000404270BD00F0004230F000400AD0C10DC0
:1007500001F56071C0F3160042EA0151C20840077A
:1007600011437047002001467047000030B5041E59
:1007700071F1000404DB4FF00044404264EB0101DE
:10078000141E73F1000405DB1C464FF00043524277
:1007900063EB04038B4208BF824230BD30B5041EB8
:1007A00071F1000404DB4FF00044404264EB0101AE
:1007B000141E73F1000405DB1C464FF00043524247
:1007C00063EB0403994208BF904230BD01F000433F
:1007D00030B421F0004150EA010206D00A0DA2F522
:1007E0006072C1F31301002A02DC30BC00207047A4
:1007F000440F44EAC104C100E01830BC00EBC25011
:1008000000F091B830B50B460146002020220124AB
:1008100009E021FA02F59D4205D303FA02F5491BCE
:1008200004FA02F52844151EA2F10102F1DC30BDE4
:100830002DE9F05F0546002092469B468846064615
:10084000814640241BE02846414647462246FFF7A2
:1008500050FD53465A46C01A914110D311461846CE
:100860002246FFF737FD2D1A67EB01084F46224657
:1008700001200021FFF72EFD17EB00094E41201E3D
:10088000A4F10104DFDC484631462A464346BDE870
:10089000F09F202A06DBCB17203A41FA02F043EA08
:1008A000E07306E041FA02F3D040C2F12002914029
:1008B0000843194670472DE9F04791460F46804698
:1008C0000446002614F8015B2DB100F053F90068CE
:1008D000405DC007F6D12B2D02D02D2D18D0641EFF
:1008E0004A463946204600F049F927B13968A14205
:1008F00001D1C7F8008071054FF002040BD54042CA
:10090000002803DD01F054F80460A007BDE8F0877B
:1009100046F48066E4E70028F8DA01F049F804605C
:100920006FF00040F2E70029A8BF7047401C490063
:1009300008BF20F00100704710B4B0FA80FC00FA44
:100940000CF050EA010404BF10BC704749B1CCF16F
:10095000200421FA04F411FA0CF118BF01212143FB
:100960000843A3EB0C01CB1D4FEA00614FEA1020B6
:1009700042BF002010BC704700EBC3501044002958
:10098000A4BF10BC7047401C490008BF20F0010004
:1009900010BC704710B5141E73F1000408DA401C37
:1009A00041F1000192185B411A4301D120F001008E
:1009B00010BD2DE9F04D92469B4611B1B1FA81F27E
:1009C00002E0B0FA80F220329046FFF783FC044642
:1009D0000F4640EA0A0041EA0B0153465A460843D3
:1009E00013D0114653EA010019D0C8F14002504615
:1009F000FFF77FFC05460E46504659464246FFF734
:100A000069FC084305D0012004E020463946BDE8D2
:100A1000F08D0020054346EAE0762C4337430A98E0
:100A20006305E40AA0EB08000022FD0A44EA4754EB
:100A30000A3002D500200146E9E701051019694195
:100A4000DDE9084500196941BDE8F04DA2E770B540
:100A500021F0004303430CD0C1F30A550024D5EB29
:100A6000040564EB0403D617AD1AB34102DB002082
:100A7000014670BD201841EB025170BD2DE9F04DCB
:100A800000231A461B1A8A4103DB00200146BDE8F9
:100A9000F08DC1F30A52C1F3130141F480154FF0F8
:100AA000000BD10702D100186D41521E00270446E9
:100AB00040F2FF11384601EB620A3E46804602468C
:100AC00000204FF48011FFF714FCC2197141BB18CC
:100AD00046EB0100B4EB030C75EB000C04D3E41AF5
:100AE00065EB000517460E46241908F101006D411B
:100AF00080463428E3DDF91946EB0600091BA841BE
:100B000003D24FF0FF32134601E0002213461BEBE5
:100B1000070046EB0A51BDE8F04DFFF73BBFC1F3BC
:100B20000A52C1F3130140F2FF3341F480119A429B
:100B300002DA00200146704740F233439A42A2F2A3
:100B4000334202DC5242FFF7D4BBFFF7C3BB0000C5
:100B5000064C074D06E0E06840F0010394E807000A
:100B600098471034AC42F6D3FFF74EFB505B0100C0
:100B7000705B010000487047A45A01002DE9F05F46
:100B800082460078002715468B460AF10104B946D3
:100B9000302801D09DB113E014F8010B012778280B
:100BA00003D0582801D045B10AE00DB1102D07D16E
:100BB0000027102514F8010B02E0082500E00A25A3
:100BC0000026B0460EE005FB080005FB06F10127F4
:100BD00001EB10461FFA80F8B6F5803F00D3B94606
:100BE00014F8010B294600F025F80028EBDABBF1D8
:100BF000000F05D00FB1641E00E05446CBF8004052
:100C0000B9F1000F06D000F0D3FE02210160C81E2A
:100C1000BDE8F09F48EA0640FAE70EB540F23341DE
:100C200002910021CDE900110A460B46FFF7C1FEF3
:100C300003B000BD3A2800D2303820F02002412A0B
:100C400001D3A2F13700884201D34FF0FF30704743
:100C500030B5114801680468056831F8863FA489F9
:100C60008A88B5F88C50991A651B01EB4501056817
:100C700009B2C910A5F88C2002680568B2F888206E
:100C8000A5F88A200268A2F888300268A2F8864097
:100C90000068C18130BD0000CCF400002DE9FC41AA
:100CA0000025DFF8948000954FF4807601242F46CC
:100CB000019530460DF09CFA38B1D8F80403204273
:100CC00003D030460DF08AFA2543361D64007F1CA0
:100CD000B6B2082FEDD34FF4BE7420460DF088FA5B
:100CE00048B120460DF07AFA45F000456A460221E7
:100CF00000200DF02BFA15F0FF0F16D0012600246E
:100D00002E420ED008EB8401D1F81005D1F8101551
:100D1000C0F30520094AC1F3014152F8242002B171
:100D200090477600641C082CEAD3002D02DA68464E
:100D30000DF0E0FCBDE8FC810060004000040020F4
:100D400070B521480168B1F90230A3F1100109B270
:100D5000002901DA203109B209B34A1E12B204682F
:100D6000066804EB430406EB410134F9463F06EB09
:100D700042025D110368B1F84610B2F84620B3F99B
:100D80000A30A5EB63152944891A104A158C2944A9
:100D900009B211842380002903DB491005E01F22DA
:100DA000DDE74FF4784242EA61010268918101680F
:100DB00002684988491C09B25180202902D1006883
:100DC0000021418070BD0000CCF4000068000020CC
:100DD000F0B51A490A68B2F90040A21F12B2002AFF
:100DE00001DA0C3212B2164B5E8E9D8EC6EB4507B1
:100DF0000688B8190F6807EB4202D28DA0EB4200BB
:100E000007EB4402D48D5D86204400B29886D685D7
:100E1000002801DB401103E04FF4784242EA601001
:100E20000A68508108680A680088401C00B2108077
:100E30000C2802D1096800200880F0BDCCF4000025
:100E40006800002070B5234B04881A8D944200D9A5
:100E50001C85214A1568ED888DB11E4DB3F90E60D1
:100E6000688DB5F92250B6F5C87F0FDA20444008E6
:100E70005885B1F9000028444010588470BD1268AC
:100E80000124D480008858850888F6E71468022178
:100E9000C008E180198D14684908E1821468091AB4
:100EA000208300EBA100116880B28882116840089D
:100EB0004883B3F9040041101068C1831368E81037
:100EC000091A188400EBA10011688883116840108A
:100ED000488470BD68000020CCF4000070B51B4849
:100EE0004FF6FF7401680A8A1949A51A8B8C9D4236
:100EF00002D913448B8400E08C84036804688E8CD0
:100F0000B3F9043004EB43040023B4F88E50B54227
:100F100002D2751B8D8400E08B84A4F88E20898C0E
:100F20001E22B1FBF2F1026851824FF4FA42914263
:100F300001D901684A82016802688988491C09B29E
:100F400091801E2901D10068838070BDCCF400001F
:100F5000680000202DE9F0414FF4807630460DF016
:100F6000B5F8234CB50560B130460DF0B6F8012058
:100F7000C5F80803607920B901206071216800205C
:100F800088474FF4827630460DF0A0F840B13046E5
:100F90000DF0A3F80220C5F8080321680120884756
:100FA0004FF4887630460DF091F840B130460DF0A0
:100FB00094F81020C5F808032168022088474FF4F0
:100FC000867738460DF082F800280ED009480026B2
:100FD000066038460DF081F80820C5F80803A671B0
:100FE0002168BDE8F04103200847BDE8F08100001A
:100FF00048000020340C0040F1B582B0002702A860
:10100000FFF7E6FEFFF79CFE754E3068B0F90C0066
:1010100000F060F9FFF71CFE3068B0F90E0000F038
:1010200071F900F07BFAFFF759FF00F083F96D4C7E
:10103000ADF80000002550B9B4F9181039B1491EB7
:1010400008B22083A0B9E08CADF8000010E078B1C0
:10105000B4F91810282211B1E38C984202D92283E6
:10106000E08403E0491E08B2208368B3ADF8005065
:10107000E089401C01B2E1813068B0F9060030B36C
:10108000012824D03268938ABDF80020934252D2BE
:101090003368B4F904C0B3F91C3063454BDA022855
:1010A0001ED048292FDAB4F90A00B4F90C10B0EBBD
:1010B000A10F28DA0121684600F01CFC49480121F3
:1010C000001D00F0E9FB4FE0ADF80030D0E7BDF8BF
:1010D000000078B343496846091DFFF7B3FE43E0BB
:1010E0000021684600F006FC3E480021001D00F08B
:1010F000D3FBE5816089A0816581A58031684E2799
:101100000320C88030E00021684600F0F3FB35483A
:101110000021001D00F0C0FBB4F90E0000F046FBFA
:10112000E5816089A081A58065816583A583E583CC
:101130004E27258618E0BAB10121684600F0DAFB97
:1011400028480121001D00F0A7FBBDF80010208EEB
:10115000814209D9B4F90E00482805DB2186A1880F
:10116000A1836189E18360833068B4F90E10B0F91E
:101170002A0088422BDA3068218E408B884226D2A2
:101180003068C088032822D13068B4F91C10B0F947
:10119000220088421BDA13480021303000F0AAFBFD
:1011A000104800211C3000F077FBB4F91A0000F061
:1011B000FDFAE089618B401AE0814E3007B2E08B86
:1011C000A081A58065816583A583E5832586B4F923
:1011D0000E00B0F5487F01DD00F006F83846FEBD90
:1011E000CCF400006800002070B5EA213648FFF713
:1011F000A9F836490020C8230A68D0800A68938479
:101200000A6813810C68B822E2840C68E8222285FF
:101210000C684FF4A67262850A6810800A685080D4
:101220000A6890800A6890850C68002204EB4205E9
:10123000521C52B2E8850C2AF8DBD1F8004000229B
:1012400004EB4205521C52B2A5F84600202AF7DBF7
:101250000C68002204EB4205521C52B2A5F886002D
:10126000042AF7DB0C68002204EB4205521C52B240
:10127000A5F88E001E2AF7DB0C68002204EB420161
:10128000521CA1F8DA3052B2A1F8CA30082AF5DBB4
:101290000F494FF4C862C8858885888048800880D7
:1012A000888148810881C880C881488208828884F2
:1012B000CA828A82088348830886C883888308850F
:1012C00008848886488670BD0C050020CCF4000098
:1012D00068000020002801DA404200B20849B1F954
:1012E0000020904208DCB1F902309A4204DDB1F9E5
:1012F00004309A4200DD8A804A80088070470000EE
:1013000068000020002801DA404200B20849B1F923
:101310000620904208DCB1F908309A4204DDB1F9A8
:101320000A309A4200DD4A810A81C8807047000075
:10133000680000200748084900688A8D438A934264
:1013400004D8C88D824201D9104600E00020CA8529
:101350008B857047CCF40000680000202DE9F04137
:10136000164E4FF4A07130460CF04AFF0025EFF303
:101370001184402080F31188D6F80475810030462E
:101380000CF03EFF0EF016F8381A20F07F46012EC2
:1013900007D90EF001F8022803D000260EF010F84D
:1013A0000543761EFAD225B105494FF080500860FA
:1013B00040BFE0B280F31188BDE8F0810010014029
:1013C00004ED00E02DE9FE434FF4827840460CF036
:1013D0002FFF4C4F00254C4C012600B340460CF02B
:1013E0002FFF94F82E0010B194F82F10D1B18DF882
:1013F0000050616801912189ADF80810E26832B1AE
:10140000218B618362602181E56010B102E0257467
:1014100000E03E6021686846884784F82F5094F8C1
:101420002E0060B34FF4807738460CF001FF30B3E4
:1014300038460CF005FF628B94F82D108A420AD9C9
:10144000A2EB010080B260832289A2EB00006268F7
:1014500002EB400005E007D1E06828B184F82F6076
:1014600065830CF0D3FE04E08A4202D184F82F6039
:10147000658340460CF0E4FE2248001D06604FF4F0
:10148000887738460CF0D4FE48B138460CF0D8FEC8
:10149000257402208DF800002168684688474FF4C3
:1014A0008A7738460CF0C4FE28B138460CF0C8FEE6
:1014B0002574BDE8FE834FF000484FF48C796769CE
:1014C0001DE000BFB7FA87F028FA00F109EB8005AC
:1014D0008F4328460CF0ACFE88B128460CF0B0FED5
:1014E000A5F58C75E8088DF8040045F38000401CD4
:1014F0008DF800608DF80500216868468847002F48
:10150000E0D1D6E7007000406C0400200149024899
:101510000DF092BBD8040020003000400F4947F284
:1015200030520868B0F90E0000F58073B3F5007F03
:1015300004D90B684FF6FF7018820CE0002802DA1D
:10154000404280B201E00868C0890B68404380B225
:101550001882904201D9086802827047CCF40000DA
:1015600030B54FF080520023D2E94C10082906D143
:10157000CC06C4F80C31C4F81031624C2360082941
:1015800055D1614B1B68614C23605F4B1B1D1B6871
:10159000241D23605C4B08331B68241D23605A4BB9
:1015A0000C331B68241D2360574B10331B68241D0C
:1015B0002360554B14331B68241D2360524B183392
:1015C0001B68524C203423604F4B1C331B68241D76
:1015D00023604D4B20331B68241D23604A4B24336A
:1015E0001B68241D2360484B28331B68241D23607F
:1015F000454B2C331B68241D2360434B30331B6841
:10160000424C40342360404B34331B68241D23601C
:101610003D4B38331B68241D23603B4B3C331B6818
:10162000241D2360384B40331B68241D2360082988
:1016300004D1030002D1374C354B2360082904D173
:10164000030002D1344CFB232360082908D1030096
:1016500006D1324B92F858521C6865F303041C60A3
:10166000082904D1030002D12D4C8B0123600829E5
:1016700006D12C480168C90702D06FF00101016052
:101680002948016841F470010160BFF34F8FBFF337
:101690006F8FD2E94C104FF01022082906D1032891
:1016A00004D9D2F80802174920310860D2F80002A4
:1016B000002803DBD2F8040200281FDA01200CF016
:1016C000D3FF1221C2F8001218480368002BFCD087
:1016D000C2F8041201680029FCD000200CF0C4FFFD
:1016E000BFF34F8F10487C380168114A01F4E06164
:1016F00011430160BFF34F8F00BFFDE70E490D4856
:10170000086030BD380500400404001020C50040CA
:10171000488103008C56004018F50040E40E00405C
:10172000409602400004004088ED00E000E40140E3
:101730000400FA050090D003D800002004220249DA
:10174000024807F023B900009C04002000800040FC
:1017500004220249024807F019B90000A804002039
:101760000090004004220249024807F00FB900002F
:10177000B404002000A0004006220249024807F0FD
:1017800005B90000C004002000A001400622024963
:10179000024807F0FBB80000CC04002000B0014074
:1017A00001480068004700005C000020F0B5384A9E
:1017B000918AB2F910500B1836490C6804EB4504B5
:1017C0006D1C34F8CA6F2DB29B1B1BB29382208014
:1017D000DC1703EB5473DC100B681C8100231582AB
:1017E000082D00D113820D684FF0320CB5F9265048
:1017F000854237DC0D68B5F92850854232DBD48A42
:101800000E682518B2F9124006EB4406641C36F83F
:10181000DA7F24B2ED1B2DB2D5823080E81705EBBC
:1018200050700D68C010082CA884548200D15382D7
:101830000A6819240E68B2F90820550095FBF4F5E2
:10184000551BF584950095FBF4F422440C68228521
:1018500000EB401292FBFCF210440A6850850868C5
:101860008385F0BD04EB441090FBFCF00A68204433
:10187000508508680A68808A4008908208680A686B
:10188000B0F91C0040109083096801208885F0BDE4
:1018900068000020CCF40000154A002911680CD023
:1018A000B1F920101368A1EBE1011984B0F900002F
:1018B00001EBE000116808840BE0B1F91E10136819
:1018C000A1EBE101D983B0F9000001EBE000116860
:1018D000C8831068B0F91E10B0F92000091A00EB97
:1018E000A100116800B288831168401048847047D5
:1018F000CCF40000124A002911680AD0098B136841
:10190000A1EBD1011983008801EBD0001168088395
:1019100009E0C98A1368A1EBD101D982008801EBE3
:10192000D0001168C8821068C18A008B091A00EBC8
:10193000A100116880B2888211684008488370470E
:10194000CCF40000002809DB00F01F0201219140C7
:101950004009800000F1E020C0F8801270470000CC
:101960000FB4054B10B503A9044A029801F038FFE3
:1019700010BC5DF814FB0000937E0000DC0000202A
:1019800003B401984100009850EAC12018BF042018
:101990004A0D18BF40F0010040F2FF72B2EB515FF8
:1019A00008BF40F00200012808BF052002B07047C0
:1019B00000487047E80000202DE9F0412DED020BB2
:1019C0009FED3D0B2DED028B9FED3D8BDDE902542C
:1019D000C4F30A50A0F2FF36142E37DA002E18DABC
:1019E00053EC102B9DED020B51EC100BFEF7F2FCAB
:1019F00053EC182BFEF7D2FE57D2002CBCBF4FF091
:101A00000044002551DB54EA050018BF2E4C1BD1C1
:101A10004BE02E4820FA06F704EA070028431FD0BF
:101A200053EC102B9DED020B51EC100BFEF7D2FC8A
:101A300053EC182BFEF7B2FE37D2002C03DD4FF427
:101A40008010F0400444BC4300252EE0332E07DC18
:101A5000A6F114004FF0FF3121FA00F73D4206D104
:101A60009DED020BBDEC028B02B0BDE8F08153ECA2
:101A7000102B9DED020B51EC100BFEF74FFD53ECBC
:101A8000182BFEF78BFE10D2002C0DDD142E08BF94
:101A9000641C09D0C6F13400012101FA00F0284489
:101AA000A84238BF641C0546BD43CDE902549DEDF4
:101AB000020BD7E7000000009C7500883CE4377EED
:101AC00000000000000000000000F03FFFFF0F00DA
:101AD00010B52F499FED2C1B2DED020B84B00598FE
:101AE00020F000408842D8BF9DED040B2DDD294930
:101AF000884209D1049840B94FF0010001F0A8FDD7
:101B000001F066FD06B010BD05DB9DED040B01F094
:101B10004BFD06B010BD68469DED040B01F044F985
:101B200010F0030004BF9DED021B9DED000B0CD0D7
:101B300001280ED09DED021B9DED000B022817D051
:101B4000012001F081FC06B010BD01F049FB06B098
:101B500010BD9DED021B9DED000B012001F074FCFA
:101B600051EC100B81F0004106B041EC100B10BDA0
:101B700001F036FB51EC100B81F0004106B041EC56
:101B8000100B10BD0000000000000000000000006D
:101B9000FB21E93F0000F07F70B5D94B00242DED0B
:101BA000020B2DED108BDDE91010984205DA20F0C4
:101BB00000429A4201D809D141B19DED100BBDEC14
:101BC000108B02B0BDE8704001F0EEBCB0F5801F94
:101BD00026DA11430BD0002813DA012001F038FD7A
:101BE000BDEC108B02B0BDE8704001F0F1BC0220EA
:101BF00001F02EFD01F0C0FC51EC100B81F0004112
:101C00009EE06FF035049FEDC00B53EC102B9DED63
:101C1000100B51EC100BFEF784FCCDE910010846C7
:101C200004EB2051C0F31304B948A1F2FF31204462
:101C300000F4801080F07F6282F04052224301EB7A
:101C400020559FEDB50B119253EC102B9DED100B11
:101C500051EC100BFEF75FFC41EC180BA01CC0F31D
:101C600013009FEDAFDB9FEDB0EBB14E7E44032838
:101C70006CD296ED000B51EC180B53EC102BFEF7C9
:101C800075FD1DD1002D01BF96ED000BBDEC108B35
:101C900002B070BD2846FEF725FD41EC180B53EC51
:101CA0001D2BFEF73EFC41EC190B53EC1E2B51ECA7
:101CB000180BFEF736FC53EC192BFEF78BFB3FE0BD
:101CC0009FED9D0B51EC180B53EC102BFEF729FCEC
:101CD0009FED9B1B53EC112BFEF720FC41EC190BE5
:101CE00053EC182B51EC180BFEF71BFC53EC192B83
:101CF000FEF717FC41EC190B002D04BF53EC192B18
:101D000051EC180B1AD02846FEF7ECFC41EC1A0BEC
:101D100053EC1D2BFEF705FC53EC192BFEF7FEFBD5
:101D200053EC182BFEF7F7FB41EC180B53EC1E2B72
:101D300051EC1A0BFEF7F5FB53EC182BFEF7EBFBFF
:101D4000BDEC108B02B041EC100B70BD9FED7E0B13
:101D500051EC180B53EC102BFEF73CFB41EC100B35
:101D600051EC180B53EC102BFEF74DFC41EC190B0A
:101D70002846FEF7B7FC41EC1B0B53EC192B51EC3A
:101D8000190BFEF7CEFB41EC1A0B714853EC1A2BE2
:101D9000261851EC1A0BFEF7C4FB41EC1F0B6D48E3
:101DA000C4F1510404F5D724B0EE4F0AF0EE6F0AE7
:101DB0000321784401F0CCFA53EC1F2B51EC100BAB
:101DC000FEF7AFFB41EC1C0B6348B0EE4F0AF0EEA0
:101DD0006F0A0421784401F0BBFA53EC1A2B51EC42
:101DE000100BFEF79EFB344353EC1C2BFEF7F2FA6C
:101DF00041EC1C0B002C4CDD9FED510B51EC180BF2
:101E000053EC102BFEF78DFB53EC182BFEF789FBE0
:101E100041EC1A0B55B353EC1D2B51EC1B0BFEF789
:101E200080FB41EC1D0B53EC1C2B51EC1A0BFEF705
:101E3000D1FA53EC192BFEF774FB53EC1D2BFEF774
:101E4000C9FA53EC1A2BFEF769FB53EC182BFEF77B
:101E500062FB41EC180B53EC1E2B51EC1B0BFEF7F5
:101E600060FB53EC182BFEF756FB69E753EC1C2B79
:101E700051EC1A0BFEF7AEFA53EC192BFEF751FB9F
:101E800053EC1A2BFEF74AFB53EC182BFEF746FBDC
:101E900056E735B353EC1D2B51EC1B0BFEF741FB02
:101EA00041EC1A0B53EC1C2B51EC180BFEF733FBD7
:101EB00053EC192BFEF735FB53EC1A2BFEF72BFBDB
:101EC00053EC182BFEF727FB41EC180B53EC1E2BA1
:101ED00051EC1B0BFEF725FB53EC182BFEF71BFBFD
:101EE0002EE753EC1C2B51EC180BFEF714FB53ECB4
:101EF000192BFEF716FB53EC182BFEF70FFB1FE711
:101F00000000F07F000000000000000000005043CF
:101F1000645F090000000000000000000000F03FC6
:101F2000763C7935EF39EA3D0000E0FE422EE63F8F
:101F3000B83C010000000000555555555555D53F9A
:101F4000000000000000E03F000000000000004032
:101F500086EBF9FF823A0100783A010000000000A8
:101F600070B5414A00252DED020B2DED048BDDE906
:101F70000404944205DA24F00041914201D809D1C9
:101F800040B19DED040BBDEC048B02B0BDE8704088
:101F900001F00ABBB4F5801F26DA08430BD0002CF1
:101FA00013DA012001F054FBBDEC048B02B0BDE854
:101FB000704001F00DBB022001F04AFB01F0DCFA99
:101FC00051EC100B81F0004146E09FED290B6FF0C2
:101FD000350553EC102B9DED040B51EC100BFEF767
:101FE000A0FACDE904010C4605EB2450A0F2FF3025
:101FF000C10F40F2FF32521A62F31F540844FEF739
:1020000071FB05949DED040B41EC180B51EC100B8A
:1020100006F0F2FC9FED181B53EC112BFEF781FA32
:102020009FED170B41EC190B53EC102B51EC180BD7
:10203000FEF777FA53EC192BFEF7CCF99FED120B54
:1020400041EC190B53EC102B51EC180BFEF769FA0D
:1020500053EC192BFEF7BEF9BDEC048B02B041EC3A
:10206000100B70BD000000000000F07F00000000B9
:1020700000000000000050430EE526157BCBDB3F3F
:10208000362BF111F3FE593D00609F501344D33FAE
:102090002DE9F04D2DED040B2DED0E8B96B0DDE905
:1020A0002550279CDDF890A025F0004624F000483C
:1020B000BAF1000F14BF0121002101EB4502FC49D8
:1020C00053184A1093422AD3002814BF0123002337
:1020D00003EB44030B44F7498B4220D358EA000139
:1020E0009FEDF59B76D0DFF8D8B35D4503D1BAF10B
:1020F000000F05D188E0BAF1000F08BF002100D021
:10210000012101EB450111F5001F08D8002814BF7B
:102110000121002101EB440111F5001F0BD99DEDB8
:10212000261B9DED240B16B0BDEC0E8B04B0BDE854
:10213000F04D01F043BA0027002DBCBFE1498845AE
:1021400021DAE1498845A8BF02271CDAC3451ADC19
:10215000DE4901EB2851142908DDC1F1340220FACF
:1021600002F101FA02F282420DD108E058B9C1F140
:10217000140228FA02F101FA02F2424503D101F0F9
:102180000101C1F1020756EA0A0124D1002C22DA2A
:10219000002D18BF022F01D0012F0AD0022001F01C
:1021A00057FA16B0BDEC0E8B04B0BDE8F04D01F04F
:1021B000E3B9022001F04CFA01F0DEF951EC100B0A
:1021C00081F0004141EC100B16B0BDEC0E8B04B059
:1021D000BDE8F08D18E09FEDBEAB9FEDBF8B0028F2
:1021E00071D1B848804522D105F1804010F58010AA
:1021F00008BFBAF1000F07D0B3450ADC002CA8BF16
:102200009DED260BE0DA0DE0B0EE490AF0EE690A2A
:10221000DAE7002C06DA9DED260B51EC100B81F06D
:1022200000416FE0AE48784490ED000BCCE7D84514
:102230004DD1002C48DA2EB186423AD1BAF1000FC6
:1022400042D126E0BAF1000F13D0022001F000FACB
:1022500001F0CEF98DED020B9DED240B8DED000B01
:1022600010EE900A039961F31E0003909DED020B9E
:10227000AAE78DED02AB9DED240B1AEE901A10EE3D
:10228000900A8DED000B61F31E0003909DED020B93
:102290009AE78DED028B9DED240B18EE901A10EE4F
:1022A000900A8DED000B61F31E0003909DED020B73
:1022B0008AE709DA9DED240B51EC190B53EC102B36
:1022C000FEF7A1F91EE020E09DED240B7CE786429D
:1022D0001BDAB4F1804F0DD0A4F10050B0F1FF50E3
:1022E00013D1002D11DB9DED240B51EC100B0CF0E4
:1022F0002BFC07E09DED240B53EC102B51EC100B45
:1023000000F0C2BC41EC100B5EE79DED240B51ECDC
:10231000100B03F0E3F8BAF1000FCDE90E0142D142
:102320009FED710B46B3A6F1E040B0F17F600CD099
:102330005E4538D1002D00DAA7B3022F0CBF012073
:102340004FF0FF30FEF7CEF9DCE7002D01DD002C69
:102350000DDA002D01DD002C1FDB002D16DA002C1C
:1023600014DB012F08BF9FED620B3FF42DAFB0EEE1
:102370004A0AF0EE6A0A27E7022F18BF002D0CD098
:10238000012F0AD1002DFFF61FAF06E0002DB8BFC8
:10239000002C08DA012F3FF417AFB0EE480AF0EE38
:1023A000680A11E71BE0012000EBE57050EA070125
:1023B00015D0791EB0EE498AF0EE698A084308BF4D
:1023C0009FED4D8B4E480025804570DD4D494E48B0
:1023D000884514DDB0420DDB002C19DB2FE0012015
:1023E00001F036F916B0BDEC0E8B04B0BDE8F04D2F
:1023F00001F0EEB8B34502DC002C09DC1FE0864298
:1024000002DA002C1BDA03E05E452BDD002C16DD22
:10241000022001F01DF901F0EBF88DED020B53ECF9
:102420001A2B51EC180BFEF77CF8CDE9000103994B
:10243000019861F31E0003909DED020BC4E602209B
:1024400001F006F901F0E4F810EE901A18EE900A87
:102450008DED020B8DED008B61F31E0003909DED61
:10246000020BB1E69DED0E0B53EC192B51EC100B4A
:10247000FEF751F89FED260BCDE9080153EC102B28
:102480009DED080B51EC100BFEF74BF89FED221B56
:1024900053EC112BFEF742F89DED081B53EC112B6A
:1024A000FEF73FF89FED1E1B53EC112B3CE08CE038
:1024B000FFFF1F00FFFF0F00000000000000F03FC3
:1024C0000000F03F0000F07F0000404301FCFFFFF0
:1024D000000000000000F07F00000000000000008D
:1024E000FE36010000000000000000000000008037
:1024F000000000000000F0FF000000000000F0BF3E
:102500000000E0410000F043FFFFEF3F000000004B
:10251000000000000000D03F555555555555D53F9A
:10252000000000000000E03FFDF7F8FF9DED080B04
:1025300041EC1A0B53EC102B51EC100BFDF7F1FF93
:1025400053EC1A2BFDF7EDFF41EC1A0B9FEDFE0B40
:1025500053EC102B9DED080B51EC100BFDF7E1FF38
:1025600041EC1B0B9FEDFA0B51EC1A0B53EC102BAB
:10257000FDF7D7FF41EC1A0B9FEDF70B53EC102B37
:102580009DED080B51EC100BFDF7CBFF53EC1A2B14
:10259000FDF7C1FF41EC1A0B51EC1B0B53EC1A2B4E
:1025A000FDF718FF0690CDE906519DED060B53ECA3
:1025B0001B2B51EC100BFDF7AEFF53EC1A2BFDF764
:1025C000ADFF41EC100B00F0A1B90020B6F5801F63
:1025D0000EDA9FEDE30B53EC102B9DED0E0B51EC3F
:1025E000100BFDF79EFFCDE90E016FF034000E4693
:1025F00000EB2650A0F2FF37C6F31300DA4940F093
:102600007F6646F040568842D8BF002408DDD7498F
:102610008142C8BF012403DC0024A6F580167F1C7C
:10262000D348784400EBC4000F9690ED00CB9DEDAD
:102630000E0B53EC1C2B51EC100BFDF76CFF9DEDBA
:102640000E0B41EC1B0B53EC1C2B51EC100BFDF74C
:10265000C1FE41EC100B51EC190B53EC102BFDF7A4
:10266000D2FF41EC1D0B51EC1B0B53EC1D2BFDF766
:1026700058FF41EC1A0BBF488DED10AB7844109514
:1026800090ED000B4FF0005040EA660000EB8440F4
:102690008DED080B00F5002009909DED080B53EC23
:1026A0001C2B51EC100BFDF736FF9DED0E1B53EC70
:1026B000112BFDF733FF41EC100B53EC102B9DED6C
:1026C000100B51EC100BFDF72CFF9DED080B41ECAE
:1026D0001C0B53EC102B9DED100B51EC100BFDF768
:1026E00020FF53EC1B2BFDF719FF53EC1C2BFDF7C0
:1026F00012FF53EC1D2BFDF714FF41EC1C0B53ECA8
:102700001A2B51EC1A0BFDF70CFF41EC1B0B9A48EE
:102710000621B0EE4B0AF0EE6B0A784400F018FE8A
:10272000B0EE401AF0EE601AB0EE41DAF0EE61DA87
:1027300053EC1B2B51EC1B0BFDF7F3FE53EC1D2B45
:10274000FDF7EFFE9DED100B41EC1B0B53EC1A2B2C
:1027500051EC100BFDF73EFE53EC1C2BFDF7E1FE98
:1027600053EC1B2BFDF736FE9DED100B41EC1B0BC4
:1027700053EC102B51EC100BFDF7D3FE41EC1D0B6D
:102780009FED7FEB53EC1E2BFDF724FE53EC1B2B30
:10279000FDF720FE0890CDE908519DED080B53ECA4
:1027A0001E2B51EC100BFDF7B6FE53EC1D2BFDF765
:1027B000B2FE53EC1B2BFDF7B1FE9DED080B41EC77
:1027C0001D0B53EC102B9DED100B51EC100BFDF776
:1027D000A8FE41EC1B0B53EC1A2B51EC1D0BFDF723
:1027E000A0FE9DED080B41EC1A0B53EC102B51ECA5
:1027F0001C0BFDF796FE53EC1A2BFDF7EBFD41EC9D
:102800001A0B51EC1B0B53EC1A2BFDF7E3FD0C904C
:10281000CDE90C519DED0C0B53EC1B2B51EC100B27
:10282000FDF779FE53EC1A2BFDF778FE41EC1B0BFC
:102830009FED550B53EC102B9DED0C0B51EC100B39
:10284000FDF76FFE41EC1A0B9FED510B51EC1B0B8A
:1028500053EC102BFDF765FE41EC1B0B9FED4E0B6F
:1028600053EC102B9DED0C0B51EC100BFDF759FEAA
:1028700053EC1B2BFDF7AEFD41EC100B48487844A0
:1028800000EBC40090ED001B51EC100B53EC112B2E
:10289000FDF7A0FD41EC1B0B3846FDF723FFCDE90A
:1028A000080153EC1B2B51EC1A0BFDF793FD41EC87
:1028B000100B3C48784400EBC40090ED00CB51EC89
:1028C000100B53EC1C2BFDF785FD9DED081B53EC05
:1028D000112BFDF77FFD0690CDE906519DED080B0C
:1028E00053EC102B9DED060B51EC100BFDF713FE76
:1028F00053EC1C2BFDF70FFE53EC1A2BFDF70BFED0
:1029000053EC1B2BFDF70AFE41EC100B9DED261B33
:1029100053EC102B8DED001B00959DED260B51EC1B
:10292000100BFDF7FEFD9DED000B41EC1A0B53EC77
:10293000102B9DED260B51EC100BFDF7ECFD9DEDE2
:10294000061B53EC112B2FE0000000604715F73FEA
:10295000FE822B654715F73F44DF5DF80BAE543E12
:1029600000000000000040438E9803007AB60B0080
:102970004A320100A832010082310100000000004B
:102980000000000000000840000000E009C7EE3F22
:10299000FD033ADC09C7EE3FF5015B14E02F3EBEB4
:1029A0000E300100C82F0100FDF7BBFD53EC1A2BC0
:1029B000FDF710FD9DED060B41EC1A0B53EC102BAF
:1029C0009DED000B51EC100BFDF7ABFDCDE90C01BB
:1029D0009DED0C0B51EC1A0B53EC102BFDF7FAFC90
:1029E000CDE902010C46AA498C422FDB611A08434B
:1029F00018D19DED0C0B53EC102B9DED020B51ECFF
:102A0000100BFDF788FD41EC1B0B9FEDA30B51EC68
:102A10001A0B53EC102BFDF7DDFC53EC1B2BFDF7D1
:102A2000BDFE2DD2022000F013FE00F0E1FD10EEFD
:102A3000901A18EE900A8DED020B8DED008B61F36C
:102A40001E0003909DED020BFFF7BEBB944A24F0DD
:102A50000041914214D39349214408437FF4EFACE1
:102A60009DED0C0B53EC102B9DED020B51EC100B5C
:102A7000FDF751FD53EC1A2BFDF790FE7FF6DFAC0E
:102A800024F000408849894A002601EB2051824207
:102A90002BDA481C4FF4801121FA00F02044844ABC
:102AA000C0F30A517A44A1F2FF3192ED000B814A42
:102AB0008DED080BCA4020EA0202C0F3130040F477
:102AC0008010C1F1140120FA01F60992002CB8BF60
:102AD00076429DED080B53EC102B9DED0C0B51EC49
:102AE000100BFDF718FDCDE90C019DED0C0B51EC21
:102AF0001A0B53EC102BFDF76DFC9FED6F0B08903C
:102B0000CDE9085153EC102B9DED080B51EC100B47
:102B1000FDF707FD41EC1B0B9FED690B53EC102BF0
:102B20009DED080B51EC100BFDF7FBFC9DED0C0B24
:102B300041EC1C0B53EC102B9DED080B51EC100BD2
:102B4000FDF7E9FC53EC1A2BFDF7E8FC9FED5E1B4B
:102B500053EC112BFDF7E5FC53EC1C2BFDF73AFC75
:102B600041EC1A0B51EC1B0B53EC1A2BFDF732FC0A
:102B7000CDE902019DED020B53EC1B2B51EC100B28
:102B8000FDF7C9FC53EC1A2BFDF7C8FC9DED020BB9
:102B900041EC1A0B53EC102B51EC100BFDF7C1FC60
:102BA000CDE908014A489DED080B0521784400F065
:102BB000CFFB9DED081B51EC100B53EC112BFDF7D7
:102BC000B0FC9DED021B53EC112BFDF7A7FCCDE9EA
:102BD00006019DED020B53EC1A2B51EC100BFDF787
:102BE000A0FC53EC1A2BFDF7F5FB9FED3B0B41ECE2
:102BF0001A0B53EC102B9DED060B51EC100BFDF74F
:102C00008AFC9DED060B41EC1B0B53EC102B9DED4C
:102C1000020B51EC100BFDF784FC53EC1B2BFDF762
:102C2000F2FC53EC1A2BFDF776FC9DED021B53ECE6
:102C3000112BFDF770FC53EC192BFDF76FFCCDE960
:102C4000020101EB065001150029C8BF039015DCF5
:102C50009DED020B324651EC100BFDF7F8FEFEF72E
:102C60008FFE042808BF00F0D3FC32469DED020B16
:102C700051EC100BFDF7EBFECDE902019DED020BCF
:102C800051EC180B53EC102BFDF74BFCFFF73ABB44
:102C90000000904000000000FE822B654715973C25
:102CA00000CC904000346F3F01FCFFFF0000E03F8C
:102CB000802E0100FFFF0F0000000000432EE63FC2
:102CC000396CA80C615C20BEEF39FAFE422EE63F5B
:102CD000202D010000000000000000000000004066
:102CE00010B52F499FED2C1B2DED020B84B00598DC
:102CF00020F000408842DCBF00209DED040B32DD57
:102D00002849884209D1049840B94FF0010000F0E9
:102D10009FFC00F05DFC06B010BD05DB9DED040BD3
:102D200000F042FC06B010BD68469DED040B00F0BB
:102D30003BF810F0030011D0012818D09DED021BC4
:102D40009DED000B02281AD000F04AFA51EC100B4E
:102D500081F0004106B041EC100B10BD9DED021B4F
:102D60009DED000B012000F06FFB06B010BD9DED46
:102D7000021B9DED000B00F033FA06B010BD0120E0
:102D800000F062FB51EC100B81F0004106B041EC09
:102D9000100B10BD0000000000000000000000004B
:102DA000FB21E93F0000F07F2DE9F14F04462DEDB6
:102DB000020B2DED088B8AB09FEDE70B80ED020B27
:102DC000139EE74826F0004585420ADC9DED120B74
:102DD000002084ED000B0AB0BDEC088B03B0BDE809
:102DE000F08FE0489FEDE0AB9FEDE1BBA84247DDEF
:102DF000E14F9FEDE39B9FEDE48B9DED120B53ECB8
:102E00001A2B51EC100B002E1CDDFDF784FB41EC5E
:102E1000100BBD4208D053EC1B2B51EC100BFDF7EF
:102E20007AFBC4E900010BE053EC192B51EC100BB9
:102E3000FDF771FB53EC182BFDF76DFBC4E90001A6
:102E40000120C8E7FDF7C6FA41EC100BBD4208D0DF
:102E500053EC1B2B51EC100BFDF7BCFAC4E900013D
:102E60000BE053EC192B51EC100BFDF7B3FA53ECBC
:102E7000182BFDF7AFFAC4E900014FF0FF30AAE7C5
:102E8000C348A84279DB9DED120B51EC100B02F008
:102E900025FB41EC180B9FEDC00B53EC102BFDF7FD
:102EA00040FB9FEDBF1B53EC112BFDF793FAFDF791
:102EB0002AFC0746FDF716FC41EC190B53EC1A2BC4
:102EC000FDF72FFB53EC182BFDF728FB41EC180BFB
:102ED00053EC1B2B51EC190BFDF723FBDFF8C8A2B9
:102EE00041EC100B4FEA15580125FA4453EC102B16
:102EF00051EC180BFDF70FFB032DC4E900013DD089
:102F0000C1F30A5005EB4511A8EB000011398142CD
:102F100034DA0AEB051BB0EE48AA9BED000BF0EE8D
:102F200068AA53EC102B51EC190BFDF7FAFA41EC9F
:102F30001B0B51EC1A0B53EC1B2BFDF7ECFA41EC7D
:102F4000180B51EC1A0B53EC182BFDF7E4FA53EC69
:102F50001B2BFDF7E0FA9BED020B41EC1A0B53EC37
:102F6000102B51EC190BFDF7DCFA53EC1A2BFDF783
:102F7000D2FA41EC100B6D1CB8E70EE0002EA8BF92
:102F80003846BFF628AF94ED000B51EC100B81F0E2
:102F90000041C4E9000178421DE7C6F3130040F484
:102FA000801EC6F30A50A0F2F530471100F01F054D
:102FB000C5F12000DDF848B0089000200690079089
:102FC0000520EC467949002D07EB0002794408BF43
:102FD00051F8221009D051F8223001EB8201AB40A8
:102FE0004A68089922FA01F11943A1FB0E26A1FBB8
:102FF0000B131A449A4234BF0123002303EB060843
:103000000CEB8003D3E901A60E448E4234BF0121AC
:10301000002192448A4411B1924502D903E09245BD
:1030200001D2012100E00021C3E901A641444CF88E
:103030002010011EA0F10100C4DC029800F1005034
:10304000850F0298DDE903678000DDF81480FDF745
:1030500049FB41EC1A0B3046FDF7DFFD9FED541B99
:1030600053EC112BFDF75DFA41EC1B0B3846FDF7D5
:10307000D4FD9FED511B53EC112BFDF752FA41EC9F
:10308000180B4046FDF7C9FD9FED4D1B53EC112B6E
:10309000FDF747FA41EC190B51EC180B53EC192BC7
:1030A000FDF798F953EC1B2BFDF794F953EC1A2B11
:1030B000FDF790F9CDE90801002008909DED080B7F
:1030C00053EC1A2B51EC100BFDF725FA53EC1B2B8C
:1030D000FDF721FA53EC182BFDF71DFA53EC192BD1
:1030E000FDF71CFA9FED381B53EC112BFDF719FA75
:1030F0009FED370B41EC180B53EC102B9DED080B9B
:1031000051EC100BFDF70DFA53EC182BFDF762F99B
:103110009FED310B41EC180B53EC102B9DED080B80
:1031200051EC100BFDF7FDF953EC182BFDF752F99C
:1031300041EC100B139810F0004F06D06D4251EC8B
:10314000100B81F0004141EC100B284684ED000B80
:1031500041E6000000000000000000000000000048
:10316000FB21E93F7CD9024000004054FB21F93F9C
:103170003163621A61B4D03DFB21F93F00000000C9
:103180000000601A61B4D03D7370032E8A19A33B0E
:10319000FB2139410000000083C8C96D305FE43F66
:1031A000000000000000E03F422A010090290100D9
:1031B000000000000000103E000000000000103C75
:1031C000000000000000103A182D4454FB21F93D86
:1031D0003326A611460B113C00000054FB21F93D9B
:1031E00010B52DED040B2DED088B82B0B0EE419A99
:1031F000F0EE619A0B9820F000449FED4BABB4F1D8
:10320000795F11DA9DED0A0B51EC100BFDF77BFA9B
:10321000002801BFB0EE4A0AF0EE6A0A02B0BDEC27
:10322000088B04BF04B010BD9DED0A0B53EC102BAE
:1032300051EC100BFDF775F941EC180B3C480621D9
:10324000B0EE480AF0EE680A784400F081F853ECDA
:10325000182B51EC100BFDF764F99DED0A0B41ECB6
:103260001B0B53EC192B51EC100BFDF75AF941ECE9
:10327000190B53EC1B2B51EC180BFDF752F953ECC7
:10328000192BFDF748F99FED2C0B41EC190B53EC72
:10329000102B51EC180BFDF744F941EC100B2848AA
:1032A000844210DA53EC192B51EC100BFDF733F973
:1032B00053EC1A2BFDF732F941EC100B02B0BDECC8
:1032C000088B04B010BD1F48A042BCBF9FED1E1B61
:1032D0008DED001B06DBA4F500100190002000908E
:1032E0009DED001B51EC100B53EC112BFDF713F966
:1032F0009DED000B41EC180B53EC102B51EC1A0B0D
:10330000FDF709F941EC1A0B53EC192B51EC180B92
:10331000FDF701F953EC1A2BFDF700F941EC100B06
:10332000CCE7000000000000000000000000F03FBB
:10333000AC26010000000000000000000000E03F9B
:103340003333D33F0000E93F000000000000D23FCC
:1033500070B504462DED028B4D1E00EBC500B0EE9E
:10336000408AF0EE608A90ED000B35F0060017D031
:1033700053EC182B51EC100BFDF7D3F841EC100B6C
:103380006D1E04EBC50090ED001B51EC100B53ECCF
:10339000112BFDF71FF841EC100B35F00600E7D1BB
:1033A000022D36D0042D1CD0062D1CBFBDEC028B87
:1033B00070BD53EC182B51EC100BFDF7B2F894EDE7
:1033C0000A1B53EC112BFDF705F853EC182BFDF7F6
:1033D000A8F894ED081B53EC112BFCF7FBFF41EC14
:1033E000100B53EC182B51EC100BFDF79AF894EDE1
:1033F000061B53EC112BFCF7EDFF53EC182BFDF7DC
:1034000090F894ED040B53EC102BFCF7E3FF41EC28
:10341000100B53EC182B51EC100BFDF782F894EDC8
:10342000021B53EC112BFCF7D5FF53EC182BFDF7C7
:1034300078F894ED001B53EC112BFCF7CBFFBDEC9F
:10344000028B41EC100B70BD31B504462DED040B21
:103450002DED0A8BB0EE41BAF0EE61BA0B989DEDFE
:103460000A0B20F00040B0F1795F0DDA51EC100B3F
:10347000FEF786FA042808BF00F0CAF89DED0A0B93
:10348000BDEC0A8B05B030BD53EC102B51EC100B8A
:10349000FDF747F841EC180B9DED0A0B53EC182B88
:1034A00051EC100BFDF73DF841EC190B2C48B0EE38
:1034B000480AF0EE680A05217844FFF749FF9FEDBE
:1034C0002ACBB0EE40AAF0EE60AA9CB353EC1C2BC2
:1034D00051EC190BFDF725F841EC1C0B53EC1A2BA2
:1034E00051EC190BFDF71DF89FED210B41EC190B69
:1034F00053EC102B51EC1B0BFDF713F853EC192B6D
:10350000FDF709F853EC182BFDF70BF853EC1B2BC8
:10351000FDF701F853EC1C2BFCF7FDFF9DED0A1B9A
:1035200053EC112BFCF7FAFFBDEC0A8B05B041EC14
:10353000100B30BDFFE753EC1A2B51EC180BFCF7C6
:10354000F0FF53EC1C2BFCF745FF53EC192BFCF759
:10355000E8FF9DED0A1B53EC112BFCF73BFFE3E763
:103560003C25010000000000495555555555C5BF83
:10357000000000000000E03F9FED070B10B553EC8A
:10358000102B9FED070B51EC100BFDF73CF841ECB5
:10359000100B10BD00000000000000000000000043
:1035A000000000000000F03F10B553EC102B51EC70
:1035B000100BFCF70FFF41EC100B10BD10B553ECD6
:1035C000112B51EC100BFCF705FF41EC100B10BD5B
:1035D0009FED050B10B553EC102B51EC100BFDF7C4
:1035E00012F841EC100B10BD0000000000000000BC
:1035F0009FED050B10B553EC102B51EC100BFCF7A5
:1036000090FF41EC100B10BD0000000000000070A6
:103610009FED050B10B553EC102B51EC100BFCF784
:1036200080FF41EC100B10BD0000000000000010F6
:1036300002E008C8121F08C1002AFAD1704770477B
:10364000002001E001C1121F002AFBD170470000D9
:103650000149086070470000E80000202DE9FF5F85
:1036600082B00021DDE90430020DDDF840B00343F3
:1036700018D044F61050A2F2FF32424315141198AC
:1036800001281FD0A5EB0B00401C5FEA000A4FF099
:1036900000064E4FDFF83891B046504615D5CAF1B6
:1036A000000413E0119801244AA3012801D16FEA14
:1036B0000B010298119AC0E90031C0E9024206B03C
:1036C000BDE8F09FCBF10000DFE704460021404A4F
:1036D000491842EB0450CDE9001012E0E00707D092
:1036E00032463B4640464946FCF71BFF804689462A
:1036F00032463B4610461946FCF713FF06460F4676
:103700006410002CEAD1DDE90401DDE90023BAF1FF
:10371000000F06DAFCF705FF42464B46FCF701FFB7
:1037200005E0FCF770FF42464B46FCF76CFF044691
:103730000E460022284BFDF731F803D84FF0FF303A
:10374000014607E00022254B20463146FCF742FEA9
:10375000FDF7E5F9102409E0002C0ADB0A2200231A
:10376000FDF766F8039B30321A55641E50EA0102D9
:10377000F2D1641C039AC4F111031444119A012A72
:1037800003D0012208430DD10AE0084304D00020F1
:103790004FF0110B119072E7A3EB0B056D1E0DE0BE
:1037A0005B4504DD4FF0000205F1010504E003DA9A
:1037B0004FF00002A5F10105002AECD00298119902
:1037C000C0E90231C0E9004579E70000000014407B
:1037D0000000F03F300000000000F0430000E03F38
:1037E0002DE9FF4F95B09A46884606460025EEE142
:1037F000252877D100242746F94A0121039400E0C7
:10380000044316F8013F203B01FA03F01042F7D1C0
:1038100030782A2811D06FF02F033078A0F13002D1
:10382000092A16D8039A44F0020402EB820203EB41
:1038300042021044761C0390EFE758F8042B0392E1
:10384000002A03DA504244F40054039044F0020486
:10385000761C30782E2816D116F8010F44F0040497
:103860002A280DD06FF02F023078A0F13003092BF9
:1038700009D807EB870302EB4303C718761CF3E76D
:1038800058F8047B761C30786C280FD006DC4C2866
:1038900017D068280DD06A2814D104E0742810D0FD
:1038A0007A280FD10DE044F400140AE044F48014A7
:1038B00001E044F440147278824202D104F580148D
:1038C000761C761C307866280BD013DC582877D00D
:1038D00009DC002875D04528F6D04628F4D04728C2
:1038E0001AD193E118E0632835D0642879D065288F
:1038F00012D18BE1702873D008DC6728F1D06928D9
:103900006FD06E280DD06F2806D1ACE073282CD074
:10391000752874D0782853D05246179990476D1C5B
:1039200054E1C4F30250022809D003280DD0D8F87E
:10393000001004280DD00D6008F1040846E1D8F805
:103940000010EA17C1E90052F6E7D8F800100D8020
:10395000F2E70D70F0E718F8041B8DF80010002056
:103960008DF80100EB46012003E058F804BB4FF04E
:10397000FF3061074FF0000102D40DE009F10101B1
:103980008946B9420FDA8145F8DB1BF80910002996
:10399000F4D108E009F1010189468142FADB1BF804
:1039A00009100029F6D103985346A0EB09072146D8
:1039B0003846179A00F080FA284400EB090507E022
:1039C00044E008E10DE01BF8010B524617999047BF
:1039D000B9F10109F7D2534621463846179AF2E069
:1039E00039E00A21C4F302524FF0000B0091022A81
:1039F00006D058F8040BC117032A09D00AE023E0C7
:103A000008F1070020F00702F2E80201904605E005
:103A100000B2C117042A01D140B2C117002906DA49
:103A20000A460021404261EB02012D2202E02205FC
:103A300004D52B228DF80420012203E0E20701D0F7
:103A40002022F7E7914657E00A2100E010214FF0CD
:103A5000000B00910BE010214FF0000B44F0040428
:103A60000827009103E008204FF0000B0090C4F3FA
:103A70000252022A05D058F8040B0021032A08D06C
:103A800008E008F1070020F00702F2E80201904682
:103A900003E080B2042A00D1C0B24FF0000922072F
:103AA0002AD53278702A07D0DDF800C08CF0100CCF
:103AB0005CEA0B0C05D00EE040228DF804200122B8
:103AC00008E050EA010306D030238DF804308DF869
:103AD000052002229146009B83F0080353EA0B0362
:103AE0000AD150EA010201D1620705D530228DF8D2
:103AF00004204FF001097F1E3278582A04D039A2E1
:103B00000C920CAA02920BE03BA2F9E75B46009AEA
:103B1000FCF78EFE0C9B9B5C029A521E0292137065
:103B200050EA0102F2D1029804A9081A00F1200B10
:103B3000600702D524F4803400E001275F4502DDF0
:103B4000A7EB0B0000E0002000EB0B0100900398B6
:103B50004944401A0390E00306D453462146179A7D
:103B6000039800F0A9F90544002706E001A8524691
:103B7000C05D179990476D1C7F1C4F45F6DBE00335
:103B80000CD553462146179A039800F095F9054441
:103B900004E030205246179990476D1C0099481E4A
:103BA00000900029F5DC08E002980299524600785E
:103BB000491C0291179990476D1CBBF10001ABF1B4
:103BC000010BF1DC5BE100F065F90544761C30780F
:103BD00000287FF40DAE19B02846BDE8F08F000034
:103BE00009280100303132333435363738396162D3
:103BF0006364656600000000303132333435363797
:103C0000383941424344454600000000600700D473
:103C1000062708F1070020F00700F0E8022380469D
:103C200003F0004C5FEA0C0001D097A009E02005EA
:103C300001D596A005E0E00701D095A001E0AFF224
:103C40004C001390307823F0004365280CD006DC3C
:103C5000452809D046281DD047287FD13BE066285B
:103C600018D067287AD136E00021112F01DB11200E
:103C700000E0781CCDE9000104A90CA8FFF7EEFCD8
:103C8000DDE90D010C9A4FF0000B07F101091092CC
:103C900000914EE04FF000400097CDE9011004A9DB
:103CA0000CA8FFF7DBFCDDE90D020C9B0F994FF030
:103CB000000B91461093009211B9791C00EB010999
:103CC000B7EB090003D4C0F1FF3B07F10109A9EBF1
:103CD0000700019042E0012F00DA01270021112F97
:103CE00001DD112000E03846CDE9000104A90CA84F
:103CF000FFF7B4FCDDE90D010C9A00914FF0000BC9
:103D0000B946109221070FD4009A4A4503DA91462A
:103D100001E0A9F10109B9F1010F05DD109AA9F13E
:103D20000101515C3029F4D0B84202DA10F1040FDD
:103D300003DA0121CDE9011010E0002803DC8344FF
:103D4000A9EB000102E0411C494500DD8946A0EBDA
:103D50000B00401C01904FF000400290200705D45A
:103D60000198484502DB4FF0FF30019000208DF8AC
:103D70004B0002980DF14B07B0F1004F25D0022007
:103D80000C902B200D90029800280CDA40420290F3
:103D90002D200D9007E00A210298FCF733FD303109
:103DA000029007F8011D0C99481E0C900029F2DCC6
:103DB00002980028EFD1791E0D980870307800F035
:103DC000200040F0450007F8020D11A8C01BC01DDF
:103DD00002901398007800B1012000EB09010198CE
:103DE00001EBE071029801440398401A401E0390D1
:103DF000E00306D453462146179A039800F05CF876
:103E000005441398007818B15246179990476D1CD5
:103E1000E00323D553462146179A039800F04CF847
:103E200005441BE0BBF1000F07DB0098584504DD9B
:103E30001098179910F80B0001E01799302052469E
:103E4000904701980BF1010B401E05F1010501900F
:103E500004D12E205246179990476D1CB9F10001EC
:103E6000A9F10109DEDC05E017F8010B52461799AC
:103E700090476D1C0299481E02900029F4DC5346BD
:103E80002146179A03989EE62D0000002B000000A3
:103E9000200000002DE9F041044600251E4617468B
:103EA000880404D405E039462020B0476D1C641E08
:103EB000F9D52846BDE8F0812DE9F04104460025FA
:103EC0001E469046C80301D5302700E0202788040D
:103ED00004D505E041463846B0476D1C641EF9D54F
:103EE0002846BDE8F08100002DE9F04103200AF0EA
:103EF00009F92F200AF006F91D200AF003F90F4EE8
:103F000064254FF47A47741C3846A0476D1EFAD1D9
:103F100001211D200AF04EF9012103200AF04AF97F
:103F200001212F200AF046F904F0EAFD0AF014FD01
:103F30000AF044FDBDE8F0410AF032BD105801001E
:103F400072B609480068C00700D000BEBFF34F8FAB
:103F50000548E4380168054A01F4E0611143016055
:103F6000BFF34F8F00BFFDE7F0ED00E00400FA055E
:103F70000EB500210091CDE901106A4644F201001E
:103F8000FFF7DEFF0EBD00F003B800F009B8000037
:103F900072B602480168491C016070476400002045
:103FA00003490868401E086000D162B670470000EF
:103FB000640000202DE9F05F82462DED048B9946C8
:103FC0008B4616469FED338B1046FCF78BFB41EC7E
:103FD000100B51EC180B53EC102BFCF714FB0024C6
:103FE00041EC180B770025462CE02046FCF77AFBC5
:103FF00053EC182BFCF795FA41EC190BB0EE490A7B
:10400000F0EE690AFDF764FD0BEB051888ED000B77
:10401000B0EE490AF0EE690AFEF762FE88ED020B87
:1040200098ED000B0AEB051104EB450481ED000B44
:1040300098ED020B641C81ED020B00E0E41BBC4216
:10404000FCDC6D1CB542D0DBA9EB06009FED130B29
:10405000411C06E00AEB0612761C82ED000B82ED95
:10406000020BB142F6DC401C48450EDAA9EB000217
:104070000BEB02110AEB001291ED000B82ED000B2D
:1040800091ED020B82ED020BEDE7BDEC048BBDE878
:10409000F09F0000182D4454FB210940000000004F
:1040A000000000002DE9FF4F16462DED0A8B87B06A
:1040B00000201E9D9FEDFE9BC2F80C01B0EE490A48
:1040C000F0EE690AFDF74CFFB0EE408AF0EE608A30
:1040D0002846FCF707FB41EC100BFDF741FF53ECC2
:1040E000182B51EC100BFCF78EFA41EC100BFDF77E
:1040F00063FCB0EE401AF0EE601AB0EE490AF0EE42
:10410000690AFDF7C5FF51EC100BFCF7FCFA012121
:10411000059171680491316803916FF0010101EB21
:104120004501814201DD440000E004462701384694
:10413000346004F023FD0090384604F01FFD029027
:10414000384604F01BFD8346384604F017FD019005
:10415000280104F013FD8246014623462A465846AC
:10416000FFF728FF2046FCF7BDFA41EC100B53EC9B
:10417000102B9FEDD10B51EC100BFCF744FA41ECE6
:10418000180B002717E000BF0BEB071853EC182B98
:1041900098ED020B51EC100BFCF7C3F9C8E90201D2
:1041A00098ED000B53EC182B51EC100BFCF7B9F900
:1041B0007F1CC8E90001A742E6DB59463046029A57
:1041C00001F080FB14984FF00007012842D087E0EF
:1041D00011980AEB071900EB071899ED020B98EDFF
:1041E000021B53EC102B51EC110BFCF79AF999EDD3
:1041F000001B98ED000B41EC180B53EC112B51EC0C
:10420000100BFCF78EF953EC182BFCF7E3F80BEBD3
:1042100007120692C2E9000199ED021B98ED000B0E
:1042200053EC112B51EC100BFCF77BF999ED000BC3
:1042300098ED021B41EC180B53EC102B51EC110BB9
:10424000FCF76FF953EC182BFCF765F9069A7F1C05
:10425000C2E90201AF42BBDB44E000BF11980AEBA8
:10426000071900EB071899ED020B98ED021B53ECB0
:10427000102B51EC110BFCF754F999ED000B98ED54
:10428000001B41EC180B53EC102B51EC110BFCF7FD
:1042900048F953EC182BFCF73EF90BEB071206928A
:1042A000C2E9000199ED001B98ED020B53EC112BB4
:1042B00051EC100BFCF735F999ED021B98ED000B52
:1042C00041EC180B53EC112B51EC100BFCF729F9B6
:1042D00053EC182BFCF77EF8069A7F1CC2E902010A
:1042E000AF42BBDB28469FED760B06E00BEB0011DF
:1042F000401C81ED000B81ED020BA042F6DB59461C
:104300003046009A01F0DEFA149801284FF00000C0
:104310003ED07FE0029800EB0917009897ED02ABC2
:1043200000EB0912069292ED029B53EC1A2B51EC12
:10433000190BFCF7F6F8069A97ED00BB41EC1C0B45
:1043400092ED008B53EC1B2B51EC180BFCF7E9F8AA
:1043500053EC1C2BFCF7DFF80746884653EC1B2B6D
:1043600051EC190BFCF7DDF841EC190B53EC1A2B4F
:1043700051EC180BFCF7D5F853EC192BFCF72AF885
:10438000069AC2E90201069A09F10100C2E9007821
:104390008146A042BEDB40E0029800EB091700987E
:1043A00097ED02BB00EB0912069292ED02AB53ECC3
:1043B0001B2B51EC1A0BFCF7B4F8069A97ED009BF7
:1043C00041EC1C0B92ED008B53EC192B51EC180BAC
:1043D000FCF7A7F853EC1C2BFBF7FCFF07468846BD
:1043E00053EC1B2B51EC180BFCF79BF841EC180B12
:1043F00053EC192B51EC1A0BFCF793F853EC182BD8
:10440000FCF789F8069AC2E90201069A09F101004F
:10441000C2E900788146A042BEDB00270DE000BF64
:1044200006EB071898ED460B51EC100B81F000419C
:10443000C8F81C117F1CC8F81801A742F0DB1498BB
:1044400040427060DDE90012304601F03BFA1498FA
:104450004FF00007012851D097E000BF01980AEB08
:10446000071900EB071899ED021B98ED020B53ECAE
:10447000112B51EC100BFCF754F899ED000B98ED53
:10448000001B41EC180B53EC102B51EC110BFCF7FB
:1044900048F853EC182BFBF79DFF129A02EB07121A
:1044A0000692C2E9000199ED020B98ED001B0BE0AA
:1044B0000000000000000040000000000000F03F8D
:1044C000000000000000000053EC102B51EC110B19
:1044D000FCF727F899ED001B98ED020B41EC180B47
:1044E00053EC112B51EC100BFCF71BF853EC182B71
:1044F000FCF711F8069A7F1CC2E90201AF42ADDB5E
:1045000045E000BF01980AEB071900EB071899ED89
:10451000021B98ED020B53EC112B51EC100BFCF726
:1045200000F899ED000B98ED001B41EC180B53ECD3
:10453000102B51EC110BFBF7F4FF53EC182BFBF78E
:10454000EAFF129A02EB07120692C2E9000199ED06
:10455000001B98ED020B53EC112B51EC100BFBF7E9
:10456000E0FF99ED020B98ED001B41EC180B53ECAA
:10457000102B51EC110BFBF7D4FF53EC182BFBF76E
:1045800029FF069A7F1CC2E90201AF42BADB0498F8
:1045900070600398306005980025C6F80C010AE0A9
:1045A00006EB051797ED460B51EC100B81F000411F
:1045B000C7E946016D1CA542F2DB009803F072FCCE
:1045C000019803F06FFC584603F06CFC029803F06E
:1045D00069FC07B05046BDEC0A8B04B0BDE8F04F53
:1045E00003F060BC0249084490F9300070470000B5
:1045F000000400202DE9F04F984683462DED068BF0
:1046000001EB0800401E83B09246894600249FEDCE
:10461000719B00904145254622DA91E012980026D0
:1046200000EBC50787ED009B17E0A91B0AEBC10053
:1046300090ED001B0BEBC60053EC112B90ED000B23
:1046400051EC100BFBF76DFF97ED001B53EC112B9A
:10465000FBF7C0FEC7E90001761CAE42E5DD6D1C2C
:1046600040464545DADB064640E01298641C00EB04
:10467000C60708EB040087ED009BFCF733F841EC1C
:104680001A0B4846FCF72EF8054653EC1A2B0191FD
:10469000FCF784F804D2B0EE4A8AF0EE6A8A02E0AF
:1046A000019941EC185B254617E0711B0AEBC1002C
:1046B00090ED001B0BEBC50053EC112B90ED000BA4
:1046C00051EC100BFBF72DFF97ED001B53EC112B5A
:1046D000FBF780FEC7E900016D1C2846FCF702F8D5
:1046E00053EC182BFCF742F8DFD3761C0098864277
:1046F000BBDB03B0BDEC068BBDE8F08F1298002643
:1047000000EBC50787ED009B17E0A91B0BEBC10071
:1047100090ED000B0AEBC60053EC102B90ED001B44
:1047200051EC110BFBF7FDFE97ED001B53EC112B29
:10473000FBF750FEC7E90001761CAE42E5DD6D1CBB
:1047400048464D45DADB064640E01298641C00EB13
:10475000C60709EB040087ED009BFBF7C3FF41ECA4
:104760001A0B4046FBF7BEFF054653EC1A2B01918E
:10477000FCF714F804D2B0EE4A8AF0EE6A8A02E03E
:10478000019941EC185B254617E0711B0BEBC1004A
:1047900090ED001B0AEBC50053EC112B90ED000BC4
:1047A00051EC100BFBF7BDFE97ED001B53EC112BEA
:1047B000FBF710FEC7E900016D1C2846FBF792FFCE
:1047C00053EC182BFBF7D2FFDFD3761C0098864200
:1047D000BBDB8EE700000000000000002DE9FF4F6A
:1047E00005462DED028B85B0D5E90376D0F808801B
:1047F000340108EB0700A0F101099346204604F0BC
:10480000BDF90190204604F0B9F90090204604F06B
:10481000B5F90490204604F0B1F90390204604F065
:10482000ADF90290204604F0A9F9824600209FEDE0
:10483000580B23E040450ADA089901EBC00191EDDD
:10484000001B019901EBC00181ED001B04E00199FF
:1048500001EBC00181ED000BB84209DA0BEBC0019E
:1048600091ED001B009901EBC00181ED001B04E0FC
:10487000009901EBC00181ED000B401CB042D9DB77
:104880002868039A019901F0C3F82868029A0099F0
:1048900001F0BEF8002441E0029800EB04180398F0
:1048A00098ED021B00EB041753EC112B97ED020B54
:1048B00051EC100BFBF735FE98ED000B97ED001B4C
:1048C00041EC180B53EC102B51EC110BFBF729FEAC
:1048D00053EC182BFBF71FFE049A02EB04129346CD
:1048E00003C298ED021B97ED000B53EC112B51EC1A
:1048F000100BFBF716FE98ED001B97ED020B41EC39
:10490000180B53EC112B51EC100BFBF70AFE53EC78
:10491000182BFBF75FFD641CCBE90201B442BBDB43
:1049200052466868049900F020FF002416E03046E3
:10493000FBF7D8FE41EC100B0AEBC40053EC102B34
:1049400090ED001B51EC110BFBF75DFE0A46014692
:104950000A9800EBC400641CC0E900124C45E6DB79
:10496000019803F09FFA009803F09CFA049803F072
:1049700099FA039803F096FA029803F093FA05B0B7
:104980005046BDEC028B04B0BDE8F04F03F08ABA8C
:1049900000000000000000002DE9F0410E468519DE
:1049A000074614206D1E04F0E9F80446284603F07B
:1049B00063FAA760C4E90360012101F019F92060DE
:1049C0004FF0FF31206901F013F960602046BDE827
:1049D000F081000010B5002309E000BF00EBC30424
:1049E00094ED000B02EBC3045B1C84ED000B8B42C7
:1049F000F4DB10BD10B5002309E0CC1A00EBC404B1
:104A000014ED020B02EBC3045B1C84ED000B8B4224
:104A1000F3DB10BD2DE9F04F35212F232B24292561
:104A20001F264FF0250B1D274FF0170C4FF01108D4
:104A30004FF00D094FF00B0A4FF0070E02E000BFD8
:104A400090FBF1F090FBF1F201FB1202002AF7D08B
:104A500002E000BF90FBF3F090FBF3F103FB1101C8
:104A60000029F7D002E000BF90FBF4F090FBF4F1D6
:104A700004FB11010029F7D002E000BF90FBF5F024
:104A800090FBF5F105FB11010029F7D04FEA0B016E
:104A900090FBF1F201FB120222B990FBF1F0F7E773
:104AA00090FBF6F090FBF6F106FB11010029F7D020
:104AB00002E000BF90FBF7F090FBF7F107FB11015C
:104AC0000029F7D002E000BF90FBFCF090FBFCF166
:104AD0000CFB11010029F7D002E000BF90FBF8F0B9
:104AE00090FBF8F108FB11010029F7D04FEA09010A
:104AF00090FBF1F201FB120232B1514690FBF1F250
:104B000001FB12021AB109E090FBF1F0F0E790FB13
:104B1000F1F0F3E7C11700EB5170C0104107F9D075
:104B20004FEA0E0190FBF1F201FB120232B10521B6
:104B300090FBF1F201FB12021AB109E090FBF1F0D7
:104B4000F0E790FBF1F0F3E7C11700EB91708010F4
:104B50008107F9D05FF0030190FBF1F201FB120233
:104B60002AB990FBF1F0F7E700EBD0704010C107D5
:104B7000FAD0012800D00020BDE8F08F30B50446FF
:104B8000002A02DA4FF0FF3030BD11D14FF00002A1
:104B90000AE000BF04EBC20090ED000B03EBC20083
:104BA00002F1010280ED000B8A42F3DB084630BDC2
:104BB000491E91FBF2F00021401C0AE001FB02F5C6
:104BC00004EBC50595ED000B03EBC105491C85ED14
:104BD000000B8142F2DB30BD2DE9F04F04462DED94
:104BE000028BADF2444D456A476900EB85000DF13B
:104BF000180A47650020E061E06408E001EBC002AC
:104C000092ED000B0AEBC002401C82ED000B6269C2
:104C10008242F3DCE06C012805D10AEBC70010EDFD
:104C2000040B00ED020B20683E469BA1D0F83890A3
:104C300004F130008046FBF7A9FB01009FED978B44
:104C400004F13A00CDF8380414D096A14046FBF7A1
:104C50009DFB002873D094A0FCF782FE06A803F009
:104C600021F986A803F01EF90DF2444DBDEC028B2C
:104C7000BDE8F08FA84617E03046FBF733FD53EC54
:104C8000182BFBF74EFC41EC100BFCF795FE51EC9A
:104C9000100BFBF738FD064604EB8800A8F101086D
:104CA0000665E0693044E061B8F1000FE4DC606D56
:104CB0002065E16908448146E06100205DE000BFB5
:104CC000A5EB080004EB800B82A1DBF85060DDF857
:104CD0003804A9EB0609FBF759FB20B37EA1DDF8E8
:104CE0003804FBF753FBF0B104EBC900012200F5D7
:104CF000F8700296CDE903020592206886AB0DF1AB
:104D0000180C826BCDE90023D0E9122339466046A6
:104D100000F024FA691EDBF8507088454FF000005F
:104D20001AD186A915E004EBC90000F5F8700090CF
:104D300086AB3A4606A9204600F0D0F8EAE720E024
:104D400001EBC00292ED000B04EBC002401C82EDAF
:104D50007C0BB042F4DB0EE0514686AA09E000BFAE
:104D600002EBC00393ED000B01EBC003401C83ED8D
:104D7000000BB042F4DB08F101008046A8429FDB43
:104D80006CE7A8461AE000BF06EB0900801EFBF79F
:104D9000A9FC53EC182BFBF7C4FB41EC100BFCF700
:104DA0000BFE51EC100BFBF7AEFC064604EB880043
:104DB000A8F101080665E0693044E061B8F1000F30
:104DC000E2DC606D2065E16908448146E061002015
:104DD0005DE000BFA5EB080004EB800B3DA1DBF814
:104DE0005060DDF83804A9EB0609FBF7CFFA20B3D1
:104DF00039A1DDF83804FBF7C9FAF0B104EBC900BA
:104E0000012200F5F8700296CDE9030205922068B0
:104E100086AB0DF1180C826BCDE90023D0E912238B
:104E20003946604600F0DAFA691EDBF850708845B2
:104E30004FF000001AD186A915E004EBC90000F577
:104E4000F870009086AB3A4606A9204600F046F876
:104E5000EAE700BF01EBC00292ED000B04EBC002D9
:104E6000401C82ED7C0BB042F4DB0EE0524686A97A
:104E700009E000BF01EBC00393ED000B02EBC003A0
:104E8000401C83ED000BB042F4DB08F101008046CA
:104E9000A8429FDBE2E6000070657200000000009F
:104EA0000000E03F73796D005369676E616C2065A7
:104EB0007874656E73696F6E2063616E2062652021
:104EC00065697468657220706572206F72207379ED
:104ED0006D00000066667400464654002DE9FF4FE1
:104EE00004460068894683B0D0E90E10084400EB00
:104EF000D070461004F1300015464FF0020B7BA134
:104F00000746FBF743FA01004FF0010804F13A0AA3
:104F10001AD077A13846FBF739FA002874D075A06B
:104F2000FCF71EFD2068D0E90E1081420BD17CA158
:104F30005046FBF72BFA00287ED07AA15046FBF7AB
:104F400025FA0028F8D0C8E005EBD57121F0010161
:104F5000A819691A0844C00003F010FE029006EB7D
:104F6000D670421029464846029B09F089FB8146CB
:104F7000206809EB0607816BC819C000083803F0E8
:104F8000FDFD05462068D0E90E10814209D164A1DB
:104F90005046FBF7FBF968B362A15046FBF7F6F900
:104FA00040B32068D0E90E10814202D05EA0FCF729
:104FB000D7FC20683A46816BCDE90015836C20460A
:104FC000029909F0F7FF05EBC6065A4649463046F6
:104FD000069BFFF7D3FD20683A46C16BCDE900156B
:104FE000C36C2046029909F0E5FF30465A4649460F
:104FF000109B5FE02068816B3846FFF7CDFCC4F85A
:1050000048806060D5E7FFE72068866B05EB4600C7
:10501000C000103803F0B2FD03460290721E29460C
:10502000484609F0C9FD074606EB46003844C00073
:10503000183803F0A3FD00E04AE005462068D0E9F7
:105040000E10814209D136A15046FBF79FF9A0B35B
:1050500034A15046FBF79AF978B32068D0E90E10D6
:10506000814202D030A0FCF77BFC206807EB4608A9
:10507000A8F10202816BCDE90015836C20460299EC
:1050800009F098FF374405EBC606B91E5A4630466C
:10509000069BFFF773FD2068A8F10202C16BCDE902
:1050A0000015C36C2046029909F084FFB91E3046F2
:1050B0005A46109BFFF762FD34E7FFE707EB460017
:1050C0003146801EFFF768FCC4F848806060CCE77A
:1050D000606802F00FFF0020A064029802F0E2FE78
:1050E00007B02846BDE8F04F02F0DCBE70657200E4
:1050F00073796D005369676E616C20657874656EB5
:1051000073696F6E2063616E2062652065697468E3
:10511000657220706572206F722073796D000000D7
:1051200066667400464654004465636F6D706F7325
:105130006974696F6E2046696C74657273206D7551
:1051400073742068617665207468652073616D658D
:10515000206C656E6774682E000000002DE9FF4F1B
:1051600083B08846109E01EBD17106EBD6704710D4
:1051700021F00101A8EB0100009014990025A8F18D
:1051800001004843039901EBC0000190F7E000BF24
:10519000159907EB450B05FB01F09FED8E0B11995F
:1051A000002401EBC00A8AED000B139901EBC00942
:1051B00089ED000BDFE000BFABEB0400B84207DB7A
:1051C000404505DA14994843039901EBC0005DE0BE
:1051D000B8421ADA00281AD414994843039901EB0B
:1051E000C000029090ED001B059853EC112B00EBD2
:1051F000C40090ED000B51EC100B6DE0FBF791F942
:1052000099ED001B53EC112BB0E0002803D5009959
:1052100059B1012922D0404501DB0099A1B3404595
:1052200002DB009901296FD0A4E01499404448435F
:10523000039901EBC000029090ED000B059853EC30
:10524000102B00EBC40090ED001B51EC110BFBF791
:1052500068F99AED000B53EC102B43E0411C14D07D
:1052600040441499401C4843039901EBC00002904C
:1052700090ED000B059853EC102B00EBC40090ED63
:10528000001B51EC110B55E013E00198029090EDDA
:10529000001B059853EC112B00EBC40090ED000BA4
:1052A00051EC100BFBF73DF99AED001B53EC112B61
:1052B0007FE01499A0EB08004843039901EBC0007C
:1052C000029090ED000B059853EC102B00EBC400FE
:1052D00090ED001B51EC110BFBF723F99AED001B2D
:1052E00053EC112BFBF776F8CAE90001029890ED18
:1052F000000B069853EC102B00EBC40090ED001B44
:1053000051EC110B7AE7FFE7A0EB0801149A491E54
:10531000514340453AD0039800EBC100029090ED14
:10532000001B059853EC112B00EBC40090ED000B13
:1053300051EC100BFBF7F5F89AED001B53EC112B19
:10534000FBF748F8CAE90001029890ED001B0698A7
:1053500053EC112B00EBC40090ED000B51EC100B43
:10536000FBF7DFF899ED000B53EC102BFBF732F84D
:10537000C9E90001641CB442FFF61EAF6D1C12980F
:105380008542FFF605AF07B0BDE8F08F01980290A7
:1053900090ED001B059853EC112B00EBC40090ED31
:1053A000000B51EC100BFBF7BCF89AED000B53EC23
:1053B000102BFBF70FF8CAE90001029890ED001BD3
:1053C000069853EC112B00EBC40090ED000B51EC50
:1053D000100B13E700000000000000002DE9FF4F54
:1053E00081B09B460025DDF840A0DDF838806CE0F8
:1053F0000120139900EB450905FB01F00F999FED82
:10540000350B01EBC007002487ED000B119901EB70
:10541000C00686ED000B55E0B9EB040014D40299E8
:1054200088421ADA12994843019901EBC0000090B2
:1054300090ED001B039853EC112B00EBC40090ED92
:10544000000B51EC100B1DE0A4EB09001299401E5B
:105450004843019901EBC00008E0C9EB4100011984
:105460001298491E4143019800EBC100009090ED55
:10547000000B039853EC102B00EBC40090ED001BC5
:1054800051EC110BFBF74DF897ED001B53EC112B72
:10549000FAF7A0FFC7E90001009890ED001B0BEBA5
:1054A000C40053EC112B90ED000B51EC100BFBF7EB
:1054B00038F896ED001B53EC112BFAF78BFFC6E979
:1054C0000001641C4445A7DB6D1C554590DB05B00D
:1054D000BDE8F08F000000000000000082B0CDE9C0
:1054E000000121F0004001909DED000B02B051EC55
:1054F000100B704710B507230321052202E000BFFF
:1055000090FBF3F090FBF3F403FB1404002CF7D0B2
:1055100002E000BF90FBF1F090FBF1F301FB1303FD
:10552000002BF7D002E000BF90FBF2F090FBF2F10D
:1055300002FB11010029F7D003E000BF00EBD0709F
:105540004010C107FAD010BD2DE9F04F00223527D9
:105550002F2325240D254FF02B0E4FF01F090B266E
:105560004FF007084FF0050A4FF0030B05E000BFAE
:1055700090FBF7F041F82270521C90FBF7FC07FB00
:105580001C0CBCF1000FF3D005E000BF90FBF3F062
:1055900041F82230521C90FBF3F703FB1707002F52
:1055A000F4D0734690FBF3F703FB170737B12923B9
:1055B00090FBF3F703FB170737B110E090FBF3F014
:1055C00041F82230521CEDE790FBF3F041F8223015
:1055D000521CEDE790FBF4F041F82240521C90FB86
:1055E000F4F304FB1303002BF4D04B4690FBF3F4CD
:1055F00003FB1404C4B11D2390FBF3F403FB140458
:10560000C4B1172390FBF3F403FB1404C4B11323B8
:1056100090FBF3F403FB1404C4B1112390FBF3F4E7
:1056200003FB1404C4B122E090FBF3F041F82230F4
:10563000521CDBE790FBF3F041F82230521CDBE711
:1056400090FBF3F041F82230521CDBE790FBF3F0C3
:1056500041F82230521CDBE790FBF3F041F8223096
:10566000521CDBE790FBF5F041F82250521C90FBF6
:10567000F5F305FB1303002BF4D004E090FBF6F0E8
:1056800041F82260521C90FBF6F306FB1303002B3B
:10569000F4D0082344070CD1C41700EB5470C01099
:1056A00041F82230521CF5E790FBF8F041F82280D7
:1056B000521C90FBF8F308FB1303002BF4D0534665
:1056C00090FBF3F403FB140484B10423840713D088
:1056D0004FEA0B0390FBF3F403FB1404A4B1022381
:1056E000C40717D01F283DDD022539E090FBF3F0F9
:1056F00041F82230521CE3E7C41700EB947080108D
:1057000041F82230521CE1E790FBF3F041F82230DF
:10571000521CDFE700EBD070401041F82230521CE1
:10572000DEE700BF05EB45035B005C1E5B1C04E08D
:1057300090FBF4F041F82240521C90FBF4F604FB7D
:105740001606002EF4D004E090FBF3F041F822306E
:10575000521C90FBF3F403FB1404002CF4D06D1CDA
:105760000128DFDC1046BDE8F08F2DE9F74F074632
:105770002DED0C8B82B08B46006805682C0120460D
:1057800003F0FCF90090204603F0F8F9824600246B
:1057900074E00BEB041999ED020B51EC100B81F046
:1057A000004141EC100B291B0BEB011851EC100BC5
:1057B00098ED021B53EC112BFAF7ADFE98ED00BBF0
:1057C00099ED00AB41EC190B53EC1B2B51EC1A0B70
:1057D000FAF7A1FE07EB041641EC180B96ED040B4B
:1057E00053EC102BFAF79DFE96ED020B41EC1D0BCE
:1057F00053EC102B51EC190BFAF793FE41EC1C0BF8
:1058000053EC1B2B51EC1A0BFAF7E4FD53EC1C2B59
:10581000FAF7E0FD53EC1D2BFAF77DFE009A02EB40
:1058200004120192C2E9000196ED040B51EC190B30
:1058300053EC102BFAF775FE96ED020B41EC190BA9
:1058400053EC102B51EC180BFAF76BFE98ED021B82
:1058500099ED020B41EC180B53EC112B51EC100B92
:10586000FAF759FE53EC182BFAF7B4FD53EC192B49
:10587000FAF7B0FD019A641CC2E90201AC4288DB70
:1058800052463868009900F01DF800200DE00AEB40
:105890000012109992ED000B01EB0011401C81EDFC
:1058A000000B92ED020B81ED020BA842EFDB00989A
:1058B00002F0F8FA02B05046BDEC0C8BBDE8FE4F8A
:1058C00002F0F0BAFEB50C46D0F80C11154651B1F5
:1058D000012907D1D0E9001302460091294620464C
:1058E000FEF7E0FBFEBDD0E90013012200268DE8A3
:1058F000460002462146284603F076F9FEBD000028
:105900002DE9F0410F462DED048B0646FFF782F896
:105910004FF48875012832D09FED3B9BB0EE490AC9
:10592000F0EE690AFCF71CFBB0EE408AF0EE608AEC
:105930003046FAF7D7FE41EC100BFCF711FB53ECA5
:10594000182B51EC100BFAF75EFE41EC100BFCF734
:1059500033F8B0EE401AF0EE601AB0EE490AF0EEFD
:10596000690AFCF795FB51EC100BFAF7CCFE6FF0CF
:10597000010101EB4601814217DD440016E005EB11
:10598000061003F0FBF800F1080105460C4630460E
:10599000FFF7DAFD0246C5F80801214605F58870D3
:1059A00003F032F83446002014E0044605EB0410FE
:1059B00003F0E4F800F10801054688462046FFF7A9
:1059C000C3FD0246C5F80801414605F5887003F09D
:1059D0001BF80120C5F80C01C5E900677F1C0ED13A
:1059E00000260AE005EB061797ED460B51EC100B6D
:1059F00081F00041C7E94601761CA642F2DBBDEC0E
:105A0000048B2846BDE8F081000000000000004043
:105A10002DE9F04F81462DED0E8B83B017460E46D3
:105A20000068056868002C010290204603F0A6F883
:105A30000090204603F0A2F8044600200EE000BFCC
:105A400006EB0011009A91ED000B02EB0012401CD6
:105A500082ED000B91ED020B82ED020BA842EFDB11
:105A60002246D9F800000099FFF72CFF94EC040BB4
:105A700051EC100B53EC112BFAF7ACFC9FED58DBFB
:105A8000C7E9000187ED02DB012677E0A81B04EBE4
:105A9000001B04EB061A9BED020B9AED021B53EC64
:105AA000102B51EC110BFAF795FC9AED00BB9BED16
:105AB00000AB41EC180B53EC1B2B51EC1A0BFAF713
:105AC0002AFD09EB061841EC190B98ED040B53EC79
:105AD000102BFAF726FD98ED020B41EC1C0B53EC52
