:020000040000FA
:1000000008460020B1020000B9020000BB02000057
:10001000BD020000BF020000C1020000000000009D
:1000200000000000000000000000000019020000B5
:10003000C50200000000000055020000C9020000D7
:100040006D0E0000CB020000B91600002514000060
:10005000CB020000CB020000B50B0000DD12000057
:1000600055160000691600007D160000CB02000046
:10007000CB020000CB020000CB020000CB0200004C
:10008000CB02000075120000CB020000CB02000082
:10009000CB020000CB020000CB020000CB0200002C
:1000A000CB020000CB02000091160000A516000054
:1000B000CB020000CB0200000000000000000000A6
:1000C000CB020000CB020000CB020000CB020000FC
:1000D000CB020000CB020000CB020000CB020000EC
:1000E000CB020000CB020000CB02000000000000A9
:1000F00000000000CB02000000000000CB02000066
:1001000000000000000000000000000000000000EF
:1001100000000000000000000000000000000000DF
:1001200000000000000000000000000000000000CF
:1001300000000000000000000000000000000000BF
:1001400000000000000000000000000000000000AF
:10015000000000000000000000000000000000009F
:10016000000000000000000000000000000000008F
:10017000000000000000000000000000000000007F
:10018000000000000000000000000000000000006F
:10019000000000000000000000000000000000005F
:1001A000000000000000000000000000000000004F
:1001B000000000000000000000000000000000003F
:1001C000000000000000000000000000000000002F
:1001D000000000000000000000000000000000001F
:1001E000000000000000000000000000000000000F
:1001F00000000000000000000000000000000000FF
:10020000DFF810D000F03CFC00480047F94A00003D
:10021000AFF3008008460020244B19680868B0E856
:10022000F04F80F30988BFF36F8F4FF0000080F329
:1002300011887047000000000548006880F30888B6
:1002400062B661B6BFF34F8FBFF36F8F00DF000060
:1002500000000000EFF30980BFF36F8F134B1A68A3
:100260001EF0100F08BF20ED108A20E9F04F10603B
:1002700008B44FF0400080F31188BFF34F8FBFF3F5
:100280006F8F05F0B7FA4FF0000080F3118808BCBB
:1002900019680868B0E8F04F1EF0100F08BFB0EC06
:1002A000108A80F30988BFF36F8F70470C0000201D
:1002B0000648804706480047FEE7FEE7FEE7FEE700
:1002C000FEE7FEE7FEE7FEE7FEE7FEE77914000043
:1002D00001020000202A04DB203A00FA02F100208B
:1002E00070479140C2F1200320FA03F31943904074
:1002F0007047202A04DB203A21FA02F000217047DF
:1003000021FA02F3D040C2F120029140084319467D
:10031000704740EA01039B0703D009E008C9121F98
:1003200008C0042AFAD203E011F8013B00F8013BAF
:10033000521EF9D27047D2B201E000F8012B491EDB
:10034000FBD270470022F6E710B513460A46044672
:100350001946FFF7F0FF204610BD30B505462A4686
:100360000B4612F8010B13F8014B08B1A042F8D06C
:100370001CB1002802D06D1CF1E7284630BD421C9C
:1003800010F8011B0029FBD1801A704710B500221C
:1003900000E0521C835C8C5CA34201D1002BF8D19D
:1003A000D8B2E1B2401A10BD034611F8012B00F893
:1003B000012B002AF9D11846704770B5064601F0A6
:1003C0006BFA046805460A220021304600F073FAF1
:1003D0002C6070BD2DE9FE4F804681EA0300C00FFE
:1003E0000C46009021F0004123F00045B8EB0200DC
:1003F000A94105D24046214690461C460B4602467E
:1004000023F00040104347D0270DC7F30A00C3F381
:100410000A510290401A019040286BDAC3F313008E
:1004200040F4801B0098924620B10023D2EB030ACF
:1004300063EB0B0B01985946C0F140025046FFF7A1
:1004400049FF06460D4650465946019A00F021FAEA
:1004500010EB08006141002487EA115284EAE77337
:100460001A4340D0009A62B3019A012A4FEA075218
:1004700015DC001B61EB02014FF0004202EA07525B
:10048000CDE90042001C41F5801132462B4600F0B8
:1004900090FA03B0BDE8F08F40462146F9E7001B13
:1004A00061EB0201001C41F5801300185B4120182C
:1004B000A2F5001747EB030140EAD570B6196D416C
:1004C00011E06D084FEA360645EAC0754FEA07525B
:1004D000001B61EB0201001C41F5801149084FEA45
:1004E00030000019514132462B4603B0BDE8F04FB1
:1004F00000F050BA0098012240000023D0EB020225
:1005000063EBE073009821464FEAE074B8EB00001B
:1005100061EB0401E9E783F000435BE781F0004110
:1005200058E72DE9FE4F81EA030404F0004421F06E
:10053000004100944FF0000B23F0004350EA010407
:100540005ED052EA03045BD0C3F30A54C1F30A55E8
:100550002C44A4F2F3340194A0FB0254C1F3130120
:1005600041F48011C3F3130343F4801301FB0244ED
:1005700000FB034E840A970A44EA815447EA8357F2
:10058000A4FB076802958D0A05FB07854FEA932CAB
:1005900004FB0C542705029D4FEA065847EA16371C
:1005A000B5EB08056EEB070C870E920E47EA811734
:1005B00042EA8312A7FB0201B6EB0B0164EB0004D5
:1005C0002B0D43EA0C335E1844EB1C50DA465146BF
:1005D000E7FB0201C5F313044FEA0B3343EA14535C
:1005E0004FEA0432019C43EA0603A4F10C0402948E
:1005F000009CCDE900B400F0DCF903B0BDE8F08F59
:1006000000200146F9E72DE9F04D81EA030404F0EA
:10061000004B21F0004514464FF0000A23F0004142
:1006200050EA050220D054EA01021DD0C5F30A5752
:100630000246C5F31303C1F31300C1F30A5640F495
:10064000801543F48013A7EB0608101BD64608F26A
:10065000FD3873EB050002D308F1010801E09218A0
:100660005B41B8F1000F03DA00200146BDE8F08DD0
:1006700000204FF48011064684460EE0171B73EBF2
:10068000050705D3121B63EB050306434CEA010C77
:1006900049084FEA300092185B4150EA0107EDD15A
:1006A00052EA030012D082EA040083EA05010843FB
:1006B00005D0101BAB4106D20122002306E0002228
:1006C0004FF0004302E06FF0010253101AEB0600F6
:1006D0004CEB085110EB0A0041EB0B01BDE8F04D6B
:1006E00000F058B90EB5C10F80EAE0700844CA079F
:1006F000002140F233438DE80E000A460B4600F01D
:1007000058F903B000BD70B5C1F30A5201F00045BD
:100710000024C1F3130140F2FF3341F480119A42E7
:1007200001DA002070BD40F233439A42A2F2334214
:1007300003DC5242FFF7DDFD00E090402C43F1D096
:10074000404270BD00F0004230F000400AD0C10DC0
:1007500001F56071C0F3160042EA0151C20840077A
:1007600011437047002001467047000030B5041E59
:1007700071F1000404DB4FF00044404264EB0101DE
:10078000141E73F1000405DB1C464FF00043524277
:1007900063EB04038B4208BF824230BD30B5041EB8
:1007A00071F1000404DB4FF00044404264EB0101AE
:1007B000141E73F1000405DB1C464FF00043524247
:1007C00063EB0403994208BF904230BD01F000433F
:1007D00030B421F0004150EA010206D00A0DA2F522
:1007E0006072C1F31301002A02DC30BC00207047A4
:1007F000440F44EAC104C100E01830BC00EBC25011
:1008000000F091B830B50B460146002020220124AB
:1008100009E021FA02F59D4205D303FA02F5491BCE
:1008200004FA02F52844151EA2F10102F1DC30BDE4
:100830002DE9F05F0546002092469B468846064615
:10084000814640241BE02846414647462246FFF7A2
:1008500050FD53465A46C01A914110D311461846CE
:100860002246FFF737FD2D1A67EB01084F46224657
:1008700001200021FFF72EFD17EB00094E41201E3D
:10088000A4F10104DFDC484631462A464346BDE870
:10089000F09F202A06DBCB17203A41FA02F043EA08
:1008A000E07306E041FA02F3D040C2F12002914029
:1008B0000843194670472DE9F04791460F46804698
:1008C0000446002614F8015B2DB100F0EBF8006837
:1008D000405DC007F6D12B2D02D02D2D18D0641EFF
:1008E0004A463946204600F0E1F827B13968A1426E
:1008F00001D1C7F8008071054FF002040BD54042CA
:10090000002803DD00F0C8FF0460A007BDE8F08701
:1009100046F48066E4E70028F8DA00F0BDFF0460E2
:100920006FF00040F2E70029A8BF7047401C490063
:1009300008BF20F00100704710B4B0FA80FC00FA44
:100940000CF050EA010404BF10BC704749B1CCF16F
:10095000200421FA04F411FA0CF118BF01212143FB
:100960000843A3EB0C01CB1D4FEA00614FEA1020B6
:1009700042BF002010BC704700EBC3501044002958
:10098000A4BF10BC7047401C490008BF20F0010004
:1009900010BC704710B5141E73F1000408DA401C37
:1009A00041F1000192185B411A4301D120F001008E
:1009B00010BD2DE9F04D92469B4611B1B1FA81F27E
:1009C00002E0B0FA80F220329046FFF783FC044642
:1009D0000F4640EA0A0041EA0B0153465A460843D3
:1009E00013D0114653EA010019D0C8F14002504615
:1009F000FFF77FFC05460E46504659464246FFF734
:100A000069FC084305D0012004E020463946BDE8D2
:100A1000F08D0020054346EAE0762C4337430A98E0
:100A20006305E40AA0EB08000022FD0A44EA4754EB
:100A30000A3002D500200146E9E701051019694195
:100A4000DDE9084500196941BDE8F04DA2E7C1F3B1
:100A50000A52C1F3130140F2FF3341F480119A426C
:100A600002DA00200146704740F233439A42A2F274
:100A7000334202DC5242FFF73CBCFFF72BBC0000C4
:100A8000064C074D06E0E06840F0010394E80700DB
:100A900098471034AC42F6D3FFF7B6FBE8C100002C
:100AA00008C20000004870473CC100002DE9F05F1B
:100AB00082460078002715468B460AF10104B946A4
:100AC000302801D09DB113E014F8010B01277828DC
:100AD00003D0582801D045B10AE00DB1102D07D13F
:100AE0000027102514F8010B02E0082500E00A2574
:100AF0000026B0460EE005FB080005FB06F10127C5
:100B000001EB10461FFA80F8B6F5803F00D3B946D6
:100B100014F8010B294600F018F80028EBDABBF1B5
:100B2000000F05D00FB1641E00E05446CBF8004022
:100B3000B9F1000F06D000F0AFFE02210160C81E1F
:100B4000BDE8F09F48EA0640FAE73A2800D230387C
:100B500020F02002412A01D3A2F13700884201D3BC
:100B60004FF0FF307047000030B51148016804684D
:100B7000056831F8863FA4898A88B5F88C50991A9F
:100B8000651B01EB4501056809B2C910A5F88C2069
:100B900002680568B2F88820A5F88A200268A2F8E1
:100BA00088300268A2F886400068C18130BD00002C
:100BB000045D00002DE9FC410025DFF894800095DC
:100BC0004FF4807601242F460195304604F0AAF8B0
:100BD00038B1D8F80403204203D0304604F098F826
:100BE0002543361D64007F1CB6B2082FEDD34FF4A9
:100BF000BE74204604F096F848B1204604F088F808
:100C000045F000456A460221002004F039F815F04D
:100C1000FF0F16D0012600242E420ED008EB8401CF
:100C2000D1F81005D1F81015C0F30520094AC1F319
:100C3000014152F8242002B190477600641C082C30
:100C4000EAD3002D02DA684604F0B4FABDE8FC816C
:100C5000006000400C04002070B521480168B1F923
:100C60000230A3F1100109B2002901DA203109B2E2
:100C700009B34A1E12B20468066804EB430406EB8B
:100C8000410134F9463F06EB42025D110368B1F8B9
:100C90004610B2F84620B3F90A30A5EB6315294493
:100CA000891A104A158C294409B21184238000291D
:100CB00003DB491005E01F22DDE74FF4784242EAEA
:100CC000610102689181016802684988491C09B282
:100CD0005180202902D100680021418070BD0000B0
:100CE000045D000068000020F0B51A490A68B2F9F6
:100CF0000040A21F12B2002A01DA0C3212B2164BC7
:100D00005E8E9D8EC6EB45070688B8190F6807EB07
:100D10004202D28DA0EB420007EB4402D48D5D86E7
:100D2000204400B29886D685002801DB401103E0FC
:100D30004FF4784242EA60100A68508108680A68F5
:100D40000088401C00B210800C2802D109680020E5
:100D50000880F0BD045D00006800002070B5234BE2
:100D600004881A8D944200D91C85214A1568ED88A3
:100D70008DB11E4DB3F90E60688DB5F92250B6F5F0
:100D8000C87F0FDA204440085885B1F90000284494
:100D90004010588470BD12680124D48000885885A2
:100DA0000888F6E714680221C008E180198D1468EC
:100DB0004908E1821468091A208300EBA100116838
:100DC00080B28882116840084883B3F9040041105A
:100DD0001068C1831368E810091A188400EBA10099
:100DE0001168888311684010488470BD6800002035
:100DF000045D000070B51B484FF6FF7401680A8A55
:100E00001949A51A8B8C9D4202D913448B8400E0AA
:100E10008C84036804688E8CB3F9043004EB4304BB
:100E20000023B4F88E50B54202D2751B8D8400E0C9
:100E30008B84A4F88E20898C1E22B1FBF2F102680B
:100E400051824FF4FA42914201D901684A82016805
:100E500002688988491C09B291801E2901D1006865
:100E6000838070BD045D0000680000202DE9F04122
:100E70004FF48076304603F0C3FE234CB50560B1D5
:100E8000304603F0C4FE0120C5F80803607920B99C
:100E9000012060712168002088474FF48276304637
:100EA00003F0AEFE40B1304603F0B1FE0220C5F8BB
:100EB00008032168012088474FF48876304603F004
:100EC0009FFE40B1304603F0A2FE1020C5F8080393
:100ED0002168022088474FF48677384603F090FE59
:100EE00000280ED0094800260660384603F08FFE21
:100EF0000820C5F80803A6712168BDE8F041032069
:100F00000847BDE8F081000048000020340C004094
:100F1000F1B582B0002702A8FFF7E6FEFFF79CFEBE
:100F2000754E3068B0F90C0000F060F9FFF71CFE58
:100F30003068B0F90E0000F071F900F07BFAFFF7AD
:100F400059FF00F083F96D4CADF80000002550B951
:100F5000B4F9181039B1491E08B22083A0B9E08C49
:100F6000ADF8000010E078B1B4F91810282211B1E2
:100F7000E38C984202D92283E08403E0491E08B240
:100F8000208368B3ADF80050E089401C01B2E181D4
:100F90003068B0F9060030B3012824D03268938A53
:100FA000BDF80020934252D23368B4F904C0B3F9BB
:100FB0001C3063454BDA02281ED048292FDAB4F9D9
:100FC0000A00B4F90C10B0EBA10F28DA0121684631
:100FD00000F01CFC49480121001D00F0E9FB4FE036
:100FE000ADF80030D0E7BDF8000078B3434968465B
:100FF000091DFFF7B3FE43E00021684600F006FC40
:101000003E480021001D00F0D3FBE5816089A081EE
:101010006581A58031684E270320C88030E000211B
:10102000684600F0F3FB35480021001D00F0C0FBCE
:10103000B4F90E0000F046FBE5816089A081A5802F
:1010400065816583A583E5834E27258618E0BAB1BF
:101050000121684600F0DAFB28480121001D00F05C
:10106000A7FBBDF80010208E814209D9B4F90E000B
:10107000482805DB2186A188A1836189E1836083FB
:101080003068B4F90E10B0F92A0088422BDA3068C3
:10109000218E408B884226D23068C088032822D116
:1010A0003068B4F91C10B0F9220088421BDA1348EA
:1010B0000021303000F0AAFB104800211C3000F065
:1010C00077FBB4F91A0000F0FDFAE089618B401A51
:1010D000E0814E3007B2E08BA081A58065816583F9
:1010E000A583E5832586B4F90E00B0F5487F01DDC0
:1010F00000F006F83846FEBD045D000068000020E0
:1011000070B5EA213648FFF71DF936490020C8239B
:101110000A68D0800A6893840A6813810C68B82230
:10112000E2840C68E82222850C684FF4A67262857E
:101130000A6810800A6850800A6890800A68908562
:101140000C68002204EB4205521C52B2E8850C2ABE
:10115000F8DBD1F80040002204EB4205521C52B2E9
:10116000A5F84600202AF7DB0C68002204EB4205B4
:10117000521C52B2A5F88600042AF7DB0C68002244
:1011800004EB4205521C52B2A5F88E001E2AF7DB72
:101190000C68002204EB4201521CA1F8DA3052B272
:1011A000A1F8CA30082AF5DB0F494FF4C862C88598
:1011B0008885888048800880888148810881C88027
:1011C000C881488208828884CA828A8208834883C8
:1011D0000886C8838883088508848886488670BD09
:1011E00018050020045D000068000020002801DAD6
:1011F000404200B20849B1F90020904208DCB1F940
:1012000002309A4204DDB1F904309A4200DD8A804E
:101210004A8008807047000068000020002801DA3A
:10122000404200B20849B1F90620904208DCB1F909
:1012300008309A4204DDB1F90A309A4200DD4A8151
:101240000A81C880704700006800002007480849EC
:1012500000688A8D438A934204D8C88D824201D99E
:10126000104600E00020CA858B857047045D0000B1
:10127000680000202DE9F041164E4FF4A071304671
:1012800003F058FD0025EFF31184402080F311880E
:10129000D6F804758100304603F04CFD04F0A6FC3E
:1012A000381A20F07F46012E07D904F091FC02285D
:1012B00003D0002604F0A0FC0543761EFAD225B127
:1012C00005494FF08050086040BFE0B280F31188BC
:1012D000BDE8F0810010014004ED00E02DE9FE437F
:1012E0004FF48278404603F03DFD4C4F00254C4CB6
:1012F000012600B3404603F03DFD94F82E0010B1E6
:1013000094F82F10D1B18DF80050616801912189B6
:10131000ADF80810E26832B1218B618362602181EF
:10132000E56010B102E0257400E03E602168684687
:10133000884784F82F5094F82E0060B34FF48077DC
:10134000384603F00FFD30B3384603F013FD628BCF
:1013500094F82D108A420AD9A2EB010080B2608372
:101360002289A2EB0000626802EB400005E007D191
:10137000E06828B184F82F60658303F0E1FC04E0A5
:101380008A4202D184F82F606583404603F0F2FC64
:101390002248001D06604FF48877384603F0E2FCCF
:1013A00048B1384603F0E6FC257402208DF80000B1
:1013B0002168684688474FF48A77384603F0D2FCA4
:1013C00028B1384603F0D6FC2574BDE8FE834FF003
:1013D00000484FF48C7967691DE000BFB7FA87F0C9
:1013E00028FA00F109EB80058F43284603F0BAFC88
:1013F00088B1284603F0BEFCA5F58C75E8088DF889
:10140000040045F38000401C8DF800608DF8050055
:10141000216868468847002FE0D1D6E70070004079
:10142000780400200149024804F0FAB8E4040020DE
:10143000003000400F4947F230520868B0F90E0002
:1014400000F58073B3F5007F04D90B684FF6FF7089
:1014500018820CE0002802DA404280B201E00868FD
:10146000C0890B68404380B21882904201D9086855
:1014700002827047045D000030B54FF080520023B7
:10148000D2E94C10082906D1CC06C4F80C31C4F8B6
:101490001031624C2360082955D1614B1B68614CA7
:1014A00023605F4B1B1D1B68241D23605C4B0833AE
:1014B0001B68241D23605A4B0C331B68241D2360BA
:1014C000574B10331B68241D2360554B14331B6886
:1014D000241D2360524B18331B68524C2034236068
:1014E0004F4B1C331B68241D23604D4B20331B685E
:1014F000241D23604A4B24331B68241D2360484B62
:1015000028331B68241D2360454B2C331B68241D86
:101510002360434B30331B68424C40342360404BC4
:1015200034331B68241D23603D4B38331B68241D56
:1015300023603B4B3C331B68241D2360384B4033F6
:101540001B68241D2360082904D1030002D1374CF5
:10155000354B2360082904D1030002D1344CFB230E
:101560002360082908D1030006D1324B92F8585263
:101570001C6865F303041C60082904D1030002D130
:101580002D4C8B012360082906D12C480168C9071E
:1015900002D06FF0010101602948016841F4700137
:1015A0000160BFF34F8FBFF36F8FD2E94C104FF044
:1015B0001022082906D1032804D9D2F808021749B5
:1015C00020310860D2F80002002803DBD2F80402C0
:1015D00000281FDA012003F0E1FD1221C2F80012F9
:1015E00018480368002BFCD0C2F8041201680029D7
:1015F000FCD0002003F0D2FDBFF34F8F10487C38A1
:101600000168114A01F4E06111430160BFF34F8F9B
:1016100000BFFDE70E490D48086030BD38050040A9
:101620000404001020C50040488103008C5600408F
:1016300018F50040E40E00404096024000040040CF
:1016400088ED00E000E401400400FA050090D003BA
:10165000E400002004220249024803F0CBB9000054
:10166000A80400200080004004220249024803F040
:10167000C1B90000B40400200090004004220249D7
:10168000024803F0B7B90000C004002000A00040E9
:1016900006220249024803F0ADB90000CC04002044
:1016A00000A0014006220249024803F0A3B900004D
:1016B000D804002000B00140014800680047000045
:1016C0005C000020F0B5384A918AB2F910500B182E
:1016D00036490C6804EB45046D1C34F8CA6F2DB212
:1016E0009B1B1BB293822080DC1703EB5473DC102E
:1016F0000B681C8100231582082D00D113820D6810
:101700004FF0320CB5F92650854237DC0D68B5F93B
:101710002850854232DBD48A0E682518B2F912406F
:1017200006EB4406641C36F8DA7F24B2ED1B2DB2BA
:10173000D5823080E81705EB50700D68C010082C7A
:10174000A884548200D153820A6819240E68B2F921
:101750000820550095FBF4F5551BF584950095FB85
:10176000F4F422440C68228500EB401292FBFCF258
:1017700010440A68508508688385F0BD04EB441066
:1017800090FBFCF00A682044508508680A68808A4B
:101790004008908208680A68B0F91C0040109083E5
:1017A000096801208885F0BD68000020045D000004
:1017B000154A002911680CD0B1F920101368A1EB6B
:1017C000E1011984B0F9000001EBE0001168088420
:1017D0000BE0B1F91E101368A1EBE101D983B0F958
:1017E000000001EBE0001168C8831068B0F91E101A
:1017F000B0F92000091A00EBA100116800B288833B
:101800001168401048847047045D0000124A0029A6
:1018100011680AD0098B1368A1EBD10119830088E4
:1018200001EBD0001168088309E0C98A1368A1EBB5
:10183000D101D982008801EBD0001168C8821068FC
:10184000C18A008B091A00EBA100116880B288825E
:101850001168400848837047045D0000002809DBD8
:1018600000F01F02012191404009800000F1E020BA
:10187000C0F88012704700000FB4054B10B503A9E3
:10188000044A029800F078FB10BC5DF814FB0000DD
:1018900091490000E800002000487047F400002053
:1018A00070B5D94B00242DED020B2DED108BDDE929
:1018B0001010984205DA20F000429A4201D809D16E
:1018C00041B19DED100BBDEC108B02B0BDE8704036
:1018D00000F05EBAB0F5801F26DA11430BD0002865
:1018E00013DA012000F080FABDEC108B02B0BDE8E5
:1018F000704000F059BA022000F076FA00F030FA99
:1019000051EC100B81F000419EE06FF035049FED2B
:10191000C00B53EC102B9DED100B51EC100BFEF790
:1019200000FECDE91001084604EB2051C0F313047A
:10193000B948A1F2FF31204400F4801080F07F62AA
:1019400082F04052224301EB20559FEDB50B1192DE
:1019500053EC102B9DED100B51EC100BFEF7DBFD43
:1019600041EC180BA01CC0F313009FEDAFDB9FED03
:10197000B0EBB14E7E4403286CD296ED000B51ECD7
:10198000180B53EC102BFEF7F1FE1DD1002D01BFFB
:1019900096ED000BBDEC108B02B070BD2846FEF733
:1019A000A1FE41EC180B53EC1D2BFEF7BAFD41ECE8
:1019B000190B53EC1E2B51EC180BFEF7B2FD53EC38
:1019C000192BFEF707FD3FE09FED9D0B51EC180B27
:1019D00053EC102BFEF7A5FD9FED9B1B53EC112B39
:1019E000FEF79CFD41EC190B53EC182B51EC180B36
:1019F000FEF797FD53EC192BFEF793FD41EC190B05
:101A0000002D04BF53EC192B51EC180B1AD02846AB
:101A1000FEF768FE41EC1A0B53EC1D2BFEF781FD1F
:101A200053EC192BFEF77AFD53EC182BFEF773FDE0
:101A300041EC180B53EC1E2B51EC1A0BFEF771FD09
:101A400053EC182BFEF767FDBDEC108B02B041EC98
:101A5000100B70BD9FED7E0B51EC180B53EC102B4F
:101A6000FEF7B8FC41EC100B51EC180B53EC102BAB
:101A7000FEF7C9FD41EC190B2846FEF733FE41EC99
:101A80001B0B53EC192B51EC190BFEF74AFD41ECE3
:101A90001A0B714853EC1A2B261851EC1A0BFEF74F
:101AA00040FD41EC1F0B6D48C4F1510404F5D724EF
:101AB000B0EE4F0AF0EE6F0A0321784400F0D2F83E
:101AC00053EC1F2B51EC100BFEF72BFD41EC1C0BC4
:101AD0006348B0EE4F0AF0EE6F0A0421784400F03C
:101AE000C1F853EC1A2B51EC100BFEF71AFD3443DE
:101AF00053EC1C2BFEF76EFC41EC1C0B002C4CDD58
:101B00009FED510B51EC180B53EC102BFEF709FD18
:101B100053EC182BFEF705FD41EC1A0B55B353ECB3
:101B20001D2B51EC1B0BFEF7FCFC41EC1D0B53EC89
:101B30001C2B51EC1A0BFEF74DFC53EC192BFEF746
:101B4000F0FC53EC1D2BFEF745FC53EC1A2BFEF773
:101B5000E5FC53EC182BFEF7DEFC41EC180B53ECC4
:101B60001E2B51EC1B0BFEF7DCFC53EC182BFEF785
:101B7000D2FC69E753EC1C2B51EC1A0BFEF72AFC44
:101B800053EC192BFEF7CDFC53EC1A2BFEF7C6FCD9
:101B900053EC182BFEF7C2FC56E735B353EC1D2B64
:101BA00051EC1B0BFEF7BDFC41EC1A0B53EC1C2B4C
:101BB00051EC180BFEF7AFFC53EC192BFEF7B1FC00
:101BC00053EC1A2BFEF7A7FC53EC182BFEF7A3FCE3
:101BD00041EC180B53EC1E2B51EC1B0BFEF7A1FC38
:101BE00053EC182BFEF797FC2EE753EC1C2B51EC13
:101BF000180BFEF790FC53EC192BFEF792FC53ECFC
:101C0000182BFEF78BFC1FE70000F07F00000000A0
:101C10000000000000005043645F09000000000065
:101C2000000000000000F03F763C7935EF39EA3DD6
:101C30000000E0FE422EE63F38A700000000000052
:101C4000555555555555D53F000000000000E03F63
:101C5000000000000000004086EBF9FFBAA500007C
:101C6000B0A5000070B504462DED028B4D1E00EBB3
:101C7000C500B0EE408AF0EE608A90ED000B35F0C2
:101C8000060017D053EC182B51EC100BFEF749FC53
:101C900041EC100B6D1E04EBC50090ED001B51ECE8
:101CA000100B53EC112BFEF795FB41EC100B35F0AC
:101CB0000600E7D1022D36D0042D1CD0062D1CBF06
:101CC000BDEC028B70BD53EC182B51EC100BFEF7E2
:101CD00028FC94ED0A1B53EC112BFEF77BFB53EC15
:101CE000182BFEF71EFC94ED081B53EC112BFEF78E
:101CF00071FB41EC100B53EC182B51EC100BFEF761
:101D000010FC94ED061B53EC112BFEF763FB53EC18
:101D1000182BFEF706FC94ED040B53EC102BFEF78A
:101D200059FB41EC100B53EC182B51EC100BFEF748
:101D3000F8FB94ED021B53EC112BFEF74BFB53EC1D
:101D4000182BFEF7EEFB94ED001B53EC112BFEF766
:101D500041FBBDEC028B41EC100B70BD000000009C
:101D60009FED070B10B553EC102B9FED070B51ECBB
:101D7000100BFEF748FC41EC100B10BD00000000FA
:101D80000000000000000000000000000000F03F24
:101D900010B553EC102B51EC100BFEF71BFB41EC74
:101DA000100B10BD000000009FED050B10B553ECAB
:101DB000102B51EC100BFEF726FC41EC100B10BD64
:101DC000000000000000000002E008C8121F08C167
:101DD000002AFAD170477047002001E001C1121FAC
:101DE000002AFBD1704700000149086070470000DD
:101DF000F40000202DE9FF5F82B00021DDE904300E
:101E0000020DDDF840B0034318D044F61050A2F2A2
:101E1000FF3242431514119801281FD0A5EB0B0087
:101E2000401C5FEA000A4FF000064E4FDFF8389181
:101E3000B046504615D5CAF1000413E011980124AC
:101E40004AA3012801D16FEA0B010298119AC0E957
:101E50000031C0E9024206B0BDE8F09FCBF10000BE
:101E6000DFE704460021404A491842EB0450CDE91F
:101E7000001012E0E00707D032463B464046494694
:101E8000FEF74FFB8046894632463B4610461946D0
:101E9000FEF747FB06460F466410002CEAD1DDE949
:101EA0000401DDE90023BAF1000F06DAFEF739FB81
:101EB00042464B46FEF735FB05E0FEF7A4FB4246E3
:101EC0004B46FEF7A0FB04460E460022284BFEF7C9
:101ED00065FC03D84FF0FF30014607E00022254B98
:101EE00020463146FEF776FAFEF7B1FD102409E0F0
:101EF000002C0ADB0A220023FEF79AFC039B3032F7
:101F00001A55641E50EA0102F2D1641C039AC4F10E
:101F100011031444119A012A03D0012208430DD160
:101F20000AE0084304D000204FF0110B119072E733
:101F3000A3EB0B056D1E0DE05B4504DD4FF00002C9
:101F400005F1010504E003DA4FF00002A5F10105F7
:101F5000002AECD002981199C0E90231C0E900458D
:101F600079E70000000014400000F03F300000005E
:101F70000000F0430000E03F2DE9FF4F95B09A4686
:101F8000884606460025EEE1252877D1002427461D
:101F9000F94A0121039400E0044316F8013F203B75
:101FA00001FA03F01042F7D130782A2811D06FF0EF
:101FB0002F033078A0F13002092A16D8039A44F092
:101FC000020402EB820203EB42021044761C0390EF
:101FD000EFE758F8042B0392002A03DA504244F446
:101FE0000054039044F00204761C30782E2816D159
:101FF00016F8010F44F004042A280DD06FF02F02C8
:102000003078A0F13003092B09D807EB870302EBE6
:102010004303C718761CF3E758F8047B761C307826
:102020006C280FD006DC4C2817D068280DD06A2801
:1020300014D104E0742810D07A280FD10DE044F4B4
:1020400000140AE044F4801401E044F4401472786F
:10205000824202D104F58014761C761C3078662802
:102060000BD013DC582877D009DC002875D0452820
:10207000F6D04628F4D047281AD193E118E0632817
:1020800035D0642879D0652812D18BE1702873D0BF
:1020900008DC6728F1D069286FD06E280DD06F2832
:1020A00006D1ACE073282CD0752874D0782853D092
:1020B0005246179990476D1C54E1C4F30250022810
:1020C00009D003280DD0D8F8001004280DD00D60D9
:1020D00008F1040846E1D8F80010EA17C1E90052F7
:1020E000F6E7D8F800100D80F2E70D70F0E718F869
:1020F000041B8DF8001000208DF80100EB46012034
:1021000003E058F804BB4FF0FF3061074FF00001C7
:1021100002D40DE009F101018946B9420FDA814587
:10212000F8DB1BF809100029F4D108E009F10101DE
:1021300089468142FADB1BF809100029F6D1039881
:102140005346A0EB090721463846179A00F080FA5B
:10215000284400EB090507E044E008E10DE01BF826
:10216000010B524617999047B9F10109F7D253462E
:1021700021463846179AF2E039E00A21C4F30252A8
:102180004FF0000B0091022A06D058F8040BC1173B
:10219000032A09D00AE023E008F1070020F0070233
:1021A000F2E80201904605E000B2C117042A01D10D
:1021B00040B2C117002906DA0A460021404261EB0D
:1021C00002012D2202E0220504D52B228DF80420E5
:1021D000012203E0E20701D02022F7E7914657E011
:1021E0000A2100E010214FF0000B00910BE01021BC
:1021F0004FF0000B44F004040827009103E008208E
:102200004FF0000B0090C4F30252022A05D058F898
:10221000040B0021032A08D008E008F1070020F091
:102220000702F2E80201904603E080B2042A00D1DE
:10223000C0B24FF0000922072AD53278702A07D0A1
:10224000DDF800C08CF0100C5CEA0B0C05D00EE041
:1022500040228DF80420012208E050EA010306D054
:1022600030238DF804308DF8052002229146009B22
:1022700083F0080353EA0B030AD150EA010201D1AB
:10228000620705D530228DF804204FF001097F1E2A
:102290003278582A04D039A20C920CAA02920BE090
:1022A0003BA2F9E75B46009AFEF7C2FA0C9B9B5CE7
:1022B000029A521E0292137050EA0102F2D1029861
:1022C00004A9081A00F1200B600702D524F4803419
:1022D00000E001275F4502DDA7EB0B0000E00020D6
:1022E00000EB0B01009003984944401A0390E0036F
:1022F00006D453462146179A039800F0A9F90544DD
:10230000002706E001A85246C05D179990476D1C52
:102310007F1C4F45F6DBE0030CD553462146179A48
:10232000039800F095F9054404E0302052461799CF
:1023300090476D1C0099481E00900029F5DC08E0CC
:102340000298029952460078491C029117999047C9
:102350006D1CBBF10001ABF1010BF1DC5BE100F0A6
:1023600065F90544761C307800287FF40DAE19B06D
:102370002846BDE8F08F00000928010030313233D3
:1023800034353637383961626364656600000000B1
:10239000303132333435363738394142434445469B
:1023A00000000000600700D4062708F1070020F0B5
:1023B0000700F0E80223804603F0004C5FEA0C00BF
:1023C00001D097A009E0200501D596A005E0E0071F
:1023D00001D095A001E0AFF24C001390307823F0CB
:1023E000004365280CD006DC452809D046281DD0BE
:1023F00047287FD13BE0662818D067287AD136E09D
:102400000021112F01DB112000E0781CCDE9000133
:1024100004A90CA8FFF7EEFCDDE90D010C9A4FF0C2
:10242000000B07F10109109200914EE04FF00040BF
:102430000097CDE9011004A90CA8FFF7DBFCDDE94A
:102440000D020C9B0F994FF0000B914610930092D8
:1024500011B9791C00EB0109B7EB090003D4C0F1F5
:10246000FF3B07F10109A9EB0700019042E0012FB2
:1024700000DA01270021112F01DD112000E038468C
:10248000CDE9000104A90CA8FFF7B4FCDDE90D01BA
:102490000C9A00914FF0000BB946109221070FD40F
:1024A000009A4A4503DA914601E0A9F10109B9F120
:1024B000010F05DD109AA9F10101515C3029F4D01A
:1024C000B84202DA10F1040F03DA0121CDE901105C
:1024D00010E0002803DC8344A9EB000102E0411C6A
:1024E000494500DD8946A0EB0B00401C01904FF0F0
:1024F00000400290200705D40198484502DB4FF0C8
:10250000FF30019000208DF84B0002980DF14B0731
:10251000B0F1004F25D002200C902B200D90029896
:1025200000280CDA404202902D200D9007E00A218D
:102530000298FEF767F93031029007F8011D0C99F7
:10254000481E0C900029F2DC02980028EFD1791E79
:102550000D980870307800F0200040F0450007F832
:10256000020D11A8C01BC01D02901398007800B185
:10257000012000EB0901019801EBE0710298014490
:102580000398401A401E0390E00306D453462146A8
:10259000179A039800F05CF805441398007818B176
:1025A0005246179990476D1CE00323D553462146A8
:1025B000179A039800F04CF805441BE0BBF1000F9C
:1025C00007DB0098584504DD1098179910F80B00A8
:1025D00001E0179930205246904701980BF1010B0A
:1025E000401E05F10105019004D12E205246179995
:1025F00090476D1CB9F10001A9F10109DEDC05E08D
:1026000017F8010B5246179990476D1C0299481E06
:1026100002900029F4DC53462146179A03989EE65F
:102620002D0000002B000000200000002DE9F041EB
:10263000044600251E461746880404D405E03946A2
:102640002020B0476D1C641EF9D52846BDE8F081F6
:102650002DE9F041044600251E469046C80301D5E9
:10266000302700E02027880404D505E0414638469D
:10267000B0476D1C641EF9D52846BDE8F081000006
:102680002DE9F041032002F0D7FA2F2002F0D4FA0E
:102690001D2002F0D1FA0F4E64254FF47A47741CC6
:1026A0003846A0476D1EFAD101211D2002F01CFB07
:1026B0000121032002F018FB01212F2002F014FB5E
:1026C00002F0E6F902F0A0FE02F0D0FEBDE8F04113
:1026D00002F0BEBE50C0000072B609480068C007D4
:1026E00000D000BEBFF34F8F0548E4380168054AAB
:1026F00001F4E06111430160BFF34F8F00BFFDE7BC
:10270000F0ED00E00400FA050EB500210091CDE9DE
:1027100001106A4644F20100FFF7DEFF0EBD00F033
:1027200003B800F009B8000072B602480168491CFD
:10273000016070476400002003490868401E08607B
:1027400000D162B6704700006400002002490844CE
:1027500090F93000704700000C04002010B50023F1
:1027600009E000BF00EBC30494ED000B02EBC304CF
:102770005B1C84ED000B8B42F4DB10BD10B5002315
:1027800009E0CC1A00EBC40414ED020B02EBC30405
:102790005B1C84ED000B8B42F3DB10BD2DE9FF4F7A
:1027A00000242DED028B83B0059801F0E7FE05466D
:1027B000FAA10598FDF7EAFD00287DD0F9A105985A
:1027C000FDF7E4FD0028F8D0F7A10598FDF7DEFD40
:1027D000002872D0F5A10598FDF7D8FD00286DD02E
:1027E000F3A10598FDF7D2FD002868D0F1A1059866
:1027F000FDF7CCFD00287DD0EFA10598FDF7C6FDC3
:10280000002878D0EDA10598FDF7C0FD002873D011
:10281000EBA10598FDF7BAFD00286ED0E9A1059857
:10282000FDF7B4FD002869D0E7A10598FDF7AEFDDE
:1028300000287DD0E6A10598FDF7A8FD002878D0F6
:10284000E5A10598FDF7A2FD002873D0E4A1059845
:10285000FDF79CFD00286ED0E3A10598FDF796FDDD
:10286000002869D0E2A10598FDF790FD00287DD0F1
:10287000E1A10598FDF78AFD002878D0E0A1059830
:10288000FDF784FD002873D0DFA10598FDF77EFDDC
:1028900000286ED0DEA10598FDF778FD002869D0EC
:1028A000DDA10598FDF772FD00287DD0DCA105981B
:1028B000FDF76CFD002803E09BE3B0E3CCE3E6E327
:1028C00073D0D9A10598FDF761FD00286ED0D8A17D
:1028D0000598FDF75BFD002869D0D7A10598FDF7A5
:1028E00055FD00287ED0D6A10598FDF74FFD0028A4
:1028F00079D004E0E4E3FAE3FAE3FAE3FAE3D2A1FD
:102900000598FDF743FD00286ED0D1A10598FDF78D
:102910003DFD002869D0D0A10598FDF737FD0028BE
:102920007ED0CFA10598FDF731FD002879D004E0D5
:10293000F8E3F8E3F8E3F8E3F8E3CBA10598FDF753
:1029400025FD00286ED0CAA10598FDF71FFD0028BF
:1029500069D0C9A10598FDF719FD00287ED0C8A14E
:102960000598FDF713FD002879D004E0F2E3F2E3C7
:10297000F2E3F2E3F2E3C4A10598FDF707FD0028B6
:102980006ED0C3A10598FDF701FD002869D0C2A152
:102990000598FDF7FBFC00287DD0C1A10598FDF747
:1029A000F5FC002878D003E0F0E3F0E3F0E3F0E397
:1029B000BDA10598FDF7EAFC00286ED0BCA10598E2
:1029C000FDF7E4FCDFF8F0B2010067D0BBA1059889
:1029D000FDF7DCFC0100ABF1100002907ED0B9A144
:1029E000059803E0D6E3D6E3D6E3D6E3FDF7CEFCC5
:1029F000002874D0B5A10598FDF7C8FC01000BF1C3
:102A0000F00A6DD0B3A10598FDF7C0FC0100AAF152
:102A1000100966D0B1A10598FDF7B8FC010003E0EC
:102A2000BCE3BCE3BCE3BCE3A9F110087ED0ADA1DC
:102A30000598FDF7ABFC002879D0ACA10598FDF70F
:102A4000A5FC08F51077002872D0AAA10598FDF71B
:102A50009DFCA7F1100600286BD003E0A2E3A2E3DF
:102A6000A2E3A2E3A5A10598FDF790FC0100A6F161
:102A7000100001907ED0A3A10598FDF787FC01000E
:102A8000A6F12000009076D0A0A10598FDF77EFC6D
:102A9000002871D003E089E389E389E389E39DA1FC
:102AA0000598FDF773FC002867D09CA10598FDF7F9
:102AB0006DFC002862D09BA10598FDF767FC0028FB
:102AC0005DD09AA10598FDF761FC002858D09AA125
:102AD0000598FDF75BFC002853D003E06AE36AE346
:102AE0006AE36AE397A10598FDF750FC002849D0F6
:102AF00097A10598FDF74AFC002844D097A10598B6
:102B0000FDF744FC00283FD097A10598FDF73EFC57
:102B100000283AD097A10598FDF738FC002835D059
:102B200097A10598FDF732FC002803E0FCE3FCE3E5
:102B3000FCE3FCE32BD095A10598FDF727FC0028CA
:102B400026D095A10598FDF721FC002821D095A15C
:102B50000598FDF71BFC00281CD095A10598FDF7F2
:102B600015FC002817D095A10598FDF70FFC00284B
:102B700012D029E1EFE3EFE3EFE3EFE3EFE3EFE37D
:102B8000EFE3EFE3EFE3EFE3EFE3EFE3EFE3EFE3B5
:102B9000EFE3EFE3EFE3EFE3EFE30000686161727F
:102BA000000000006462310064623200646233003D
:102BB0006462340064623500646236006462370027
:102BC00064623800646239006462313000000000E1
:102BD00064623131000000006462313200000000A4
:102BE0006462313300000000646231340000000090
:102BF000646231350000000064623136000000007C
:102C00006462313700000000646231380000000067
:102C1000646231390000000064623230000000005C
:102C20006462323100000000646232320000000051
:102C3000646232330000000064623234000000003D
:102C40006462323500000000646232360000000029
:102C50006462323700000000646232380000000015
:102C6000646232390000000064623330000000000A
:102C700064623331000000006462333200000000FF
:102C800064623333000000006462333400000000EB
:102C900064623335000000006462333600000000D7
:102CA00064623337000000006462333800000000C3
:102CB00062696F72312E310038B5000062696F723F
:102CC000312E330062696F72312E350062696F7286
:102CD000322E320062696F72322E340062696F7276
:102CE000322E360062696F72322E380062696F725E
:102CF000332E310062696F72332E330062696F7256
:102D0000332E350062696F72332E370062696F723D
:102D1000332E390062696F72342E340062696F722B
:102D2000352E350062696F72362E38007262696F17
:102D300072312E31000000007262696F72312E33E1
:102D4000000000007262696F72312E3500000000D1
:102D50007262696F72322E32000000007262696F17
:102D600072322E34000000007262696F72322E36A9
:102D7000000000007262696F72322E38000000009D
:102D80007262696F72332E31000000007262696FE7
:102D900072332E33000000007262696F72332E3579
:102DA000000000007262696F72332E37000000006D
:102DB0007262696F72332E39000000007262696FAF
:102DC00072342E3400000000FCA10598FDF7DEFAF5
:102DD00000287CD0FCA10598FDF7D8FA002877D010
:102DE000FCA10598FDF7D2FA9FEDFC8B002870D06E
:102DF000FCA10598FDF7CAFA00286BD0FBA1059845
:102E0000FDF7C4FA002866D0FAA10598FDF7BEFACE
:102E100000287DD0F9A10598FDF7B8FA002878D0F0
:102E2000F8A10598FDF7B2FA002873D0F7A105982C
:102E3000FDF7ACFA00286ED0F6A10598FDF7A6FACA
:102E4000002869D0F5A10598FDF7A0FA00287DD0EB
:102E5000F4A10598FDF79AFA002878D0F3A1059817
:102E6000FDF794FA002873D0F2A10598FDF78EFAC9
:102E700000286ED0F1A10598FDF788FA002869D0E6
:102E8000F0A10598FDF782FA00287DD0EFA1059802
:102E9000FDF77CFA002878D0EEA10598FDF776FAC8
:102EA000002873D0EDA10598FDF770FA00286ED0C8
:102EB000ECA10598FDF76AFA002869D0EBA1059806
:102EC000FDF764FA00287DD0EAA1059804E0F4E358
:102ED000F4E3F4E3F4E3F4E3FDF758FA002872D0E6
:102EE000E6A10598FDF752FA00286DD0E5A10598F6
:102EF000FDF74CFA002868D0E4A10598FDF746FAE2
:102F0000002874D0E3A10598FDF740FA002804E0FA
:102F1000FEE3FEE3FEE3FEE3FEE369D0DFA10598F6
:102F2000FDF734FA002877D0DEA10598FDF72EFAD8
:102F3000002872D0DDA10598FDF728FA00286DD091
:102F4000DCA10598FDF722FA002804E0E5E3E5E3BB
:102F5000E5E3E5E3E5E37BD0D8A10598FDF716FAB4
:102F6000002876D0D7A10598FDF710FA002871D077
:102F7000D6A10598FDF70AFA00286CD0D5A10598CE
:102F8000FDF704FA002804E0F4E3F4E3F4E3F4E3E7
:102F9000F4E378D0D1A10598FDF7F8F9002873D0B3
:102FA000D0A10598FDF7F2F900286ED0CFA10598C1
:102FB000FDF7ECF9002869D0CEA10598FDF7E6F9F8
:102FC000002803E0FEE3FEE3FEE3FEE376D0CBA1C0
:102FD0000598FDF7DBF9002871D0CAA0FEF74CFC7C
:102FE00003B0601EBDEC028B04B0BDE8F08FEDE3D2
:102FF000EDE32946CA48069AFFF7C0FB2946C848B0
:10300000079A02F074F92946C548089AFFF7A6FB0B
:103010002946C348129A18E0F1E3F1E3F1E3C0480E
:1030200029461030069AFFF7A9FBBD482946103003
:10303000079A02F05CF9BA4829461030089AFFF75F
:103040008DFBB74829461030129A02F033F9FDE3A0
:10305000FDE3FDE3FDE3FDE3B14829463030069A88
:10306000FFF78CFBAE4829463030079A02F03FF953
:10307000AB4829463030089AFFF770FBA84829462C
:103080003030129AE1E7E6E3E6E3E6E3E6E3A4485C
:1030900029466030069AFFF771FBA1482946603047
:1030A000079A02F024F99E4829466030089AFFF7F3
:1030B00055FB9B4829466030129AC6E7F8E3F8E3CF
:1030C00097482946A030069AFFF758FB94482946AE
:1030D000A030079A02F00BF991482946A030089ACF
:1030E000FFF73CFB8E482946A030129AADE702E07C
:1030F0001DE034E01CE18A482946F030069AFFF7CB
:103100003DFB87482946F030079A02F0F0F88448E2
:103110002946F030089AFFF721FB81482946F03014
:10312000129A92E72AE140E152E168E17AE1294608
:103130007C48069AFFF722FB29467A48079A02F054
:10314000D6F829467748089AFFF708FB29467548BC
:10315000129A7AE77DE18FE1A5E1B7E1C9E1714813
:1031600029467030069AFFF709FB6E4829467030F1
:10317000079A02F0BCF86B4829467030089AFFF7AE
:10318000EDFA684829467030129A5EE7C4E1D6E14C
:10319000E8E1FAE10CE21EE230E242E254E266E2E9
:1031A00078E28FE2A1E2EAE2FCE215E32AE33CE303
:1031B00058E36AE37EE392E3A8E3BAE37262696FDD
:1031C00072352E35000000007262696F72362E383B
:1031D00000000000636F696631000000CD3B7F6630
:1031E0009EA0F63F636F696632000000636F6966F8
:1031F00033000000636F696634000000636F696626
:1032000035000000636F696636000000636F696611
:1032100037000000636F696638000000636F6966FD
:1032200039000000636F696631300000636F6966C2
:1032300031310000636F696631320000636F696687
:1032400031330000636F696631340000636F696673
:1032500031350000636F696631360000636F69665F
:103260003137000073796D320000000073796D33DF
:103270000000000073796D340000000073796D3533
:103280000000000073796D360000000073796D371F
:103290000000000073796D380000000073796D390B
:1032A0000000000073796D313000000073796D31DA
:1032B0003100000073796D313200000073796D3197
:1032C0003300000073796D313400000073796D3183
:1032D0003500000073796D313600000073796D316F
:1032E0003700000073796D313800000073796D315B
:1032F0003900000073796D32300000006D6579652A
:10330000720000000A2046696C746572204E6F746A
:1033100020696E204461746162617365200A000057
:10332000085D0000585E000018E32CE342E354E31C
:103330002946FC48069AFFF721FA2946F948079AD8
:1033400001F0D5FF2946F748089AFFF707FA294602
:10335000F448129A79E655E369E37DE391E3A7E344
:10336000BBE3D1E3E3E3F7E3F7E3F7E3F7E3F7E303
:10337000F7E3F7E3F7E3F7E3F7E3F7E3E948294691
:103380009030069AFFF7FAF9E64829469030079AF6
:1033900001F0ADFFE34829469030089AFFF7DEF9C7
:1033A000E04829469030129A4FE62946DE48069AB0
:1033B000FFF7E4F92946DC48079A01F098FF29460F
:1033C000D948089AFFF7CAF92946D748129A3CE625
:1033D000D5482946B030069AFFF7D0F9D248294699
:1033E000B030079A01F083FFCF482946B030089AE1
:1033F000FFF7B4F9CC482946B030129A25E62946A1
:10340000CA48069AFFF7BAF92946C848079A01F050
:103410006EFF2946C548089AFFF7A0F92946C34818
:10342000129A12E6C1482946D030069AFFF7A6F94B
:10343000BE482946D030079A01F059FFBB482946BB
:10344000D030089AFFF78AF9B8482946D030129A46
:10345000FBE52946B648069AFFF790F92946B44895
:10346000079A01F044FF2946B148089AFFF776F918
:103470002946AF48129AE8E5AD482946F030069A49
:10348000FFF77CF9AA482946F030079A01F02FFF90
:10349000A7482946F030089AFFF760F9A448294662
:1034A000F030129AD1E52946A248069AFFF766F94C
:1034B0002946A048079A01F01AFF29469D48089A14
:1034C000FFF74CF929469B48129ABEE529469A48CF
:1034D000069AFFF753F929469748079A01F007FF24
:1034E00029469548089AFFF739F929469248129AD1
:1034F000ABE529469148069AFFF740F929468F48DF
:10350000079A01F0F4FE29468C48089AFFF726F93D
:1035100029468A48129A98E529468948069AFFF76B
:103520002DF929468648079A01F0E1FE294684488C
:10353000089AFFF713F929468148129A85E529462A
:103540008048069AFFF71AF929467E48079A01F043
:10355000CEFE29467B48089AFFF700F929467948AC
:10356000129A72E529467848069AFFF707F9294624
:103570007548079A01F0BBFE29467348089AFFF781
:10358000EDF829467048129A5FE529466F48069A79
:10359000FFF7F4F829466D48079A01F0A8FE29467E
:1035A0006A48089AFFF7DAF829466848129A4CE503
:1035B00029466748069AFFF7E1F829466448079AC2
:1035C00001F095FE29466248089AFFF7C7F8294698
:1035D0005F48129A39E529465E48069AFFF7CEF809
:1035E00029465C48079A01F082FE29465948089A04
:1035F000FFF7B4F829465748129A26E52946564857
:10360000069AFFF7BBF829465348079A01F06FFE68
:1036100029465148089AFFF7A1F829464E48129AC0
:1036200013E529464D48069AFFF7A8F829464B4866
:10363000079A01F05CFE29464848089AFFF78EF881
:1036400029464648129A00E529464548069AFFF75A
:1036500095F829464248079A01F049FE2946404814
:10366000089AFFF77BF829463D48129AEDE429466F
:103670003C48069AFFF782F829463A48079A01F033
:1036800036FE29463748089AFFF768F82946354834
:10369000129ADAE429463448069AFFF76FF8294669
:1036A0003148079A01F023FE29462F48089AFFF770
:1036B00055F829462C48129AC7E456E36AE37EE39C
:1036C000B5E3CFE329462948069AFFF757F829467C
:1036D0002648079A01F00BFE29462448089AFFF76E
:1036E0003DF829462148129AAFE429462048069A17
:1036F000FFF744F829461E48079A01F0F8FD2946CD
:103700001B48089AFFF72AF829461948129A9CE4A0
:10371000C4E3DDE3F8E3F8E3F8E3F8E3F8E3F8E320
:10372000F8E3F8E3485F000078600000E86100001B
:10373000986300008865000098660000B867000084
:10374000E8680000286A0000786B0000D86C000070
:10375000486E0000C86F000058710000F872000049
:10376000A87400006876000038780000187A00001D
:10377000087C0000F4E3F4E3F4E3F4E3F4E3294623
:10378000FB48069AFEF7FAFF2946F948079A01F026
:10379000AEFD2946F648089AFEF7E0FF2946F448B0
:1037A000129A52E42946F348069AFEF7E7FF2946A3
:1037B000F048079A01F09BFD2946EE48089AFEF76B
:1037C000CDFF05E0F6E3F6E3F6E3F6E3F6E3F6E332
:1037D0002946E848129A38E42946E748069AFEF74F
:1037E000CDFF2946E448079A01F081FD2946E248C9
:1037F000089AFEF7B3FF2946DF48129A25E4F9E359
:10380000F9E3F9E32946DD48069AFEF7B7FF2946B2
:10381000DA48079A01F06BFD2946D848089AFEF766
:103820009DFF2946D548129A0FE42946D448069AA6
:10383000FEF7A4FF2946D248079A01F058FD294611
:10384000CF48089AFEF78AFF294608E0E8E2EFE34E
:10385000EFE3EFE3EFE3EFE3EFE3EFE3EFE3C8489A
:10386000129A0FE42946C748069AFEF787FF2946B1
:10387000C448079A01F03BFD2946C248089AFEF762
:103880006DFF2946BF48129A17E42946BE48069A9A
:10389000FEF774FF29465846079A01F028FD29468D
:1038A0005846089AFEF75AFF2946B748129A04E488
:1038B000FAE3FAE3B44829461030069AFEF75EFFB1
:1038C0002946079A029801F012FD2946089A0298A3
:1038D000FEF744FFAC4829461030129A06E4AA4885
:1038E00029464030069AFEF749FFA7482946503836
:1038F000079A01F0FCFCA44829465038089AFEF7C4
:103900002DFFA14829464030129A0AE429469F48D3
:10391000069AFEF733FF29465046079A01F0E7FC66
:1039200029465046089AFEF719FF29469748129AE9
:103930000FE4964829463030069AFEF71FFF2946C5
:103940004846079A01F0D3FC29464846089AFEF7F4
:1039500005FF8E4829463030129A16E48B482946D6
:103960008030069AFEF70AFF29464046079A01F082
:10397000BEFC29464046089AFEF7F0FE83482946D9
:103980008030129AE6E481482946F030069AFEF724
:10399000F5FE7D4829469030079A01F0A8FC7A4848
:1039A00029469030089AFEF7D9FE78482946F0302B
:1039B000129ACFE429467648069AFEF7DFFE29469A
:1039C0003846079A01F093FC29463846089AFEF7D4
:1039D000C5FE29466E48129ABCE46D48294620303F
:1039E000069AFEF7CBFE29463046079A01F07FFC87
:1039F00029463046089AFEF7B1FE65482946203030
:103A0000129AA7E4624829466030069AFEF7B6FE8D
:103A10002946079A019801F06AFC2946089A0198FC
:103A2000FEF79CFE5A4829466030129A92E45848A4
:103A30002946C030069AFEF7A1FE2946079A00984B
:103A400001F055FC2946089A0098FEF787FE504879
:103A50002946C030129A7DE429464E48069AFEF760
:103A60008DFE4B482946A038079A01F040FC484893
:103A70002946A038089AFEF771FE29464548129A51
:103A800068E444482946F030069AFEF777FE41483C
:103A90002946A030079A01F02AFC3E482946A0306A
:103AA000089AFEF75BFE3B482946F030129A51E433
:103AB00029463948069AFEF761FE3748294660389C
:103AC000079A01F014FC344829466038089AFEF73A
:103AD00045FE29463048129A3CE42F482946F030EA
:103AE000069AFEF74BFE2C4829466030079A01F0F3
:103AF000FEFB294829466030089AFEF72FFE26482B
:103B00002946F030129A25E429465846069AFEF7CF
:103B100035FE29461C48079A01F0E9FB29461A4858
:103B2000089AFEF71BFE29465846129A12E42946C7
:103B3000069A0298FEF722FE134829461030079A8B
:103B400001F0D5FB104829461030089AFEF706FE12
:103B50002946129A029827E420E034E046E05AE031
:103B60006EE084E096E0AAE0BEE0D2E0E6E000008D
:103B7000087E000018800000388200006884000081
:103B8000A8860000F888000068B5000088B600002C
:103B9000A8B80000E8B9000088BB00002946FB482F
:103BA000069AFEF7EBFDF94829469030079A01F096
:103BB0009EFBF64829469030089AFEF7CFFD29462D
:103BC000F248129A1AE429465046069AFEF7D6FDA4
:103BD0002946EF48079A01F08AFB2946EC48089AE3
:103BE000FEF7BCFD29465046129A07E4294648468E
:103BF000069AFEF7C3FDE64829463030079A01F0E1
:103C000076FBE34829463030089AFEF7A7FD29469F
:103C10004846129A05E429464046069AFEF7AEFD4C
:103C2000DB4829468030079A01F061FBD8482946D5
:103C30008030089AFEF792FD29464046129A07E422
:103C4000D34829469038069AFEF798FDD048294671
:103C5000F030079A01F04BFBCD482946F030089A26
:103C6000FEF77CFDCA4829469038129A1AE4294684
:103C70003846069AFEF782FD2946C648079A01F0A3
:103C800036FB2946C348089AFEF768FD29463846A0
:103C9000129A07E429463046069AFEF76FFDBD48A2
:103CA00029462030079A01F022FBBA4829462030E5
:103CB000089AFEF753FD29463046129A05E4294634
:103CC000069A0198FEF75AFDB24829466030079AD5
:103CD00001F00DFBAF4829466030089AFEF73EFD23
:103CE0002946129A019816E42946069A0098FEF78A
:103CF00045FDA8482946C030079A01F0F8FAA548C2
:103D00002946C030089AFEF729FD2946129A0098E4
:103D100014E4A0482946A038069AFEF72FFD29464C
:103D20009D48079A01F0E3FA29469B48089AFEF756
:103D300015FD98482946A038129A12E4964829465B
:103D4000A030069AFEF71AFD93482946F030079AEC
:103D500001F0CDFA90482946F030089AFEF7FEFCB3
:103D60008D482946A030129A0EE429468B48069ABF
:103D7000FEF704FD894829466030079A01F0B7FA3A
:103D8000864829466030089AFEF7E8FC29468348B1
:103D9000129A0CE481482946C030069AFEF7EEFCE0
:103DA00029467F48079A01F0A2FA29467C48089ADA
:103DB000FEF7D4FC7A4829469038129A0AE4E800C3
:103DC00000F0A4FE0746024629467648FEF7C6FCE8
:103DD0000DE000BF07EBC40653EC182B96ED000B6B
:103DE00051EC100BFCF79DFBC6E90001641CAC42D2
:103DF000F0DB29463846069AFEF7C0FC29463846CD
:103E0000079A01F074FA29463846089AFEF7A6FC8C
:103E100029463846129A01F04DFA384600F0C2FDA4
:103E200003B02846BDEC028B04B0BDE8F08FE8007B
:103E300000F06CFE074602465A4829463030FEF72D
:103E40008DFC0CE007EBC40653EC182B96ED000B31
:103E500051EC100BFCF765FBC6E90001641CAC4299
:103E6000F0DBC6E7E80000F051FE074602464D4889
:103E700029469030FEF772FC0DE000BF07EBC40648
:103E800053EC182B96ED000B51EC100BFCF749FB93
:103E9000C6E90001641CAC42F0DBAAE7E80000F0D0
:103EA00035FE0746024629463F48FEF757FC0CE020
:103EB00007EBC40653EC182B96ED000B51EC100BDE
:103EC000FCF72FFBC6E90001641CAC42F0DB90E775
:103ED000E80000F01BFE0746024633482946C03082
:103EE000FEF73CFC0DE000BF07EBC40653EC182BBB
:103EF00096ED000B51EC100BFCF713FBC6E900012B
:103F0000641CAC42F0DB74E706E01FE058E074E0AC
:103F100096E0AFE0CAE0E3E0E80000F0F7FD074616
:103F2000024629462148FEF719FC0CE007EBC406BF
:103F300053EC182B96ED000B51EC100BFCF7F1FA3B
:103F4000C6E90001641CAC42F0DB52E7E80000F077
:103F5000DDFD0746024629461548FEF7FFFB12E045
:103F6000D8E0F1E00AE123E13CE100BF07EBC40641
:103F700053EC182B96ED000B51EC100BFCF7D1FA1B
:103F8000C6E90001641CAC42F0DB32E718B5000062
:103F900088B60000A8B80000E8B9000028BB0000FF
:103FA00078BC0000588B0000788C0000288E000040
:103FB000488F000029E13FE155E16BE181E193E1A8
:103FC000E80000F0A3FD074602462946FC48FEF73C
:103FD000C5FB0CE007EBC40653EC182B96ED000B69
:103FE00051EC100BFCF79DFAC6E90001641CAC42D1
:103FF000F0DBFEE68FE1A5E1B7E1E80000F086FD29
:10400000074602462946EF48FEF7A8FB0DE000BF31
:1040100007EBC40653EC182B96ED000B51EC100B7C
:10402000FCF77FFAC6E90001641CAC42F0DBE0E675
:10403000B2E1E1E1F3E109E21BE231E243E255E200
:10404000E80000F063FD074602462946DE48FEF719
:1040500085FB0CE007EBC40653EC182B96ED000B28
:1040600051EC100BFCF75DFAC6E90001641CAC4290
:10407000F0DBBEE6E80000F049FD074602462946AF
:10408000D248FEF76BFB0CE007EBC40653EC182B91
:1040900096ED000B51EC100BFCF743FAC6E900015A
:1040A000641CAC42F0DBA4E633E245E2E80000F039
:1040B0002DFD074602462946C548FEF74FFB0CE09A
:1040C00007EBC40653EC182B96ED000B51EC100BCC
:1040D000FCF727FAC6E90001641CAC42F0DB88E675
:1040E000E80000F013FD074602462946B948FEF7EE
:1040F00035FB0CE007EBC40653EC182B96ED000BD8
:1041000051EC100BFCF70DFAC6E90001641CAC423F
:10411000F0DB6EE6E80000F0F9FC074602462946AF
:10412000AD48FEF71BFB0CE007EBC40653EC182B65
:1041300096ED000B51EC100BFCF7F3F9C6E900010A
:10414000641CAC42F0DB54E6E80000F0DFFC0746FC
:1041500002462946A148FEF701FB0CE007EBC40626
:1041600053EC182B96ED000B51EC100BFCF7D9F922
:10417000C6E90001641CAC42F0DB3AE6E80000F05E
:10418000C5FC0746024629469548FEF7E7FA0CE0CB
:1041900007EBC40653EC182B96ED000B51EC100BFB
:1041A000FCF7BFF9C6E90001641CAC42F0DB20E675
:1041B000E80000F0ABFC0746024629468948FEF7B6
:1041C000CDFA0CE007EBC40653EC182B96ED000B70
:1041D00051EC100BFCF7A5F9C6E90001641CAC42D8
:1041E000F0DB06E629468048069AFEF7C7FA29461C
:1041F0007D48079A01F07BF829467B48089AFEF72C
:10420000ADFA29467848129A10E4774829462030BA
:10421000069AFEF7B3FA744829462030079A01F04F
:1042200066F8714829462030089AFEF797FA6E48DA
:1042300029462030129A0EE46B4829465030069ADF
:10424000FEF79CFA684829465030079A01F04FF86B
:10425000654829465030089AFEF780FA6248294698
:104260005030129A0CE4604829469030069AFEF7C6
:1042700085FA5D4829469030079A01F038F85A4887
:1042800029469030089AFEF769FA57482946903037
:10429000129A0CE454482946E030069AFEF76EFA6A
:1042A00051482946E030079A01F021F84E48294646
:1042B000E030089AFEF752FA4B482946E030129A4D
:1042C0000AE429464948069AFEF758FA294647481B
:1042D000079A01F00CF829464448089AFEF73EFA7E
:1042E00029464248129A0EE4404829467030069A00
:1042F000FEF744FA3D4829467030079A00F0F7FF70
:104300003A4829467030089AFEF728FA3748294675
:104310007030129A0AE435482946F030069AFEF7C2
:104320002DFA32482946F030079A00F0E0FF2F4876
:104330002946F030089AFEF711FA2C482946F03049
:10434000129A08E429462A48069AFEF717FA2946DF
:104350002748079A00F0CBFF29462548089AFEF720
:10436000FDF929462248129A2CE421482946A0301A
:10437000069AFEF703FA1E482946A030079A00F075
:10438000B6FF1B482946A030089AFEF7E7F91848FF
:104390002946A030129A15E429461648069AFEF7D7
:1043A000EDF929461348079A00F0A1FF2946114864
:1043B000089AFEF7D3F929460E48129A15E4000030
:1043C0009890000018920000C8930000A895000083
:1043D000B8970000F8990000689C0000089F000052
:1043E000D8A10000D8A4000008A8000048A9000037
:1043F000C8AA000018AC000029465948069AFEF7E2
:10440000BDF929465648079A00F071FF29465448DD
:10441000089AFEF7A3F929465148129A0FE450482A
:104420002946D030069AFEF7A9F94D482946D030E2
:10443000079A00F05CFF4A482946D030089AFEF7F8
:104440008DF947482946D030129A0FE4294645484D
:10445000069AFEF793F929464248079A00F047FF6B
:1044600029464048089AFEF779F929463D48129AAC
:104470000FE43C482946F030069AFEF77FF93948A8
:104480002946F030079A00F032FF36482946F030CE
:10449000089AFEF763F933482946F030129A0DE482
:1044A00029463148069AFEF769F929462E48079AA7
:1044B00000F01DFF29462C48089AFEF74FF92946BF
:1044C0002948129A0FE429462848069AFEF756F919
:1044D00029462648079A00F00AFF29462348089AE9
:1044E000FEF73CF929462148129A11E42946204852
:1044F000069AFEF743F929461D48079A00F0F7FE91
:1045000029461B48089AFEF729F929461848129AA5
:1045100013E429461748069AFEF730F9294615484C
:10452000079A00F0E4FE29461248089AFEF716F9A9
:1045300029461048129A17E429460F48069AFEF7B2
:104540001DF929460C48079A00F0D1FE29460A4871
:10455000089AFEF703F929460748129A04E4000076
:10456000D8AC000088AE000078B0000088B1000030
:10457000A8B20000D8B3000008BD00002DE9F0414A
:104580000546FBF7FCFE0446A6A12846FBF7FEFE07
:1045900000287BD0A5A12846FBF7F8FE0028F8D01C
:1045A0004FF0FF37022C1CDDA1A12846FBF7D5FEFA
:1045B000B8B1601E00F0AAFA06460220641C04E0AE
:1045C000295C3218401C02F8021CA042F8DB30467D
:1045D000FBF7F3FE0446304600F0E4F9262C7DDCC0
:1045E00011E194A12846FBF7D1FE0028D1D093A178
:1045F0002846FBF7CBFE002871D092A12846FBF796
:10460000C5FE00286CD091A12846FBF7BFFE00280C
:10461000F2D090A12846FBF7B9FE0028F2D08FA176
:104620002846FBF7B3FE00287AD08EA12846FBF778
:10463000ADFE002875D08DA12846FBF7A7FE002807
:1046400070D08CA12846FBF7A1FE00286BD08BA16F
:104650002846FBF79BFE002866D08AA12846FBF778
:1046600095FE00287ED089A12846FBF78FFE002802
:1046700079D088A12846FBF789FE0028C2D087A1FF
:104680002846FBF783FE0028E6D000E072E085A113
:104690002846FBF77BFE00287FD084A12846FBF745
:1046A00075FE002866D084A12846FBF76FFE00281F
:1046B00063D084A12846FBF769FE002869D084A155
:1046C0002846FBF763FE002857D084A12846FBF755
:1046D0005DFE00285DD084A1284602E09AE04CE00F
:1046E00057E0FBF753FE002849D082A12846FBF78C
:1046F0004DFE002851D082A12846FBF747FE88B125
:1047000082A12846FBF742FE68B183A12846FBF749
:104710003DFE48B183A12846FBF738FE10B304E004
:104720002DE03AE02DE02EE035E081A12846FBF7B0
:104730002DFEC0B181A12846FBF728FE48B382A117
:104740002846FBF723FE30B382A12846FBF71EFE66
:1047500018B3042C38DD82A12846FBF7FEFD90B388
:10476000E01E01E011E012E000F0D0F9064604205E
:10477000641C19E00220BDE8F0810620FBE70E2052
:10478000F9E70420F7E70820F5E71020F3E7142005
:10479000F1E70A20EFE70C20EDE71220EBE7295CB8
:1047A0003218401C02F8041CA042F8DB3046FBF72C
:1047B00004FE0446304600F0F5F8112C2ADC04EB28
:1047C00044004000D7E7FFE7032C1EDD66A1284622
:1047D000FBF7C3FDC8B1A01E00F098F90646032000
:1047E000641C04E0295C3218401C02F8031CA0423F
:1047F000F8DB3046FBF7E1FD0446304600F0D2F826
:10480000A01E132806D26000B5E758A12846FBF782
:10481000BDFD20B157A0FDF72FF83846ABE7662065
:10482000A9E7000068616172000000006462310065
:104830006462000062696F72312E310062696F72CA
:10484000312E330062696F72312E350062696F72EA
:10485000322E320062696F72322E340062696F72DA
:10486000322E360062696F72322E380062696F72C2
:10487000332E310062696F72332E330062696F72BA
:10488000332E350062696F72332E370062696F72A2
:10489000332E390062696F72342E340062696F7290
:1048A000352E350062696F72362E38007262696F7C
:1048B00072312E31000000007262696F72312E3346
:1048C000000000007262696F72312E350000000036
:1048D0007262696F72322E32000000007262696F7C
:1048E00072322E34000000007262696F72322E360E
:1048F000000000007262696F72322E380000000002
:104900007262696F72332E31000000007262696F4B
:1049100072332E33000000007262696F72332E35DD
:10492000000000007262696F72332E3700000000D1
:104930007262696F72332E39000000007262696F13
:1049400072342E34000000007262696F72352E35A9
:10495000000000007262696F72362E38000000009D
:10496000636F69660000000073796D006D6579659D
:10497000720000000A2046696C746572204E6F74E4
:1049800020696E204461746162617365200A0000D1
:1049900038B504468DF8000069460320ABBE2046BA
:1049A00038BD000010B5002821D0114B0022001F97
:1049B000196803E0814203D80A4649680029F9D101
:1049C00052B11368841A9C4204D1006818441060E4
:1049D000104602E0506000E0186039B102680B1A1E
:1049E000934203D10B681A4402604968416010BDCC
:1049F000EC0000202DE9F0411746884606460024C9
:104A000017E000BF4FF4A07000EB84054FF4803036
:104A10007159A04059B1D6F80413014207D0294674
:104A2000304600F0B1F9D8E9002128469047641CCF
:104A3000E4B2BC42E6D3BDE8F08100000121814030
:104A400003484068014201D00120704700207047B0
:104A50005000002001218140080300D00120704750
:104A60000A48F0EE400A0178012903D100210170C3
:104A7000C0ED050A90ED050A90ED041A70EEC00A2B
:104A800001EE200A80ED050A70470000A00000201A
:104A900010B5164C2DED048BA068FBF753FE41ECCE
:104AA000180B6068FBF74EFE41EC190BE068FBF752
:104AB00049FE9FED0F1B53EC112BFBF732FD53EC1E
:104AC000192BFBF72EFD53EC182BFBF72AFDFBF7F8
:104AD0007DFE00EE100AF7EE000A70EE200A80EE6E
:104AE000201A84ED041ABDEC048B10BDA000002038
:104AF0000000000000000040FDF7C2FDFCF700FBD5
:104B0000014800F06BF8FEE7F8000020F0B50B302C
:104B1000154D20F007010024144A0FE003688B4272
:104B20000BD38B4205D95E1A43184768C3E9006767
:104B300000E04368136002C004E0021D1068002812
:104B4000ECD12046002802D1286808B10020F0BD31
:104B5000064A07481060074A121A22F00702C0E905
:104B6000002401202860D7E7F0000020EC0000209E
:104B70000C0600200826002010B50021C26A0B4652
:104B8000541CF2EE040A1CD000EB820190ED0A1ACC
:104B9000D1ED001A31EE611A80ED0A1A81ED000A9A
:104BA00090ED0A1A31EE000A80ED0A0AC16A491C2A
:104BB000C1620A2900DBC362B0EE401A81EE200A0E
:104BC00010BD00EB8102491C82ED000A0A29F8DBC6
:104BD00020EE200A80ED0A0AEDE700004FF0FF31D9
:104BE0009FED020AC16280ED0A0A704700000000D2
:104BF000C20800F007030120895C98400840704714
:104C000000F180400068002800D00120704708B5FE
:104C100000F18040002101600068009008BD0000A4
:104C20000448017809B185207047012101700020F6
:104C3000704700005800002008B50090684600F05A
:104C400045F8009A032100EB8200C0F8001708BD68
:104C500013B50C46684600F02BF8009900EB810173
:104C6000D1F8002722F44032C1F80027009900EB68
:104C70008100D0F8001741EA0441C0F800171CBDBC
:104C80003CB50A4CD4E90034CDE900346B464418F5
:104C900008E000BF53F82010D1F8205520C2C1F819
:104CA0002055401C8442F5D83CBD0000FC5C00004F
:104CB0000168202902D24FF0A040704701F01F0187
:104CC000016001487047000000030050016820297E
:104CD00002D24FF0A040704701F01F01016001486F
:104CE000704700000003005038B50124009068466A
:104CF00031B1FFF7EBFF00998C40C0F8084538BD93
:104D0000FFF7E4FF00998C40C0F80C4538BD000067
:104D1000034908B50844002101600068009008BDFF
:104D20000060004002494058012800D00020704730
:104D30000060004008B5002242504058009008BD75
:104D4000024A1060101D0160704700002C76004080
:104D5000030103481844C0F81425C0F81015704723
:104D60000070004002494058002800D001207047E0
:104D700000700040034908B5084400220260006842
:104D8000009008BD0070004008B500224250405815
:104D9000009008BD4058002800D00120704708B599
:104DA000002242504058009008BD00002DE9F04715
:104DB0000427144E814600244FF001080020FDF71F
:104DC000AEFC08FA04F5354203D02046FFF736FE64
:104DD00058B10020FDF7A5FC27B104F10104AE4352
:104DE000E4B2EBD13846BDE8F087074908FA04F091
:104DF00000274A681043486089F800403846FDF7AC
:104E000090FCEFE7FFFF0F00500000202DE9F0417C
:104E100014460D00074612D08CB10026FFF71AFE8B
:104E200078B13846FFF70AFE68B1084800EBC700C2
:104E3000C0F81055C0F814453046BDE8F0810E208A
:104E4000FBE70726F8E70826F6E7000000F0014038
:104E500070B5044601260025A640FFF7FBFD18B1FA
:104E60002046FFF7EBFD18B102480660284670BDEA
:104E70000825FBE704F501402DE9F041254C0646E5
:104E800012200D46C4F808032348017C022918D0DB
:104E9000027C01464FF4807891F82E10012A12D03E
:104EA0000222C4F80423012707744660058100220A
:104EB000C26021B3458390F82D103046FFF740FFC4
:104EC00025E0122002E0C2682AB10220C4F80403DF
:104ED0001120BDE8F081C660058361B947463846B8
:104EE000FFF740FF0028FAD03846FFF743FF294676
:104EF0003046FFF725FF0220C4F8040307E02946E7
:104F00003046FFF71DFF4046FFF734FF27600020C3
:104F1000DFE700000070004078040020204A10B550
:104F2000137C0BB1112010BD02EB40031C7F1CB998
:104F300012F82D4F641C1470CA791A770A7A5A77BE
:104F40000A784B78302402F0030204EA03131A4370
:104F50008B784FF4E06404EA03231A43CB784FF4D0
:104F6000805404EA03331A430B794FF4E02404EA33
:104F700003431A434B794FF4801404EA03531A4352
:104F80008B79240104EA0363064C1A4304EB0013F3
:104F9000C3F818250A7AC979FFF7DAFE002010BD98
:104FA00078040020007000402DE9F0411F4C0546B8
:104FB00094F82C0010B10820BDE8F08144F8101BD3
:104FC0001B4928780860091D68780860E878A07790
:104FD000012727770020207060776060154EE0770A
:104FE0006FF00040C6F808034FF48270FFF7C2FE6E
:104FF000B015FFF7BFFE4FF48A70FFF7BBFEA8782D
:105000000D49400181F800048020C91FC1F800014A
:105010000220C6F80403A07F10B10120C6F80403E3
:105020000348F03807600020C6E70000780400203D
:10503000F07500400070004007E000E0044890F880
:105040002E0008B1002000E0042002490844704707
:1050500078040020007000402DE9F04106460D461E
:105060004FF4803400681746AC404BB14FF4A07148
:1050700001EB8501FFF788FE3068C0F8044301E0CA
:10508000C0F80843306800EB8500C0F84075BDE803
:10509000F0810000016801220A600079034A00EBF8
:1050A000400002EB8000022101727047A80400203A
:1050B000F0B40468049E40F20115D4F800728D40EB
:1050C000AF43C4F800720468D4F800521D43C4F81A
:1050D00000523346F0BCFFF7BFBF00002DE9F0419E
:1050E00004460E4600792C4900EB400001EB800796
:1050F000387A10B10820BDE8F0813A607068002568
:105100004FF4A078786006E008EB85012068FFF78F
:105110003BFE6D1CEDB26079A842F5D82068F178AD
:1051200040F3073000284FEA411104DB00F1E02092
:1051300080F8001405E000F00F0000F1E02080F896
:10514000141D2068012140F30730002809DB00F01E
:105150001F0201FA02F24009800000F1E020C0F8CD
:10516000002120687278D0F8043562F30103C0F89A
:1051700004352068B278D0F8083562F30103C0F82E
:10518000083520683278D0F8103562F30303C0F890
:10519000103539720020AEE7A804002003490860EA
:1051A000034801680029FCD07047000004E5014075
:1051B00000E401402DE9F84F314F05464FF0010959
:1051C0000024381990F96010491C46D090F860000E
:1051D000294620F0C0063046FFF70AFD70B320468E
:1051E00000F050F8824668460096FFF761FD00998E
:1051F00000EB8100D0F80007C0F30148B8F1020FBE
:105200001DD002213046FFF723FD68460096FFF7C8
:105210004FFD009A09FA02F1C0F820153046FDF75B
:1052200095FA57F820204AB15046BAF1030F11D031
:10523000B8F1020F05D0B8F1030F07D00DE003213C
:10524000E0E75046BAF1010F04D006E05046BAF14B
:10525000020F02D1014630469047641C042CB0D3A3
:105260002A4602210020FFF70BFD002055F82010F0
:105270000029A5D1401C0228F8D3BDE8F88F000012
:105280000C0400200249084490F86000800970472F
:105290000C0400200648416B096829B1416BC968BC
:1052A000C9684968816270474FF0FF31FAE7000032
:1052B0000C0000202DE9F04117460D4680460024E1
:1052C00011E0291B08EBC10007EBC40610ED020B2F
:1052D000E00786ED000B05D051EC100B81F000418A
:1052E000C6E90001641CAC42EBDBBDE8F0812DE9AE
:1052F000F041074616460D46C800FFF707FC044676
:10530000024629463846FFF7D5FF32462946204651
:10531000FDF734FA2046BDE8F041FFF743BB00003B
:1053200070B5017800295BD140680321FFF7A4FD27
:1053300008B1FDF7E9F92B482B4DB0F900002880A2
:1053400000EE100A2948B8EEC00AFFF715FC2848FD
:1053500080ED000AB5F9000000EE100AB8EEC00AB0
:10536000FFF77EFB23481F4C243C80ED000A606859
:1053700000F064FAA0604020E061C000FFF7C6FBC7
:105380002061E069C000FFF7C1FB6061E069C00017
:10539000FFF7BCFB03232362A06117A1E269A068A9
:1053A00000F0C6FA15A1E06000F0ACF814A1E068C6
:1053B00000F0DEF8A06800F03FFAE06800F0B6FA0E
:1053C0002069FFF7EFFA6069FFF7ECFAA069FFF7D1
:1053D000E9FAB5F90000FBF79BFD2078401C20702E
:1053E00070BD0000DC00002000000020F80000205C
:1053F00004000020080000206477740073796D00B9
:1054000064697265637400000EB50E4A07CA8DE8C0
:1054100007000C480C492838FFF7C6FD08B1FDF716
:1054200073F969460020FFF779FD08B1FDF76CF9C3
:1054300003210648FFF720FD002801D0FDF764F99D
:105440000EBD000068C0000021530000DC000020F9
:10545000054810B54078FFF7FBFC002803D0BDE8F5
:105460001040FDF751B910BDB80000203EB5FFF760
:10547000D7FB08B1FDF748F91F49204AD1E90801D7
:10548000CDE9010103208DF806001B4801A9183061
:10549000FFF724FE08B1FDF737F9174C18342068E0
:1054A000D0F810050021C2B24FF47A50FAF721FF6C
:1054B000024600200146009001232046FFF7F8FD38
:1054C0002046FFF7E7FD246804F5A074FFF7B6FD5A
:1054D00005460B48FFF76AFC08B1FDF715F90848C7
:1054E0002A46401E21464078FFF790FC002801D054
:1054F000FDF70AF93EBD000040C000001D56000047
:10550000B900002070B50D4604460CA12846FAF7F4
:105510003DFF303448B10AA12846FAF737FF30B1D1
:10552000BDE8704007A0FCF7A7B904A100E004A102
:105530002046BDE87040FAF737BF000073796D0070
:10554000706572005369676E616C20657874656E72
:1055500073696F6E2063616E20626520656974688F
:10556000657220706572206F722073796D00000083
:1055700070B50D4604460EA12846FAF707FF3A34E7
:1055800070B10CA12846FAF701FF48B10AA12846DC
:10559000FAF7FCFE30B1BDE8704009A0FCF76CB929
:1055A00003A100E004A12046BDE87040FAF7FCBE6C
:1055B0006666740046465400646972656374000050
:1055C000436F6E766F6C7574696F6E204F6E6C7979
:1055D00020616363657074732074776F206D6574E8
:1055E000686F6473202D2064697265637420616E36
:1055F000642066667400000010B50446012003466E
:10560000002201E05B00521C8A42FBDB94FBF3F1B9
:1056100003FB1141002900D0002010BD704700009D
:105620002DE9F04F0C464FF4927887B0054641467D
:10563000FFF7B0FB4FF0020B01274FF4827640B129
:1056400041462846FFF7ABFB31462846FFF7A2FB51
:10565000E8B14FF482712846FFF79CFB010004F18A
:105660000C00DFF84C91EA4645F307364FF000088E
:10567000069048D04FF482712846FFF790FB94F8CB
:105680002000400624D494F82E00C8B120E0A06881
:10569000C5F80803C4F808B0A068C5F804034FF4BF
:1056A000B0712846FFF776FB18B1D5F800028005E7
:1056B00001D42F626F6184F82E7007B0BDE8F08FBF
:1056C0002146284600F0E8FA80F0010084F82E0018
:1056D00094F8200040073ED414220AF104000699F1
:1056E000FAF717FE4FF4B0712846FFF758FB4FF456
:1056F000AE712846FFF753FB94F8300008B394F8D6
:105700002E00F0B927E04FF4A4712846FFF747FBBD
:10571000207B68B14FF40070C5F80002801CA060C7
:10572000C5F80893A068C5F80403AF602F62C4E70A
:1057300014220AF104000699FAF7EBFD94F8300000
:1057400048B90020C5F80002C4F80880C5F80893DD
:105750003046FCF783F8D5F8C404C5F8C4048107C3
:1057600002D58DF8007011E0410702D58DF800B028
:105770000CE0C00701D0032003E094F82E0018B11C
:1057800004208DF8000001E08DF8008094F83000CE
:1057900008B984F82F8094F82000400703D594F8C6
:1057A0002E00002889D0D4E900216846904784E77C
:1057B00002029C01D0E9013201699A60D0E901231B
:1057C0005A604A68824201D182684A6000220261BE
:1057D0000868401E08600868704742684A6093681D
:1057E0008B6093685960916008610168491C016091
:1057F000704700000E48016B11B10121C161704773
:105800000021C16101690B4AB1FA81F1C1F11F01A7
:1058100001EB810102EB810101F108034A68526842
:105820004A609A4201D152684A60D168016070476B
:105830000C00002028010020FFF7B4B8F8B50600DE
:105840004FF0000502D0FEF799FE0546582000EB08
:105850004510FFF75BF9456345640564C56304467D
:1058600031468563FAF7A0FD86B105EB450004EBF0
:10587000C000583004EB051304EBC502009004F19E
:105880005801304658325833FCF788FF04F158006D
:10589000A06404EBC5005830E06404EB05105830F8
:1058A000206505EB450004EBC000583060652046DC
:1058B000F8BD000070B50D462DED048B04469FED3C
:1058C000170BFBF7EDFFB0EE409AF0EE609A28461A
:1058D000FAF708FF9FED131B53EC112BFAF71BFE91
:1058E00041EC180B2046FAF7FDFE53EC182BFAF7A3
:1058F0008AFE41EC100BFBF7D3FFB0EE401AF0EE3E
:10590000601A53EC192B51EC110BFAF77CFEBDEC2D
:10591000048BBDE87040FAF7F6BE000000000000FE
:1059200000000040000000000000F03FFFF73AB820
:105930002DE9FF4F2DED028B81B0002403981E4608
:105940001546D0F83480642B02DD6EA0FBF794FF7F
:1059500041462846FFF7AEFF8246564503DD014625
:105960007748FBF789FF711C04984FF4F87B05FB1F
:1059700001F74FEA4609E8B172A1FAF707FDC8B18D
:1059800071A10498FAF702FDA0B170A10498FAF78A
:10599000FDFCE8B16EA10498FAF7F8FCC0B16DA166
:1059A0000498FAF7F3FCF0B16CA10498FAF7EEFC56
:1059B000C8B13AE008F1010009FB00510BEBC1004E
:1059C0000091FFF7A3F80099C161044665A128E0A2
:1059D00031462846FFF710FE10B963A0FBF74CFFD5
:1059E0000BEBC70018E06FA10398FAF7B6FC88B973
:1059F0006EA10398FAF7B1FC60B95AA10398FAF7BF
:105A0000ACFC38B96AA10398FAF7A7FC10B96A4848
:105A1000FBF732FF0BEB0710FFF778F8044667A19E
:105A2000C76104F13000FAF7BFFC03986561A56116
:105A30002060C4E9096A04F108000499FAF7B4FC8B
:105A4000E9074FF0000030D0E062824660605CA160
:105A500004F13A00FAF7A8FCB61CC4F848A004F513
:105A6000F8702662C4F8E80136A10498FAF78EFCB3
:105A70009FED558BE0B134A10498FAF787FCB8B1DB
:105A800032A10498FAF782FC00B331A10498FAF726
:105A90007DFCD8B12FA10498FAF778FC00B32FA1B0
:105AA0000498FAF773FCD8B124E00121E162CCE755
:105AB00008F1010109FB0151002004E004EBC002E0
:105AC000401C82ED7C8B8142F8DC13E0002004E076
:105AD00004EBC001401C81ED7C8B8742F8DC09E0BF
