:020000040000FA
:1000000060330020AD020000B5020000B70200001E
:10001000B9020000BB020000BD02000000000000A9
:1000200000000000000000000000000015020000B9
:10003000C10200000000000051020000C5020000E3
:1000400061060000C7020000C7020000C7020000EE
:10005000C7020000C7020000A90300009D0A0000BB
:10006000050E0000C7020000C7020000C702000022
:10007000C7020000C7020000C7020000C70200005C
:10008000C7020000350A0000C7020000C7020000D6
:10009000C7020000C7020000C7020000C70200003C
:1000A000C7020000C7020000C7020000C70200002C
:1000B000C7020000C70200000000000000000000AE
:1000C000C7020000C7020000C7020000C70200000C
:1000D000C7020000C7020000C7020000C7020000FC
:1000E000C7020000C7020000C702000000000000B5
:1000F00000000000C702000000000000C70200006E
:1001000000000000000000000000000000000000EF
:1001100000000000000000000000000000000000DF
:1001200000000000000000000000000000000000CF
:1001300000000000000000000000000000000000BF
:1001400000000000000000000000000000000000AF
:10015000000000000000000000000000000000009F
:10016000000000000000000000000000000000008F
:10017000000000000000000000000000000000007F
:10018000000000000000000000000000000000006F
:10019000000000000000000000000000000000005F
:1001A000000000000000000000000000000000004F
:1001B000000000000000000000000000000000003F
:1001C000000000000000000000000000000000002F
:1001D000000000000000000000000000000000001F
:1001E000000000000000000000000000000000000F
:1001F00000000000000000000000000000000000FF
:10020000DFF80CD000F098F80048004739120000E1
:1002100060330020244B19680868B0E8F04F80F381
:100220000988BFF36F8F4FF0000080F3118870478B
:10023000000000000548006880F3088862B661B6D7
:10024000BFF34F8FBFF36F8F00DF0000000000008F
:10025000EFF30980BFF36F8F134B1A681EF0100F76
:1002600008BF20ED108A20E9F04F106008B44FF06D
:10027000400080F31188BFF34F8FBFF36F8F02F000
:100280003BFA4FF0000080F3118808BC1968086839
:10029000B0E8F04F1EF0100F08BFB0EC108A80F3EA
:1002A0000988BFF36F8F70470C0000200648804715
:1002B00006480047FEE7FEE7FEE7FEE7FEE7FEE74B
:1002C000FEE7FEE7FEE7FEE7290C00000102000062
:1002D000202A04DB203A21FA02F00021704721FA9B
:1002E00002F3D040C2F12002914008431946704702
:1002F00040EA01039B0703D009E008C9121F08C0A8
:10030000042AFAD203E011F8013B00F8013B521E27
:10031000F9D27047D2B201E000F8012B491EFBD29E
:1003200070470022F6E710B513460A460446194600
:10033000FFF7F0FF204610BD064C074D06E0E068D1
:1003400040F0010394E8070098471034AC42F6D31C
:10035000FFF75AFF882E0000A82E000030B5114884
:1003600001680468056831F8863FA4898A88B5F871
:100370008C50991A651B01EB4501056809B2C9103B
:10038000A5F88C2002680568B2F88820A5F88A20B4
:100390000268A2F888300268A2F886400068C1812D
:1003A00030BD0000642E00002DE9FC410025DFF87F
:1003B000948000954FF4807601242F4601953046B5
:1003C00001F07EF838B1D8F80403204203D030465B
:1003D00001F06CF82543361D64007F1CB6B2082F6F
:1003E000EDD34FF4BE74204601F06AF848B12046C0
:1003F00001F05CF845F000456A460221002000F05B
:10040000EDFF15F0FF0F16D0012600242E420ED06E
:1004100008EB8401D1F81005D1F81015C0F30520C0
:10042000094AC1F3014152F8242002B190477600F5
:10043000641C082CEAD3002D02DA684601F0BAFAEF
:10044000BDE8FC8100600040B411002070B5214877
:100450000168B1F90230A3F1100109B2002901DAF3
:10046000203109B209B34A1E12B20468066804EBCF
:10047000430406EB410134F9463F06EB42025D11AD
:100480000368B1F84610B2F84620B3F90A30A5EB7C
:1004900063152944891A104A158C294409B211841C
:1004A0002380002903DB491005E01F22DDE74FF41C
:1004B000784242EA610102689181016802684988D4
:1004C000491C09B25180202902D1006800214180D5
:1004D00070BD0000642E000074000020F0B51A49C1
:1004E0000A68B2F90040A21F12B2002A01DA0C32E7
:1004F00012B2164B5E8E9D8EC6EB45070688B81964
:100500000F6807EB4202D28DA0EB420007EB4402DA
:10051000D48D5D86204400B29886D685002801DB04
:10052000401103E04FF4784242EA60100A685081BB
:1005300008680A680088401C00B210800C2802D1AC
:10054000096800200880F0BD642E000074000020BF
:1005500070B5234B04881A8D944200D91C85214A1A
:100560001568ED888DB11E4DB3F90E60688DB5F933
:100570002250B6F5C87F0FDA204440085885B1F9FB
:10058000000028444010588470BD12680124D480B3
:10059000008858850888F6E714680221C008E180C1
:1005A000198D14684908E1821468091A208300EB48
:1005B000A100116880B28882116840084883B3F9AD
:1005C000040041101068C1831368E810091A1884E8
:1005D00000EBA1001168888311684010488470BD49
:1005E00074000020642E000070B51B484FF6FF74A5
:1005F00001680A8A1949A51A8B8C9D4202D91344B5
:100600008B8400E08C84036804688E8CB3F904301A
:1006100004EB43040023B4F88E50B54202D2751B9C
:100620008D8400E08B84A4F88E20898C1E22B1FB7F
:10063000F2F1026851824FF4FA42914201D9016805
:100640004A82016802688988491C09B291801E2982
:1006500001D10068838070BD642E0000740000200A
:1006600070B54FF48076304600F006FE114CB505AB
:1006700060B1304600F007FE0120C5F8080360793C
:1006800020B9012060712168002088474FF48276EC
:10069000304600F0F1FD00280AD0304600F0F3FDAE
:1006A0000220C5F808032168BDE870400120084712
:1006B00070BD00005C000020F1B582B0002702A8E8
:1006C000FFF70CFFFFF7C2FE754E3068B0F90C0063
:1006D00000F06CF9FFF742FE3068B0F90E0000F050
:1006E0007DF900F07FFAFFF77FFF00F08FF96D4C86
:1006F000ADF80000002550B9B4F9181039B1491E01
:1007000008B22083A0B9E08CADF8000010E078B109
:10071000B4F91810282211B1E38C984202D922832F
:10072000E08403E0491E08B2208368B3ADF80050AE
:10073000E089401C01B2E1813068B0F9060030B3B5
:10074000012824D03268938ABDF80020934252D207
:100750003368B4F904C0B3F91C3063454BDA02289E
:100760001ED048292FDAB4F90A00B4F90C10B0EB06
:10077000A10F28DA0121684600F010FC4948012148
:10078000001D00F0DDFB4FE0ADF80030D0E7BDF814
:10079000000078B343496846091DFFF7D9FE43E0DE
:1007A0000021684600F0FAFB3E480021001D00F0E1
:1007B000C7FBE5816089A0816581A58031684E27EE
:1007C0000320C88030E00021684600F0E7FB354890
:1007D0000021001D00F0B4FBB4F90E0000F03AFB5C
:1007E000E5816089A081A58065816583A583E58316
:1007F0004E27258618E0BAB10121684600F0CEFBED
:1008000028480121001D00F09BFBBDF80010208E40
:10081000814209D9B4F90E00482805DB2186A18858
:10082000A1836189E18360833068B4F90E10B0F967
:100830002A0088422BDA3068218E408B884226D2EB
:100840003068C088032822D13068B4F91C10B0F990
:10085000220088421BDA13480021303000F09EFB52
:10086000104800211C3000F06BFBB4F91A0000F0B6
:10087000F1FAE089618B401AE0814E3007B2E08BDB
:10088000A081A58065816583A583E5832586B4F96C
:100890000E00B0F5487F01DD00F006F83846FEBDD9
:1008A000642E00007400002070B5EA213648FFF77E
:1008B00038FD36490020C8230A68D0800A6893842E
:1008C0000A6813810C68B822E2840C68E822228549
:1008D0000C684FF4A67262850A6810800A6850801E
:1008E0000A6890800A6890850C68002204EB420533
:1008F000521C52B2E8850C2AF8DBD1F800400022E5
:1009000004EB4205521C52B2A5F84600202AF7DB40
:100910000C68002204EB4205521C52B2A5F8860076
:10092000042AF7DB0C68002204EB4205521C52B289
:10093000A5F88E001E2AF7DB0C68002204EB4201AA
:10094000521CA1F8DA3052B2A1F8CA30082AF5DBFD
:100950000F494FF4C862C885888588804880088020
:10096000888148810881C880C8814882088288843B
:10097000CA828A82088348830886C8838883088558
:1009800008848886488670BD5C120020642E0000B2
:1009900074000020044C00BFB4F91200FFF78CFE75
:1009A000052001F0D9FDF7E746130020002801DA01
:1009B000404200B20849B1F90020904208DCB1F988
:1009C00002309A4204DDB1F904309A4200DD8A8097
:1009D0004A8008807047000074000020002801DA77
:1009E000404200B20849B1F90620904208DCB1F952
:1009F00008309A4204DDB1F90A309A4200DD4A819A
:100A00000A81C88070470000740000200748084928
:100A100000688A8D438A934204D8C88D824201D9E6
:100A2000104600E00020CA858B857047642E0000C8
:100A3000740000202DE9F041164E4FF4A0713046AD
:100A400000F046FD0025EFF31184402080F311886B
:100A5000D6F804758100304600F03AFD02F078F8CF
:100A6000381A20F07F46012E07D902F063F80228D9
:100A700003D0002602F072F80543761EFAD225B1A3
:100A800005494FF08050086040BFE0B280F3118804
:100A9000BDE8F0810010014004ED00E02DE9FE43C7
:100AA0004FF48278404600F02BFD4C4F00254C4C13
:100AB000012600B3404600F02BFD94F82E0010B143
:100AC00094F82F10D1B18DF80050616801912189FF
:100AD000ADF80810E26832B1218B61836260218138
:100AE000E56010B102E0257400E03E6021686846D0
:100AF000884784F82F5094F82E0060B34FF4807725
:100B0000384600F0FDFC30B3384600F001FD628B42
:100B100094F82D108A420AD9A2EB010080B26083BA
:100B20002289A2EB0000626802EB400005E007D1D9
:100B3000E06828B184F82F60658300F0CFFC04E002
:100B40008A4202D184F82F606583404600F0E0FCC1
:100B50002248001D06604FF48877384600F0D0FC2C
:100B600048B1384600F0D4FC257402208DF800000E
:100B70002168684688474FF48A77384600F0C0FC01
:100B800028B1384600F0C4FC2574BDE8FE834FF060
:100B900000484FF48C7967691DE000BFB7FA87F011
:100BA00028FA00F109EB80058F43284600F0A8FCE5
:100BB00088B1284600F0ACFCA5F58C75E8088DF8E6
:100BC000040045F38000401C8DF800608DF805009E
:100BD000216868468847002FE0D1D6E700700040C2
:100BE000201200200F4947F230520868B0F90E0079
:100BF00000F58073B3F5007F04D90B684FF6FF70E2
:100C000018820CE0002802DA404280B201E0086855
:100C1000C0890B68404380B21882904201D90868AD
:100C200002827047642E000030B54FF080520023DE
:100C3000D2E94C10082906D1CC06C4F80C31C4F80E
:100C40001031624C2360082955D1614B1B68614CFF
:100C500023605F4B1B1D1B68241D23605C4B083306
:100C60001B68241D23605A4B0C331B68241D236012
:100C7000574B10331B68241D2360554B14331B68DE
:100C8000241D2360524B18331B68524C20342360C0
:100C90004F4B1C331B68241D23604D4B20331B68B6
:100CA000241D23604A4B24331B68241D2360484BBA
:100CB00028331B68241D2360454B2C331B68241DDF
:100CC0002360434B30331B68424C40342360404B1D
:100CD00034331B68241D23603D4B38331B68241DAF
:100CE00023603B4B3C331B68241D2360384B40334F
:100CF0001B68241D2360082904D1030002D1374C4E
:100D0000354B2360082904D1030002D1344CFB2366
:100D10002360082908D1030006D1324B92F85852BB
:100D20001C6865F303041C60082904D1030002D188
:100D30002D4C8B012360082906D12C480168C90776
:100D400002D06FF0010101602948016841F470018F
:100D50000160BFF34F8FBFF36F8FD2E94C104FF09C
:100D60001022082906D1032804D9D2F8080217490D
:100D700020310860D2F80002002803DBD2F8040218
:100D800000281FDA012000F009FE1221C2F800122B
:100D900018480368002BFCD0C2F80412016800292F
:100DA000FCD0002000F0FAFDBFF34F8F10487C38D4
:100DB0000168114A01F4E06111430160BFF34F8FF4
:100DC00000BFFDE70E490D48086030BD3805004002
:100DD0000404001020C50040488103008C560040E8
:100DE00018F50040E40E0040409602400004004028
:100DF00088ED00E000E401400400FA050090D00313
:100E0000C40000202DE9F047104E042700244FF4C1
:100E1000A0784FF4803900BF08EB840509FA04F08C
:100E2000715961B1D6F80413014208D02946304601
:100E300000F078FB0648D0E9002128469047641C62
:100E4000E4B2BC42E8D3BDE8F08700000080004077
:100E500050120020F0B5384A918AB2F910500B18A0
:100E600036490C6804EB45046D1C34F8CA6F2DB28A
:100E70009B1B1BB293822080DC1703EB5473DC10A6
:100E80000B681C8100231582082D00D113820D6888
:100E90004FF0320CB5F92650854237DC0D68B5F9B4
:100EA0002850854232DBD48A0E682518B2F91240E8
:100EB00006EB4406641C36F8DA7F24B2ED1B2DB233
:100EC000D5823080E81705EB50700D68C010082CF3
:100ED000A884548200D153820A6819240E68B2F99A
:100EE0000820550095FBF4F5551BF584950095FBFE
:100EF000F4F422440C68228500EB401292FBFCF2D1
:100F000010440A68508508688385F0BD04EB4410DE
:100F100090FBFCF00A682044508508680A68808AC3
:100F20004008908208680A68B0F91C00401090835D
:100F3000096801208885F0BD74000020642E00003F
:100F4000154A002911680CD0B1F920101368A1EBE3
:100F5000E1011984B0F9000001EBE0001168088498
:100F60000BE0B1F91E101368A1EBE101D983B0F9D0
:100F7000000001EBE0001168C8831068B0F91E1092
:100F8000B0F92000091A00EBA100116800B28883B3
:100F90001168401048847047642E0000124A0029EE
:100FA00011680AD0098B1368A1EBD101198300885D
:100FB00001EBD0001168088309E0C98A1368A1EB2E
:100FC000D101D982008801EBD0001168C882106875
:100FD000C18A008B091A00EBA100116880B28882D7
:100FE0001168400848837047642E000002E008C87A
:100FF000121F08C1002AFAD170477047002001E093
:1010000001C1121F002AFBD170471CB5032000F05C
:10101000C3F92F2000F0C0F90121032000F033FABA
:1010200001212F2000F02FFA00212E200123009112
:101030000A46019100F097F901F09CF801F0D4F80C
:10104000BDE81C4001F0C2B872B609480068C0078C
:1010500000D000BEBFF34F8F0548E4380168054A51
:1010600001F4E06111430160BFF34F8F00BFFDE762
:10107000F0ED00E00400FA050EB500210091CDE985
:1010800001106A4644F20100FFF7DEFF0EBD00F0DA
:1010900003B800F009B8000072B602480168491CA4
:1010A000016070477000002003490868401E086016
:1010B00000D162B670470000700000202DE9FC41AD
:1010C0000646C0074FF000050ED0104F0024012245
:1010D000385D009500231146019500F02BF9641C42
:1010E000042CF4D300F032F8B0070DD5074E0024DD
:1010F000361D0022305D032300951146019500F056
:1011000019F9641C042CF4D3BDE8FC81502E0000B6
:10111000094908B5085C0090684600F077F9D0F8F6
:101120000425009B0121994021EA0203C0F80835FB
:101130001140C0F80C1508BD502E00000249085C93
:10114000012100F08DB90000502E000010B50024E0
:101150002046FFF7F3FF641C042CF9D310BD0000F8
:101160000249084490F9300070470000B411002093
:1011700070B5084C050009D010342168002907D04B
:1011800008682060496828468847F6E70834F4E78D
:1011900070BD0000A0110020054A012120B10128E6
:1011A00005D19170FFF7E4BF51700020FAE7704756
:1011B000A011002009490120096809B100207047E9
:1011C0000749CA69002AF9D1044A28321268896895
:1011D000491E8A42F3D10220704700003C110020D2
:1011E0000C0000200121814003484068014201D0E9
:1011F00001207047002070476400002001218140D9
:10120000080300D0012070470268134602E08A42BA
:1012100004D01268002AFAD10B60016070474FF4C5
:10122000FA740020FFF774FF204601F095F9F8E703
:101230000120FFF76DBF000000F02EF808B1FFF7A6
:101240001BFF0120FFF73AFFFFF7DFFEFFF72CFB44
:101250000448016841F00401016001F05FF801F009
:1012600013FAFEE710ED00E0C20800F007030120CA
:10127000895C98400840704700F180400068002871
:1012800000D00120704708B500F1804000210160C6
:101290000068009008BD000070B50C4C0125207856
:1012A00008B185260BE00020A06060602061E0604E
:1012B000074800F05BF9064600F042F9257000F09F
:1012C00037F900B1A570304670BD0000A0110020B4
:1012D0009911000070B5104D0446A87838B114B1CA
:1012E0006168012088470020FFF7D1FE0CE0002054
:1012F000FFF7CDFE24B1084821461030FFF784FFE8
:10130000E86808B900F042F9E868401CE860BDE808
:1013100070400020FFF7BDBEA011002004480178F6
:1013200009B185207047012101700020704700003D
:101330006C0000202DE9FF411C46DDE90A781546C6
:101340000E46684600F062F846EA450141EA84012B
:1013500041EA072242EA0841009A00EB8200C0F805
:101360000017BDE8FF812DE9FF411C46DDE90A7841
:1013700015460E46684600F065F846EA450141EA22
:10138000840141EA072242EA0841009A00EB820008
:10139000C0F80017BDE8FF811CB5002100910B4685
:1013A000012201911146FFF7DEFF1CBD13B50C466B
:1013B000684600F039F8009900EB8101D1F8002768
:1013C00022F44032C1F80027009900EB8100D0F8E8
:1013D000001741EA0441C0F800171CBD3CB50A4C97
:1013E000D4E90034CDE900346B46441808E000BF6E
:1013F00053F82010D1F8205520C2C1F82055401CC8
:101400008442F5D83CBD00005C2E00000168202914
:1014100002D24FF0A040704701F01F010160014867
:1014200070470000000300500168202902D24FF0ED
:10143000A040704701F01F010160014870470000A3
:10144000000300500168202902D24FF0A0407047ED
:1014500001F01F01016001487047000000030050C7
:1014600038B501240090684631B1FFF7CFFF0099ED
:101470008C40C0F8084538BDFFF7C8FF00998C4084
:10148000C0F80C4538BD38B501240090684631B12C
:10149000FFF7D8FF00998C40C0F8084538BDFFF72A
:1014A000D1FF00998C40C0F80C4538BD034908B500
:1014B0000844002101600068009008BD0060004001
:1014C00002494058012800D00020704700600040C9
:1014D00008B5002242504058009008BD024A1060F2
:1014E000101D0160704700002C7600400301034886
:1014F0001844C0F81425C0F810157047007000405B
:1015000002494058002800D0012070470070004078
:10151000034908B50844002202600068009008BD35
:101520000070004008B5002242504058009008BDAD
:1015300002480068002800D00120704700040140E4
:1015400008480068012110F0010F06D14FF0E0209B
:10155000C02280F800248430C1670349012008605C
:101560007047000000E100E018050040064902460F
:1015700000200B790BB1852070470A6001220A71A7
:1015800000224A71704700005C00002010B54FF443
:101590008270FFF778FE02204107C1F80403024978
:1015A0000120086010BD0000080000402DE9F04750
:1015B0000427144E814600244FF001080020FFF755
:1015C00066FD08FA04F5354203D02046FFF70AFE0F
:1015D00058B10020FFF75DFD27B104F10104AE43CF
:1015E000E4B2EBD13846BDE8F087074908FA04F0C9
:1015F00000274A681043486089F800403846FFF7E2
:1016000048FDEFE7FFFF0F00640000202DE9F041E7
:1016100014460D00074612D08CB10026FFF7EEFDF0
:1016200078B13846FFF7DEFD68B1084800EBC70027
:10163000C0F81055C0F814453046BDE8F0810E20C2
:10164000FBE70726F8E70826F6E7000000F0014070
:1016500070B5044601260025A640FFF7CFFD18B15E
:101660002046FFF7BFFD18B102480660284670BD4E
:101670000825FBE704F501402DE9F041254C06461D
:1016800012200D46C4F808032348017C022918D013
:10169000027C01464FF4807891F82E10012A12D076
:1016A0000222C4F804230127077446600581002242
:1016B000C26021B3458390F82D103046FFF70EFF2E
:1016C00025E0122002E0C2682AB10220C4F8040317
:1016D0001120BDE8F081C660058361B947463846F0
:1016E000FFF70EFF0028FAD03846FFF711FF294612
:1016F0003046FFF7F3FE0220C4F8040307E0294652
:101700003046FFF7EBFE4046FFF702FF2760002060
:10171000DFE700000070004020120020204A10B5D2
:10172000137C0BB1112010BD02EB40031C7F1CB9D0
:1017300012F82D4F641C1470CA791A770A7A5A77F6
:101740000A784B78302402F0030204EA03131A43A8
:101750008B784FF4E06404EA03231A43CB784FF408
:10176000805404EA03331A430B794FF4E02404EA6B
:1017700003431A434B794FF4801404EA03531A438A
:101780008B79240104EA0363064C1A4304EB00132B
:10179000C3F818250A7AC979FFF7A8FE002010BD02
:1017A00020120020007000402DE9F0411F4C05463A
:1017B00094F82C0010B10820BDE8F08144F8101B0B
:1017C0001B4928780860091D68780860E878A077C8
:1017D000012727770020207060776060154EE07742
:1017E0006FF00040C6F808034FF48270FFF790FED8
:1017F000B015FFF78DFE4FF48A70FFF789FEA878C9
:101800000D49400181F800048020C91FC1F8000182
:101810000220C6F80403A07F10B10120C6F804031B
:101820000348F03807600020C6E7000020120020BF
:10183000F07500400070004007E000E0044890F8B8
:101840002E0008B1002000E004200249084470473F
:1018500020120020007000402DE9F04106460D46A0
:101860004FF4803400681746AC404BB14FF4A07180
:1018700001EB8501FFF756FE3068C0F8044301E034
:10188000C0F80843306800EB8500C0F84075BDE83B
:10189000F0810000016801220A600079034A00EB30
:1018A000400002EB800002210172704750120020BC
:1018B000F0B40468049E40F20115D4F800728D4023
:1018C000AF43C4F800720468D4F800521D43C4F852
:1018D00000523346F0BCFFF7BFBF00002DE9F041D6
:1018E00004460E4600792C4900EB400001EB8007CE
:1018F000387A10B10820BDE8F0813A6070680025A0
:101900004FF4A078786006E008EB85012068FFF7C7
:1019100009FE6D1CEDB26079A842F5D82068F17817
:1019200040F3073000284FEA411104DB00F1E020CA
:1019300080F8001405E000F00F0000F1E02080F8CE
:10194000141D2068012140F30730002809DB00F056
:101950001F0201FA02F24009800000F1E020C0F805
:10196000002120687278D0F8043562F30103C0F8D2
:1019700004352068B278D0F8083562F30103C0F866
:10198000083520683278D0F8103562F30303C0F8C8
:10199000103539720020AEE750120020034908606C
:1019A000034801680029FCD07047000004E50140AD
:1019B00000E401402DE9F84F314F05464FF0010991
:1019C0000024381990F96010491C46D090F8600046
:1019D000294620F0C0063046FFF746FC70B320468B
:1019E00000F050F8824668460096FFF71DFD00990A
:1019F00000EB8100D0F80007C0F30148B8F1020FF6
:101A00001DD002213046FFF7D1FC68460096FFF753
:101A10000BFD009A09FA02F1C0F820153046FFF7D5
:101A20009FFB57F820204AB15046BAF1030F11D05E
:101A3000B8F1020F05D0B8F1030F07D00DE0032174
:101A4000E0E75046BAF1010F04D006E05046BAF183
:101A5000020F02D1014630469047641C042CB0D3DB
:101A60002A4602210020FFF7B9FC002055F820107B
:101A70000029A5D1401C0228F8D3BDE8F88F00004A
:101A8000B41100200249084490F8600080097047B2
:101A9000B41100202DE9F041184C0F460546E668C8
:101AA0002068001D00F057FC38B9206890F82C1011
:101AB00001208840216981432161681C07D137B129
:101AC0002168BDE8F0410E48091D00F07DBC20688A
:101AD0003544B5424560216805D2A06BBDE8F041B0
:101AE000091D00F059BC606B091D00F055FCA06A8F
:101AF000854200D2A562BDE8F08100000C00002004
:101B0000641100202DE9F041054600F069FC2E4CDF
:101B1000A068401CA06020682C4F10B1606940B3E1
:101B20002DE02560A068012829D1002606EB86005B
:101B300007EB800000F022FC761C032EF6D323482E
:101B40003C3000F01BFC2148503000F017FC1F48CF
:101B5000643000F013FC1D48783000F00FFC1B4887
:101B60008C3000F00BFC19483C3060631430A063EB
:101B700005E02068E96AC06A884200D82560606A8A
:101B8000401C6062E96A012022698840104320619C
:101B900001EB810007EB8000291D00F015FC00F02F
:101BA00029FC606900280DD02068E96AC06A884273
:101BB00008D207494FF08050086040BFBFF34F8FF5
:101BC000BFF36F8FBDE8F0810C000020D81000201B
:101BD00004ED00E010B500F003FC0E4C2068A0B945
:101BE0000D4800F0CBFB0C48143000F0C7FB0A484E
:101BF000E0601430206100221021202000F0C4FD9C
:101C0000206010B105A100F071FCBDE8104000F0AB
:101C1000F1BB00004800002078110020546D725183
:101C20000000000030B4026C0B46002A0BD0C168E3
:101C30001144C1604468A14201D30168C16030BC55
:101C40001846FEF755BB30BC70472DE9F041856B57
:101C5000174604460026026C82B1C7B1E068FEF761
:101C600047FBE168206C091AE1602268914202D2C8
:101C70006168081AE060022F16D017E02068A8B942
:101C8000606800F0BBFF0646002060600EE0A068C0
:101C9000FEF72EFB216CA0680844A06061688842B2
:101CA00004D32068A06001E005B16D1E6D1CA56322
:101CB0003046BDE8F08110B50446006B00F0A4FB8F
:101CC0002046BDE8104000F09FBB00000A480021FC
:101CD0000269012A00D901210268D26A0AB10020F2
:101CE0007047064A1268012AF9D80029F7D1816A9B
:101CF000C068081A704700000C000020D8100020AF
:101D00001A4C1B4E12E000BF00F06AFBF068C56879
:101D1000281D00F020FBA068401EA0606068401EE7
:101D2000606000F067FB2846FFF7C5FF6068002889
:101D3000EAD10F4878380068012808D90D494FF0DA
:101D40008050086040BFBFF34F8FBFF36F8FFFF726
:101D5000BDFF0228D5D300F0C7FCFFF7B7FF02286C
:101D600001D300F073FB00F0B7FFCAE70C000020BE
:101D70005011002004ED00E02DE9F0470E46DDE9AA
:101D800009841746824691009946089DA522206B3A
:101D9000FEF7C0FA6FF00301206B01EB87010844E6
:101DA00020F0070700202218315C82F83410315CE3
:101DB00011B1401C0428F6D3002684F83760032DA7
:101DC00000D30225E562C4E90E56201D00F0E1FAB9
:101DD00004F1180000F0DDFA2461C5F1030064622B
:101DE000A061266484F844604A465146384600F0B3
:101DF00099F92060B8F1000F01D0C8F80040BDE8A3
:101E0000F087000070B5002441600B4D00619142E5
:101E100006D8D11A8269914206D2011D286907E0CD
:101E20009A4203D2994201D3012403E0011DE868DC
:101E300000F0B2FA204670BD4800002010B50446FC
:101E400000F0CEFAA06B28B15FF0000400F0D2FAE7
:101E5000204610BD0124F9E730B589B0264D41E098
:101E60000498002806DADDE90601059A90470498EF
:101E7000002837DB069C606910B1201D00F06BFA6A
:101E800002A800F09DF8024604980A282AD2DFE84A
:101E900000F0050505291E260505291E0598A169DE
:101EA000034601442046FFF7ADFFD8B1616A2046E2
:101EB0008847E069012815D1002000900598A169A4
:101EC000002342181946204600F09AFF0AE00598C0
:101ED000A061811813462046FFF794FF02E02046D8
:101EE00000F092FA002204A9286800F055FD0028AD
:101EF000B6D109B030BD0000480000202DE9FC41FA
:101F00000F46054600F0F0FB01A800F059F8044622
:101F1000019818B100F0E0FEBDE8FC811E4EB7B19B
:101F200030690068A8B30027291B3A46306800F0E2
:101F3000F1FA00F0D1FE0028EED118494FF08050A0
:101F4000086040BFBFF34F8FBFF36F8FE4E7A54238
:101F5000EAD800F0C1FEF0682746C068C468201DBA
:101F600000F0F9F9E06901280FD1A0692B46411969
:101F70003A462046FFF746FF38B1002003460146A7
:101F800000902A46204600F03BFF616A20468847C1
:101F9000C2E7FFE70127C7E74800002004ED00E0A3
:101FA0000648416B096829B1416BC968C96849682D
:101FB000816270474FF0FF31FAE700000C0000200B
:101FC00070B5054600F0C4FD064E0446B068844274
:101FD00003D200F009F8012000E00020286020462C
:101FE000B46070BD48000020F8B5144D1EE0C06814
:101FF000C4680668201D00F0AEF9616A2046884773
:10200000E069012812D1A0693044B04206D92461A8
:102010006060211DE86800F0BFF907E0002003467A
:10202000014600903246204600F0EAFEE86801686A
:102030000029DCD12969C5E90310F8BD480000205A
:10204000402080F31188FEE7074CE068016841B149
:10205000C0680021D0F80000FFF750FFFFF7FCFE3A
:10206000F3E701210020F7E7480000202DE9F041C7
:10207000044600F0B5F994F9455004F1240609E04E
:10208000606A48B1304600F0F1FD08B100F0D2FAC4
:102090006D1E6DB2002DF3DC4FF0FF3684F8456005
:1020A00000F0A8F900F09CF994F9445004F11007ED
:1020B00009E0206948B1384600F0D8FD08B100F0C9
:1020C000B9FA6D1E6DB2002DF3DC84F84460BDE8F2
:1020D000F04100F08FB9000070B5044600254007BC
:1020E00004D004F00700C0F10800044400F0FCFA3A
:1020F0000A49486818B90A4820F0070048600A6889
:1021000040F6F8731019984204D2904202D94B68F5
:1021100008609D1800F0E0FD284670BD000000201A
:10212000D000002010B5084C031F24681C601B1F42
:102130001960191F054B0B6014390A60091F6FF0F5
:10214000020244380A6010BD582E000041200000F1
:1021500010B5017800290AD140680521FFF78CFAF3
:1021600008B1FEF789FF02484168491C416010BD73
:10217000AC0000200EB5124A07CA8DE807001048CF
:1021800010491438FFF710FB08B1FEF775FF6946D8
:102190000020FFF7C3FA08B1FEF76EFF05210A48D9
:1021A000FFF76AFA08B1FEF767FF074805210A3012
:1021B000FFF762FA002801D0FEF75EFF0EBD0000B7
:1021C0007C2E00005121000046130020054810B568
:1021D0000078FFF73DFA002803D0BDE81040FEF775
:1021E0004BBF10BDAC0000203EB5FFF797F808B11B
:1021F000FEF742FF1E491F4AD1E90301CDE9010163
:1022000003208DF806001A4801A9001DFFF766FBA0
:1022100008B1FEF731FF164C241D2068D0F81005D8
:102220000021C2B21448FEF753F8024600200146CE
:10223000009001232046FFF73BFB2046FFF72AFBD7
:10224000246804F5A074FFF7F9FA05460B48FFF778
:10225000ADF908B1FEF710FF08482A46214600787C
:10226000FFF7D4F9002801D0FEF706FF3EBD0000BD
:10227000682E00004923000080380100AC000020D7
:102280001CB500F0ADF81A491E20CDE9000100236D
:102290004FF4827217A1194800F020FC18480090F2
:1022A000002301224FF47A7116A000F06FFD104C4C
:1022B000241FE06000F04CFC024600200346009022
:1022C0000121E06800F09CFD04F108014FF400706A
:1022D000CDE9000100231E220CA10F4800F0FEFBF7
:1022E000206800F053F9BDE81C4000F083B80000FE
:1022F000B80000204C454430000000001F120000D0
:10230000311200004C4544310000000050616E5411
:102310006F6D706B696E7300950900001CB50549FF
:102320000120CDE9000100233C2203A1054800F073
:10233000D5FB1CBDB400002073746172745F7461BE
:10234000736B0000812200007047EFF31180402181
:1023500081F311887047D0E9013201699A60D0E9B0
:1023600001235A604A68824201D182684A60002291
:1023700002610868401E08600868704700F10801A3
:102380004FF0FF32C0E90112C1600161002101601C
:10239000704700210161704730B50B685A1C02D0AC
:1023A00000F1080202E0026904E022465468256850
:1023B0009D42FAD953684B6099608A605160086108
:1023C0000168491C016030BD42684A6093688B60B7
:1023D00093685960916008610168491C0160704709
:1023E000402080F3118802480168491C0160704751
:1023F0000800002003490868401E086001D180F3EE
:1024000011887047080000207047000010B50020B8
:10241000FEF760FF0B481F21C0F808150121C0F826
:102420000413816001600221C0F844130649E020D2
:1024300081F800044FF0E0214FF40030C1F80001B2
:1024400010BD00000010014011E000E02DE9F04156
:1024500004462448844200D9044672B6224DD5F879
:102460000475FEF7A7FED0B33819012120F07F4094
:10247000C5F80813C5F840054FF4A0784146284632
:10248000FFF726F84FF48030C5F80403BFF34F8FF1
:102490004FF0E02634B120BFD6F80012D6F804225F
:1024A0001143F8D0C5F8080341462846FFF710F855
:1024B0004FF480712846FFF70BF80120C5F804039C
:1024C000D5F804054FF40031C01B20F07F40C6F85A
:1024D0008012A04200D9204608B100F0FDF862B693
:1024E000BDE8F081FDFFFF000010014010B5084B72
:1024F000002200BF53F832401CB1521C022AF9D30B
:1025000010BD43F8321003EBC201486010BD00005B
:10251000C810002070B515460E460446FFF760FF50
:1025200094F944100020491C01D184F8440094F926
:102530004510491C01D184F84500FFF75BFFA06BF3
:1025400028B92A46314604F1240000F089F82046D3
:10255000BDE87040FFF78ABD10B5020009D000F059
:10256000C3F800211046FFF795FA00F0B5FB0028EC
:1025700008D105494FF08050086040BFBFF34F8F2E
:10258000BFF36F8F10BD000004ED00E070B505468D
:10259000FFF726FF204C05B92568281DFFF7DBFE55
:1025A00058B9E86A1D4A00EB800152F8211021B9A0
:1025B00001218140206988432061A86A18B105F192
:1025C0001800FFF7C8FE606A401C60622068854200
:1025D00008D11248291D7830FFF7F6FE6068401CCC
:1025E000606007E0A068401EA0602846FFF763FB1C
:1025F000FFF7D6FCFFF7FEFE606900280BD02068CD
:10260000854208D106494FF08050086040BFBFF3B3
:102610004F8FBFF36F8F70BD0C000020D8100020CB
:1026200004ED00E002490A6A0260C968416070472F
:102630000C00002001490120C86170470C000020F7
:1026400010B50C46054909681831FFF7A5FE20466C
:10265000BDE810400121FFF71DBA00000C0000206A
:1026600070B50D460749144609681831FFF7ACFEEE
:102670000CB14FF0FF3521462846BDE87040FFF70A
:1026800009BA00000C0000201CB50F480024CDE959
:10269000004023463C220DA10E4800F01FFA0128FD
:1026A00011D100F08FFB01280DD1402080F311885B
:1026B0000548611E2C38816201214161C460BDE87A
:1026C0001C4000F03BB81CBD3800002049444C457C
:1026D00000000000011D00000249CA681044C860E3
:1026E000704700000C0000200248016B491C016388
:1026F000704700000C0000200E48016B11B1012151
:10270000C16170470021C16101690B4AB1FA81F1D1
:10271000C1F11F0101EB810102EB810101F108030D
:102720004A6852684A609A4201D152684A60D16848
:10273000016070470C000020D81000200E49E020F6
:1027400081F8140DFFF762FE0C49002008600C4868
:10275000016841F4700101600A48016841F040419C
:10276000016007487838016841F010010160FDF709
:1027700061FDFFF765FC00000EE000E008000020AE
:1027800088ED00E034EF00E070B50E00054612D091
:1027900005FB06F04830FFF79FFC040009D004F168
:1027A000480120464EB10160C0E90F56012100F0FA
:1027B00007F8204670BD0020ECE70060F4E7000059
:1027C00070B50D460446FFF70BFED4E90F122068E2
:1027D00001FB020060600020A0632068A060014649
:1027E000E06B401E00FB0210E0604FF0FF3084F809
:1027F000440084F8450004F110004DB1FFF7BEFD20
:1028000004F12400FFF7BAFDFFF7F4FD012070BDCD
:1028100021690029F8D000F029FA0028F4D00549F0
:102820004FF08050086040BFBFF34F8FBFF36F8FF2
:10283000EAE7000004ED00E02DE9FF4700273C4EE9
:1028400082B099468A460446B8464FF0805500BF8C
:10285000FFF7C6FDA06BE16B884206D3B9F1020F0A
:1028600003D00498C8B1DFB11EE04A465146204665
:10287000FFF7EBF9616A19B104F1240000F0F6F9F1
:1028800028B1356040BFBFF34F8FBFF36F8FFFF7A5
:10289000B1FD012006B0BDE8F087FFF7ABFD21E0F8
:1028A0006846FFF7BFFE0127FFF7A4FDFFF71CFFF7
:1028B000FFF796FD94F94400401C01D184F8448050
:1028C00094F94500401C01D184F84580FFF792FD42
:1028D00004A9684600F0DAF830B12046FFF7C6FBDD
:1028E00000F0FAF90020D5E7FFF77AFDA06BE16B65
:1028F000884214D1FFF77EFD04F110000499FFF720
:102900009FFE2046FFF7B2FB00F0E6F900289FD1BA
:10291000356040BFBFF34F8FBFF36F8F98E7FFF76E
:1029200069FD2046FFF7A2FB00F0D6F990E7000012
:1029300004ED00E02DE9F047984617468946044625
:10294000FFF703FDA16B0646E06B814208D3B8F1A7
:10295000020F05D00020F1B281F31188BDE8F087A5
:1029600094F94550424649462046FFF76EF9681CE7
:1029700004D06D1C84F845500120ECE7606A002803
:10298000FAD004F1240000F071F90028F4D0002FEF
:10299000F2D001203860EFE72DE9F7470026DFF895
:1029A000E88083B08A460446B1464FF0805700BFA6
:1029B000FFF716FDA56BCDB151462046FFF732F962
:1029C0006D1EA563206958B104F1100000F04EF9A6
:1029D00030B1C8F8007040BFBFF34F8FBFF36F8FA7
:1029E000FFF708FD012006B0BDE8F087059808B1A3
:1029F0001EB106E0FFF7FEFC27E06846FFF712FE77
:102A00000126FFF7F7FCFFF76FFEFFF7E9FC94F9EB
:102A10004400401C01D184F8449094F94500401CC6
:102A200001D184F84590FFF7E5FC05A9684600F060
:102A30002DF8002820460AD0FFF718FB00F04CF9CB
:102A40002046FFF7FBF90028B2D00020CBE7FFF7C4
:102A5000F5F998B104F124000599FFF7F1FD20463E
:102A6000FFF704FB00F038F90028A1D1C8F8007086
:102A700040BFBFF34F8FBFF36F8F99E72046FFF73B
:102A8000F5FA00F029F993E704ED00E02DE9F041B3
:102A90000C460546FFF7A4FC0F4BDA686E68216808
:102AA000901B4F1C07D02F681B6A9F4209D096428B
:102AB00007D8012400E00024FFF79CFC2046BDE875
:102AC000F081814205D9081A20602846FFF7AAFD47
:102AD000F1E700202060ECE70C0000202DE9FF5F0B
:102AE0008346DDE90E87994616468A469000FFF731
:102AF000F3FA05001AD04820FFF7EEFA040012D0CE
:102B000025630021CDE90241CDE900874B463246DD
:102B100051465846FFF730F92046FEF7F3FF0120F3
:102B200004B0BDE8F09F2846FFF76EFC4FF0FF3081
:102B3000F6E700000548416919B1006B18B10020A3
:102B40007047012070470220704700000C000020F1
:102B50000148C068704700000C0000202DE9F041DA
:102B6000244C0027206B40B1A069401CA061E069A3
:102B700000B101273846BDE8F081E668761CE660C2
:102B800008D1606BA16B6163A063206A401C206266
:102B9000FFF706FAA06A8642E9D3606B006838B195
:102BA000606BC068C5686868864204D2A062DEE7D0
:102BB0004FF0FF30FAE7281DFFF7CDFBA86A18B1E8
:102BC00005F11800FFF7C7FBE86A0121226981407F
:102BD00011432161084900EB800001EB8000291DB1
:102BE000FFF7F2FBE86A2168C96A8842D5D301275A
:102BF000D3E700000C000020D810002070B50400BE
:102C00004FF000012BD0E06B401EE063A36BE26A43
:102C10009A4224D018BB201DFFF79DFB114B124A8E
:102C2000012150B9E06A00EB800553F8255025B921
:102C3000156901FA00F085431561A06BE062C0F1EF
:102C40000300A061E06A156981402943116100EB2E
:102C5000800003EB8000211DFFF7B6FB0121084631
:102C600070BD0000D81000200C0000202DE9F041BC
:102C7000C068C46804F118000746FFF76CFB144DE8
:102C8000286B012660B11348394600BFFFF79CFB53
:102C9000E06A2968C96A884213D90124EE6111E00B
:102CA000201DFFF758FBE16A2A6906FA01F010437C
:102CB000286101EB81000749643901EB8000211D87
:102CC000E4E70024FFF76CF92046BDE8F08100003E
:102CD0000C0000203C1100202DE9F047002426467E
:102CE000FFF77EFB264D286B401E2863286BE8BB50
:102CF000A968244F0120C9B3A7F164098046386848
:102D0000E8B1F868C46804F11800FFF724FB201D3F
:102D1000FFF721FBE06A2A6908FA00F111432961F3
:102D200000EB800109EB8100211DFFF74DFBE06AFC
:102D30002968C96A8842E2D3C5F81C80DFE70CB174
:102D4000FFF72EF9AC694CB14FEA0807FFF706FF11
:102D500000B1EF61641EF9D10020A861E86928B1D3
:102D6000094901263007086040BF00E003E0BFF3D7
:102D70004F8FBFF36F8FFFF73DFB3046BDE8F08705
:102D80000C0000203C11002004ED00E02DE9F0478C
:102D900006461F46154688462820DDF82090FFF796
:102DA0009BF904000BD0FEF715FF04F11C01C4F8D9
:102DB0001880266081E8A002201DFFF7EAFA20466D
:102DC000BDE8F0871CB50024FEF704FF0848006842
:102DD00058B107490220091DCDE900010023502206
:102DE00004A10648FFF77AFE044620461CBD0000F9
:102DF00048000020546D7220537663004920000083
:102E00002DE9FF41114C1F460346266800200A9D0C
:102E1000002E0ED08DE80E0006290FDAFFF78AFE8D
:102E200002284FF0000307D0002269462068FFF710
:102E300003FD04B0BDE8F0812A46F6E700233A46D8
:102E400069463046FFF776FDF3E7000048000020B2
:102E50000D0E0F100B0C181900000001000000509F
:102E6000000300505C1200200100060000800040BA
:102E70000004000000000006000000000000000048
:102E80000200000100000000A82E00000000002049
:102E9000C8000000EC0F0000702F0000C8000020E8
:102EA00098320000FC0F000000000000000000004D
:102EB0000000000000000000000000000000000012
:102EC0000000000000000000000000000000000002
:102ED00000000000000000000000000000000000F2
:102EE00000000000000000000000000000000000E2
:102EF00000000000000000000000000000000000D2
:102F000000000000000000000000000000000000C1
:102F100000000000000000000000000000000000B1
:102F200000000000000000000000000000000000A1
:102F30000000000000000000000000000000000091
:102F40000000000000000000000000000000000081
:102F50000000000000000000000000000000000071
:102F60000000000000000000000000000090D003FE
:0400000500000201F4
:00000001FF
