:020000040000FA
:10000000D0250020B1020000B9020000BB020000B0
:10001000BD020000BF020000C1020000000000009D
:1000200000000000000000000000000019020000B5
:10003000C50200000000000055020000C9020000D7
:10004000ED080000CB02000039110000A50E0000F1
:10005000CB020000CB020000350600005D0D000061
:10006000D5100000E9100000FD100000CB020000D8
:10007000CB020000CB020000CB020000CB0200004C
:10008000CB020000F50C0000CB020000CB02000008
:10009000CB020000CB020000CB020000CB0200002C
:1000A000CB020000CB02000011110000251100005E
:1000B000CB020000CB0200000000000000000000A6
:1000C000CB020000CB020000CB020000CB020000FC
:1000D000CB020000CB020000CB020000CB020000EC
:1000E000CB020000CB020000CB02000000000000A9
:1000F00000000000CB02000000000000CB02000066
:1001000000000000000000000000000000000000EF
:1001100000000000000000000000000000000000DF
:1001200000000000000000000000000000000000CF
:1001300000000000000000000000000000000000BF
:1001400000000000000000000000000000000000AF
:10015000000000000000000000000000000000009F
:10016000000000000000000000000000000000008F
:10017000000000000000000000000000000000007F
:10018000000000000000000000000000000000006F
:10019000000000000000000000000000000000005F
:1001A000000000000000000000000000000000004F
:1001B000000000000000000000000000000000003F
:1001C000000000000000000000000000000000002F
:1001D000000000000000000000000000000000001F
:1001E000000000000000000000000000000000000F
:1001F00000000000000000000000000000000000FF
:10020000DFF810D000F0DEF900480047F5140000D8
:10021000AFF30080D0250020244B19680868B0E8AF
:10022000F04F80F30988BFF36F8F4FF0000080F329
:1002300011887047000000000548006880F30888B6
:1002400062B661B6BFF34F8FBFF36F8F00DF000060
:1002500000000000EFF30980BFF36F8F134B1A68A3
:100260001EF0100F08BF20ED108A20E9F04F10603B
:1002700008B44FF0400080F31188BFF34F8FBFF3F5
:100280006F8F01F07DFE4FF0000080F3118808BCF5
:1002900019680868B0E8F04F1EF0100F08BFB0EC06
:1002A000108A80F30988BFF36F8F70470C0000201D
:1002B0000648804706480047FEE7FEE7FEE7FEE700
:1002C000FEE7FEE7FEE7FEE7FEE7FEE7F90E0000C9
:1002D00001020000202A04DB203A00FA02F100208B
:1002E00070479140C2F1200320FA03F31943904074
:1002F0007047202A04DB203A21FA02F000217047DF
:1003000021FA02F3D040C2F120029140084319467D
:10031000704740EA01039B0703D009E008C9121F98
:1003200008C0042AFAD203E011F8013B00F8013BAF
:10033000521EF9D27047D2B201E000F8012B491EDB
:10034000FBD270470022F6E710B513460A46044672
:100350001946FFF7F0FF204610BD2DE9FE4F81EA58
:10036000030404F0004421F0004100944FF0000B1E
:1003700023F0004350EA01045ED052EA03045BD04C
:10038000C3F30A54C1F30A552C44A4F2F334019484
:10039000A0FB0254C1F3130141F48011C3F3130312
:1003A00043F4801301FB024400FB034E840A970AC6
:1003B00044EA815447EA8357A4FB076802958D0AF3
:1003C00005FB07854FEA932C04FB0C542705029D7F
:1003D0004FEA065847EA1637B5EB08056EEB070CEF
:1003E000870E920E47EA811742EA8312A7FB0201A9
:1003F000B6EB0B0164EB00042B0D43EA0C335E18E3
:1004000044EB1C50DA465146E7FB0201C5F31304E6
:100410004FEA0B3343EA14534FEA0432019C43EA98
:100420000603A4F10C040294009CCDE900B400F092
:100430007BF803B0BDE8F08F00200146F9E700F03B
:10044000004230F000400AD0C10D01F56071C0F3E8
:10045000160042EA0151C2084007114370470020CC
:100460000146704701F0004330B421F0004150EAEA
:10047000010206D00A0DA2F56072C1F31301002A31
:1004800002DC30BC00207047440F44EAC104C100C4
:10049000E01830BC00EBC250AFF300800029A8BFC9
:1004A0007047401C490008BF20F00100704710B49D
:1004B000B0FA80FC00FA0CF050EA010404BF10BC52
:1004C000704749B1CCF1200421FA04F411FA0CF17F
:1004D00018BF012121430843A3EB0C01CB1D4FEAB8
:1004E00000614FEA102042BF002010BC704700EBB3
:1004F000C35010440029A4BF10BC7047401C4900E1
:1005000008BF20F0010010BC704710B5141E73F135
:10051000000408DA401C41F1000192185B411A43C3
:1005200001D120F0010010BD2DE9F04D92469B460F
:1005300011B1B1FA81F202E0B0FA80F220329046B5
:10054000FFF7C8FE04460F4640EA0A0041EA0B01E5
:1005500053465A46084313D0114653EA010019D0B6
:10056000C8F140025046FFF7C4FE05460E4650460D
:1005700059464246FFF7AEFE084305D0012004E08D
:1005800020463946BDE8F08D0020054346EAE07676
:100590002C4337430A986305E40AA0EB08000022C5
:1005A000FD0A44EA47540A3002D500200146E9E733
:1005B000010510196941DDE9084500196941BDE8E7
:1005C000F04DA2E7064C074D06E0E06840F001035D
:1005D00094E8070098471034AC42F6D3FFF714FEB6
:1005E000342100005421000030B51148016804682E
:1005F000056831F8863FA4898A88B5F88C50991A25
:10060000651B01EB4501056809B2C910A5F88C20EE
:1006100002680568B2F88820A5F88A200268A2F866
:1006200088300268A2F886400068C18130BD0000B1
:10063000F82000002DE9FC410025DFF894800095AA
:100640004FF4807601242F460195304601F032F8B0
:1006500038B1D8F80403204203D0304601F020F826
:100660002543361D64007F1CB6B2082FEDD34FF42E
:10067000BE74204601F01EF848B1204601F010F883
:1006800045F000456A460221002000F0C1FF15F048
:10069000FF0F16D0012600242E420ED008EB840155
:1006A000D1F81005D1F81015C0F30520094AC1F39F
:1006B000014152F8242002B190477600641C082CB6
:1006C000EAD3002D02DA684601F03CFABDE8FC816D
:1006D00000600040D803002070B521480168B1F9DE
:1006E0000230A3F1100109B2002901DA203109B268
:1006F00009B34A1E12B20468066804EB430406EB11
:10070000410134F9463F06EB42025D110368B1F83E
:100710004610B2F84620B3F90A30A5EB6315294418
:10072000891A104A158C294409B2118423800029A2
:1007300003DB491005E01F22DDE74FF4784242EA6F
:10074000610102689181016802684988491C09B207
:100750005180202902D100680021418070BD000035
:10076000F820000068000020F0B51A490A68B2F9C4
:100770000040A21F12B2002A01DA0C3212B2164B4C
:100780005E8E9D8EC6EB45070688B8190F6807EB8D
:100790004202D28DA0EB420007EB4402D48D5D866D
:1007A000204400B29886D685002801DB401103E082
:1007B0004FF4784242EA60100A68508108680A687B
:1007C0000088401C00B210800C2802D1096800206B
:1007D0000880F0BDF82000006800002070B5234BB1
:1007E00004881A8D944200D91C85214A1568ED8829
:1007F0008DB11E4DB3F90E60688DB5F92250B6F576
:10080000C87F0FDA204440085885B1F90000284419
:100810004010588470BD12680124D4800088588527
:100820000888F6E714680221C008E180198D146871
:100830004908E1821468091A208300EBA1001168BD
:1008400080B28882116840084883B3F904004110DF
:100850001068C1831368E810091A188400EBA1001E
:100860001168888311684010488470BD68000020BA
:10087000F820000070B51B484FF6FF7401680A8A23
:100880001949A51A8B8C9D4202D913448B8400E030
:100890008C84036804688E8CB3F9043004EB430441
:1008A0000023B4F88E50B54202D2751B8D8400E04F
:1008B0008B84A4F88E20898C1E22B1FBF2F1026891
:1008C00051824FF4FA42914201D901684A8201688B
:1008D00002688988491C09B291801E2901D10068EB
:1008E000838070BDF8200000680000202DE9F041F1
:1008F0004FF48076304600F04BFE234CB50560B1D6
:10090000304600F04CFE0120C5F80803607920B99C
:10091000012060712168002088474FF482763046BC
:1009200000F036FE40B1304600F039FE0220C5F836
:1009300008032168012088474FF48876304600F08C
:1009400027FE40B1304600F02AFE1020C5F808030B
:100950002168022088474FF48677384600F018FE59
:1009600000280ED0094800260660384600F017FE21
:100970000820C5F80803A6712168BDE8F0410320EE
:100980000847BDE8F081000048000020340C00401A
:10099000F1B582B0002702A8FFF7E6FEFFF79CFE44
:1009A000754E3068B0F90C0000F060F9FFF71CFEDE
:1009B0003068B0F90E0000F071F900F07BFAFFF733
:1009C00059FF00F083F96D4CADF80000002550B9D7
:1009D000B4F9181039B1491E08B22083A0B9E08CCF
:1009E000ADF8000010E078B1B4F91810282211B168
:1009F000E38C984202D92283E08403E0491E08B2C6
:100A0000208368B3ADF80050E089401C01B2E18159
:100A10003068B0F9060030B3012824D03268938AD8
:100A2000BDF80020934252D23368B4F904C0B3F940
:100A30001C3063454BDA02281ED048292FDAB4F95E
:100A40000A00B4F90C10B0EBA10F28DA01216846B6
:100A500000F01CFC49480121001D00F0E9FB4FE0BB
:100A6000ADF80030D0E7BDF8000078B343496846E0
:100A7000091DFFF7B3FE43E00021684600F006FCC5
:100A80003E480021001D00F0D3FBE5816089A08174
:100A90006581A58031684E270320C88030E00021A1
:100AA000684600F0F3FB35480021001D00F0C0FB54
:100AB000B4F90E0000F046FBE5816089A081A580B5
:100AC00065816583A583E5834E27258618E0BAB145
:100AD0000121684600F0DAFB28480121001D00F0E2
:100AE000A7FBBDF80010208E814209D9B4F90E0091
:100AF000482805DB2186A188A1836189E183608381
:100B00003068B4F90E10B0F92A0088422BDA306848
:100B1000218E408B884226D23068C088032822D19B
:100B20003068B4F91C10B0F9220088421BDA13486F
:100B30000021303000F0AAFB104800211C3000F0EA
:100B400077FBB4F91A0000F0FDFAE089618B401AD6
:100B5000E0814E3007B2E08BA081A580658165837E
:100B6000A583E5832586B4F90E00B0F5487F01DD45
:100B700000F006F83846FEBDF820000068000020AE
:100B800070B5EA213648FFF7DDFB36490020C8235F
:100B90000A68D0800A6893840A6813810C68B822B6
:100BA000E2840C68E82222850C684FF4A672628504
:100BB0000A6810800A6850800A6890800A689085E8
:100BC0000C68002204EB4205521C52B2E8850C2A44
:100BD000F8DBD1F80040002204EB4205521C52B26F
:100BE000A5F84600202AF7DB0C68002204EB42053A
:100BF000521C52B2A5F88600042AF7DB0C680022CA
:100C000004EB4205521C52B2A5F88E001E2AF7DBF7
:100C10000C68002204EB4201521CA1F8DA3052B2F7
:100C2000A1F8CA30082AF5DB0F494FF4C862C8851D
:100C30008885888048800880888148810881C880AC
:100C4000C881488208828884CA828A82088348834D
:100C50000886C8838883088508848886488670BD8E
:100C6000E4040020F820000068000020002801DAD9
:100C7000404200B20849B1F90020904208DCB1F9C5
:100C800002309A4204DDB1F904309A4200DD8A80D4
:100C90004A8008807047000068000020002801DAC0
:100CA000404200B20849B1F90620904208DCB1F98F
:100CB00008309A4204DDB1F90A309A4200DD4A81D7
:100CC0000A81C88070470000680000200748084972
:100CD00000688A8D438A934204D8C88D824201D924
:100CE000104600E00020CA858B857047F820000080
:100CF000680000202DE9F041164E4FF4A0713046F7
:100D000000F0E0FC0025EFF31184402080F311880F
:100D1000D6F804758100304600F0D4FC01F060F98B
:100D2000381A20F07F46012E07D901F04BF902282E
:100D300003D0002601F05AF90543761EFAD225B1F8
:100D400005494FF08050086040BFE0B280F3118841
:100D5000BDE8F0810010014004ED00E02DE9FE4304
:100D60004FF48278404600F0C5FC4C4F00254C4CB7
:100D7000012600B3404600F0C5FC94F82E0010B1E7
:100D800094F82F10D1B18DF800506168019121893C
:100D9000ADF80810E26832B1218B61836260218175
:100DA000E56010B102E0257400E03E60216868460D
:100DB000884784F82F5094F82E0060B34FF4807762
:100DC000384600F097FC30B3384600F09BFC628B4D
:100DD00094F82D108A420AD9A2EB010080B26083F8
:100DE0002289A2EB0000626802EB400005E007D117
:100DF000E06828B184F82F60658300F069FC04E0A6
:100E00008A4202D184F82F606583404600F07AFC64
:100E10002248001D06604FF48877384600F06AFCCF
:100E200048B1384600F06EFC257402208DF80000B1
:100E30002168684688474FF48A77384600F05AFCA4
:100E400028B1384600F05EFC2574BDE8FE834FF003
:100E500000484FF48C7967691DE000BFB7FA87F04E
:100E600028FA00F109EB80058F43284600F042FC88
:100E700088B1284600F046FCA5F58C75E8088DF889
:100E8000040045F38000401C8DF800608DF80500DB
:100E9000216868468847002FE0D1D6E700700040FF
:100EA000440400200149024800F080BFB004002043
:100EB000003000400F4947F230520868B0F90E0088
:100EC00000F58073B3F5007F04D90B684FF6FF700F
:100ED00018820CE0002802DA404280B201E0086883
:100EE000C0890B68404380B21882904201D90868DB
:100EF00002827047F820000030B54FF08052002386
:100F0000D2E94C10082906D1CC06C4F80C31C4F83B
:100F10001031624C2360082955D1614B1B68614C2C
:100F200023605F4B1B1D1B68241D23605C4B083333
:100F30001B68241D23605A4B0C331B68241D23603F
:100F4000574B10331B68241D2360554B14331B680B
:100F5000241D2360524B18331B68524C20342360ED
:100F60004F4B1C331B68241D23604D4B20331B68E3
:100F7000241D23604A4B24331B68241D2360484BE7
:100F800028331B68241D2360454B2C331B68241D0C
:100F90002360434B30331B68424C40342360404B4A
:100FA00034331B68241D23603D4B38331B68241DDC
:100FB00023603B4B3C331B68241D2360384B40337C
:100FC0001B68241D2360082904D1030002D1374C7B
:100FD000354B2360082904D1030002D1344CFB2394
:100FE0002360082908D1030006D1324B92F85852E9
:100FF0001C6865F303041C60082904D1030002D1B6
:101000002D4C8B012360082906D12C480168C907A3
:1010100002D06FF0010101602948016841F47001BC
:101020000160BFF34F8FBFF36F8FD2E94C104FF0C9
:101030001022082906D1032804D9D2F8080217493A
:1010400020310860D2F80002002803DBD2F8040245
:1010500000281FDA012000F069FD1221C2F80012F9
:1010600018480368002BFCD0C2F80412016800295C
:10107000FCD0002000F05AFDBFF34F8F10487C38A1
:101080000168114A01F4E06111430160BFF34F8F21
:1010900000BFFDE70E490D48086030BD380500402F
:1010A0000404001020C50040488103008C56004015
:1010B00018F50040E40E0040409602400004004055
:1010C00088ED00E000E401400400FA050090D00340
:1010D000C000002004220249024800F089B9000043
:1010E000740400200080004004220249024800F0FD
:1010F0007FB90000800400200090004004220249D3
:10110000024800F075B900008C04002000A00040E7
:1011100006220249024800F06BB900009804002042
:1011200000A0014006220249024800F061B9000017
:10113000A404002000B001400148006800470000FE
:101140005C000020F0B5384A918AB2F910500B18B3
:1011500036490C6804EB45046D1C34F8CA6F2DB297
:101160009B1B1BB293822080DC1703EB5473DC10B3
:101170000B681C8100231582082D00D113820D6895
:101180004FF0320CB5F92650854237DC0D68B5F9C1
:101190002850854232DBD48A0E682518B2F91240F5
:1011A00006EB4406641C36F8DA7F24B2ED1B2DB240
:1011B000D5823080E81705EB50700D68C010082C00
:1011C000A884548200D153820A6819240E68B2F9A7
:1011D0000820550095FBF4F5551BF584950095FB0B
:1011E000F4F422440C68228500EB401292FBFCF2DE
:1011F00010440A68508508688385F0BD04EB4410EC
:1012000090FBFCF00A682044508508680A68808AD0
:101210004008908208680A68B0F91C00401090836A
:10122000096801208885F0BD68000020F8200000D2
:10123000154A002911680CD0B1F920101368A1EBF0
:10124000E1011984B0F9000001EBE00011680884A5
:101250000BE0B1F91E101368A1EBE101D983B0F9DD
:10126000000001EBE0001168C8831068B0F91E109F
:10127000B0F92000091A00EBA100116800B28883C0
:101280001168401048847047F8200000124A002975
:1012900011680AD0098B1368A1EBD101198300886A
:1012A00001EBD0001168088309E0C98A1368A1EB3B
:1012B000D101D982008801EBD0001168C882106882
:1012C000C18A008B091A00EBA100116880B28882E4
:1012D0001168400848837047F8200000002809DBA7
:1012E00000F01F02012191404009800000F1E02040
:1012F000C0F88012704702E008C8121F08C1002A17
:10130000FAD170477047002001E001C1121F002A86
:10131000FBD170472DE9F041032000F055F92F2053
:1013200000F052F91D2000F04FF90F4E64254FF4E4
:101330007A47741C3846A0476D1EFAD101211D2042
:1013400000F09AF90121032000F096F901212F20E5
:1013500000F092F900F09AF800F0AAFC00F0DAFC34
:10136000BDE8F04100F0C8BC1021000072B6094889
:101370000068C00700D000BEBFF34F8F0548E438B7
:101380000168054A01F4E06111430160BFF34F8F2A
:1013900000BFFDE7F0ED00E00400FA050EB5002106
:1013A0000091CDE901106A4644F20100FFF7DEFF2B
:1013B0000EBD00F003B800F009B8000072B6024894
:1013C0000168491C016070476400002003490868F7
:1013D000401E086000D162B6704700006400002023
:1013E0000249084490F9300070470000D8030020FB
:1013F0002DE9F041174688460646002417E000BF55
:101400004FF4A07000EB84054FF480307159A04078
:1014100059B1D6F80413014207D02946304600F0EE
:101420007BF9D8E9002128469047641CE4B2BC420D
:10143000E6D3BDE8F0810000012181400348406807
:10144000014201D001207047002070475000002069
:1014500001218140080300D0012070470A48F0EEC6
:10146000400A0178012903D100210170C0ED050A6D
:1014700090ED050A90ED041A70EEC00A01EE200A04
:1014800080ED050A70470000A000002010B5164C42
:101490002DED048BA068FEF7D2FF41EC180B6068BD
:1014A000FEF7CDFF41EC190BE068FEF7C8FF9FED9A
:1014B0000F1B53EC112BFEF750FF53EC192BFEF7CB
:1014C0004CFF53EC182BFEF748FFFEF7CBFF00EE66
:1014D000100AF7EE000A70EE200A80EE201A84ED62
:1014E000041ABDEC048B10BDA00000200000000019
:1014F00000000040FFF70EFFFFF742FB014800F03D
:1015000035F8FEE7C400002010B50021C26A0B4682
:10151000541CF2EE040A1CD000EB820190ED0A1A72
:10152000D1ED001A31EE611A80ED0A1A81ED000A40
:1015300090ED0A1A31EE000A80ED0A0AC16A491CD0
:10154000C1620A2900DBC362B0EE401A81EE200AB4
:1015500010BD00EB8102491C82ED000A0A29F8DB6C
:1015600020EE200A80ED0A0AEDE700004FF0FF317F
:101570009FED020AC16280ED0A0A70470000000078
:10158000C20800F007030120895C984008407047BA
:1015900000F180400068002800D00120704708B5A5
:1015A00000F18040002101600068009008BD00004B
:1015B0000448017809B1852070470121017000209D
:1015C000704700005800002008B50090684600F001
:1015D00045F8009A032100EB8200C0F8001708BD0F
:1015E00013B50C46684600F02BF8009900EB81011A
:1015F000D1F8002722F44032C1F80027009900EB0F
:101600008100D0F8001741EA0441C0F800171CBD62
:101610003CB50A4CD4E90034CDE900346B4644189B
:1016200008E000BF53F82010D1F8205520C2C1F8BF
:101630002055401C8442F5D83CBD0000F02000003D
:101640000168202902D24FF0A040704701F01F012D
:101650000160014870470000000300500168202924
:1016600002D24FF0A040704701F01F010160014815
:10167000704700000003005038B501240090684610
:1016800031B1FFF7EBFF00998C40C0F8084538BD39
:10169000FFF7E4FF00998C40C0F80C4538BD00000E
:1016A000034908B50844002101600068009008BDA6
:1016B0000060004002494058012800D000207047D7
:1016C0000060004008B5002242504058009008BD1C
:1016D000024A1060101D0160704700002C76004027
:1016E000030103481844C0F81425C0F810157047CA
:1016F0000070004002494058002800D00120704787
:1017000000700040034908B50844002202600068E8
:10171000009008BD0070004008B5002242504058BB
:10172000009008BD4058002800D00120704708B53F
:10173000002242504058009008BD00002DE9F047BB
:101740000427144E814600244FF001080020FFF7C3
:1017500030FE08FA04F5354203D02046FFF76CFE50
:1017600058B10020FFF727FE27B104F10104AE4372
:10177000E4B2EBD13846BDE8F087074908FA04F037
:1017800000274A681043486089F800403846FFF750
:1017900012FEEFE7FFFF0F00500000202DE9F0419F
:1017A00014460D00074612D08CB10026FFF750FEFC
:1017B00078B13846FFF740FE68B1084800EBC70033
:1017C000C0F81055C0F814453046BDE8F0810E2031
:1017D000FBE70726F8E70826F6E7000000F00140DF
:1017E00070B5044601260025A640FFF731FE18B16A
:1017F0002046FFF721FE18B102480660284670BD5A
:101800000825FBE704F501402DE9F041254C06468B
:1018100012200D46C4F808032348017C022918D081
:10182000027C01464FF4807891F82E10012A12D0E4
:101830000222C4F8042301270774466005810022B0
:10184000C26021B3458390F82D103046FFF740FF6A
:1018500025E0122002E0C2682AB10220C4F8040385
:101860001120BDE8F081C660058361B9474638465E
:10187000FFF740FF0028FAD03846FFF743FF29461C
:101880003046FFF725FF0220C4F8040307E029468D
:101890003046FFF71DFF4046FFF734FF276000206A
:1018A000DFE700000070004044040020204A10B52B
:1018B000137C0BB1112010BD02EB40031C7F1CB93F
:1018C00012F82D4F641C1470CA791A770A7A5A7765
:1018D0000A784B78302402F0030204EA03131A4317
:1018E0008B784FF4E06404EA03231A43CB784FF477
:1018F000805404EA03331A430B794FF4E02404EADA
:1019000003431A434B794FF4801404EA03531A43F8
:101910008B79240104EA0363064C1A4304EB001399
:10192000C3F818250A7AC979FFF7DAFE002010BD3E
:1019300044040020007000402DE9F0411F4C054692
:1019400094F82C0010B10820BDE8F08144F8101B79
:101950001B4928780860091D68780860E878A07736
:10196000012727770020207060776060154EE077B0
:101970006FF00040C6F808034FF48270FFF7C2FE14
:10198000B015FFF7BFFE4FF48A70FFF7BBFEA878D3
:101990000D49400181F800048020C91FC1F80001F1
:1019A0000220C6F80403A07F10B10120C6F804038A
:1019B0000348F03807600020C6E700004404002018
:1019C000F07500400070004007E000E0044890F827
:1019D0002E0008B1002000E00420024908447047AE
:1019E00044040020007000402DE9F04106460D46F9
:1019F0004FF4803400681746AC404BB14FF4A071EF
:101A000001EB8501FFF788FE3068C0F8044301E070
:101A1000C0F80843306800EB8500C0F84075BDE8A9
:101A2000F0810000016801220A600079034A00EB9E
:101A3000400002EB80000221017270477404002014
:101A4000F0B40468049E40F20115D4F800728D4091
:101A5000AF43C4F800720468D4F800521D43C4F8C0
:101A600000523346F0BCFFF7BFBF00002DE9F04144
:101A700004460E4600792C4900EB400001EB80073C
:101A8000387A10B10820BDE8F0813A60706800250E
:101A90004FF4A078786006E008EB85012068FFF736
:101AA0003BFE6D1CEDB26079A842F5D82068F17854
:101AB00040F3073000284FEA411104DB00F1E02039
:101AC00080F8001405E000F00F0000F1E02080F83D
:101AD000141D2068012140F30730002809DB00F0C5
:101AE0001F0201FA02F24009800000F1E020C0F874
:101AF000002120687278D0F8043562F30103C0F841
:101B000004352068B278D0F8083562F30103C0F8D4
:101B1000083520683278D0F8103562F30303C0F836
:101B2000103539720020AEE77404002003490860C4
:101B3000034801680029FCD07047000004E501401B
:101B400000E401402DE9F84F314F05464FF00109FF
:101B50000024381990F96010491C46D090F86000B4
:101B6000294620F0C0063046FFF70AFD70B3204634
:101B700000F050F8824668460096FFF761FD009934
:101B800000EB8100D0F80007C0F30148B8F1020F64
:101B90001DD002213046FFF723FD68460096FFF76F
:101BA0004FFD009A09FA02F1C0F820153046FFF700
:101BB00017FC57F820204AB15046BAF1030F11D054
:101BC000B8F1020F05D0B8F1030F07D00DE00321E3
:101BD000E0E75046BAF1010F04D006E05046BAF1F2
:101BE000020F02D1014630469047641C042CB0D34A
:101BF0002A4602210020FFF70BFD002055F8201097
:101C00000029A5D1401C0228F8D3BDE8F88F0000B8
:101C1000D80300200249084490F86000800970470A
:101C2000D80300200648416B096829B1416BC96897
:101C3000C9684968816270474FF0FF31FAE70000D8
:101C40000C00002010B50178002926D1406803213E
:101C5000FFF7DAFD08B1FFF7A1FB1048104CB0F90F
:101C60000000208000EE100A0E48B8EEC00AFFF710
:101C70004BFC0D4880ED000AB4F9000000EE100A9C
:101C8000B8EEC00AFFF7EAFB084880ED000AB4F995
:101C90000000BDE81040FEF77BBE10BDBA0000207A
:101CA00000000020C40000200400002008000020E4
:101CB0000EB50E4A07CA8DE807000C480C492838B3
:101CC000FFF73AFE08B1FFF769FB69460020FFF70E
:101CD000EDFD08B1FFF762FB03210648FFF794FD15
:101CE000002801D0FFF75AFB0EBD0000282100009C
:101CF000451C0000BA000020054810B50078FFF729
:101D00006FFD002803D0BDE81040FFF747BB10BDB2
:101D1000B80000203EB5FFF74BFC08B1FFF73EFBD3
:101D20001E491F4AD1E90801CDE9010103208DF8C0
:101D300006001A4801A91830FFF798FE08B1FFF70E
:101D40002DFB164C18342068D0F810050021C2B2C3
:101D50004FF47A50FEF7CDFA02460020014600907B
:101D600001232046FFF76CFE2046FFF75BFE246848
:101D700004F5A074FFF72AFE05460A48FFF7DEFCCB
:101D800008B1FFF70BFB07482A4621460078FFF70A
:101D900005FD002801D0FFF701FB3EBD002100003A
:101DA000A91D0000B8000020704700002DE9F04F89
:101DB0000C464FF4927887B005464146FFF7B2FCD7
:101DC0004FF0020B01274FF4827640B1414628467E
:101DD000FFF7ADFC31462846FFF7A4FCE8B14FF40D
:101DE00082712846FFF79EFC010004F10C00DFF829
:101DF0004C91EA4645F307364FF00008069048D06C
:101E00004FF482712846FFF792FC94F820004006B8
:101E100024D494F82E00C8B120E0A068C5F80803C7
:101E2000C4F808B0A068C5F804034FF4B0712846A0
:101E3000FFF778FC18B1D5F80002800501D42F62B5
:101E40006F6184F82E7007B0BDE8F08F21462846F8
:101E500000F01CF980F0010084F82E0094F82000B6
:101E600040073ED414220AF104000699FEF751FA05
:101E70004FF4B0712846FFF75AFC4FF4AE71284674
:101E8000FFF755FC94F8300008B394F82E00F0B931
:101E900027E04FF4A4712846FFF749FC207B68B186
:101EA0004FF40070C5F80002801CA060C5F80893CC
:101EB000A068C5F80403AF602F62C4E714220AF1DA
:101EC00004000699FEF725FA94F8300048B900207E
:101ED000C5F80002C4F80880C5F808933046FFF73B
:101EE000FDF9D5F8C404C5F8C404810702D58DF8FE
:101EF000007011E0410702D58DF800B00CE0C0077A
:101F000001D0032003E094F82E0018B104208DF8CE
:101F1000000001E08DF8008094F8300008B984F8E2
:101F20002F8094F82000400703D594F82E00002855
:101F300089D0D4E900216846904784E702029C01D9
:101F4000D0E9013201699A60D0E901235A604A68F8
:101F5000824201D182684A60002202610868401E04
:101F600008600868704742684A6093688B609368AD
:101F70005960916008610168491C01607047000068
:101F80000E48016B11B10121C16170470021C1618F
:101F900001690B4AB1FA81F1C1F11F0101EB810125
:101FA00002EB810101F108034A6852684A609A42D3
:101FB00001D152684A60D168016070470C0000206E
:101FC000F40000200548416919B1006B18B10020E8
:101FD0007047012070470220704700000C0000206D
:101FE0000148C068704700000C0000202DE9F04156
:101FF000244C0027206B40B1A069401CA061E0691F
:1020000000B101273846BDE8F081E668761CE6603D
:1020100008D1606BA16B6163A063206A401C2062E1
:10202000FFF700FEA06A8642E9D3606B006838B112
:10203000606BC068C5686868864204D2A062DEE74B
:102040004FF0FF30FAE7281DFFF77AFFA86A18B1B2
:1020500005F11800FFF774FFE86A01212269814049
:1020600011432161084900EB800001EB8000291D2C
:10207000FFF779FFE86A2168C96A8842D5D301274A
:10208000D3E700000C000020F400002010B50B7B0B
:102090000122E3B1012B1DD0022B0FD0032B24D141
:1020A0008B685B0304D5D0F84C350C69A34216D17C
:1020B0008B685B0319D4D0F84C3506E0D0F84C356A
:1020C0000C69A3420BD1D0F83C35496905E0D0F842
:1020D0004C3501E0D0F83C3509698B4205D000222F
:1020E000C0F800250621C0F80015104610BD0000FC
:1020F0000000005000030050E40400200000000035
:1021000001000600000000000000000000000000C8
:102110000338FDD870470000008000400004000034
:1021200000000006000000000000000002000001A6
:10213000000000005421000000000020C400000046
:10214000F612000018220000C40000200C25000038
:102150000613000000000000000000000000000066
:10216000000000000000000000000000000000006F
:10217000000000000000000000000000000000005F
:10218000000000000000000000000000000000004F
:10219000000000000000000000000000000000003F
:1021A000000000000000000000000000000000002F
:1021B000000000000000000000000000000000001F
:1021C000000000000000000000000000000000000F
:1021D00000000000000000000000000000000000FF
:1021E00000000000000000000000000000000000EF
:1021F0000000000001000000000020426F12833A3E
:10220000D00F494000000000000000000000000066
:08221000000000000090D00363
:0400000500000201F4
:00000001FF
